:020000040800F2
:10000000A80F0020CD010008D5010008D701000885
:10001000D9010008DB010008DD0100080000000034
:10002000000000000000000000000000DF010008E8
:10003000E101000800000000E3010008E5010008FC
:10004000E7010008E7010008E7010008E7010008F0
:10005000E7010008E701000899070008CD0800083B
:10006000F9080008250900085109000829040008BA
:100070002D040008E701000859040008E701000802
:10008000E701000889040008E7010008E70100080B
:10009000E7010008E7010008E70100087D09000802
:1000A000E7010008D10F0008E7010008E701000898
:1000B000091000084D10000885100008E70100082D
:1000C000E7010008E7010008E7010008E701000870
:1000D000E7010008B1150008211600089116000874
:1000E000C5070008E7010008E7010008E70100086C
:1000F00065110008E7010008E7010008E7010008B2
:10010000E7010008E7010008BD100008E70100084A
:100110007114000811150008F51000082D110008D1
:10012000E7010008E7010008B904000829050008F4
:1001300000F002F800F03AF80AA090E8000C8244BF
:100140008344AAF10107DA4501D100F02FF8AFF29C
:10015000090EBAE80F0013F0010F18BFFB1A43F0A5
:1001600001031847A4420000C4420000103A24BF13
:1001700078C878C1FAD8520724BF30C830C144BF0C
:1001800004680C607047000000230024002500264E
:10019000103A28BF78C1FBD8520728BF30C148BFEA
:1001A0000B6070471FB51FBD10B510BD00F0DAF829
:1001B0001146FFF7F7FF03F0B7FB00F0F8F803B4C0
:1001C000FFF7F2FF03BC00F0FDF80000094880478C
:1001D00009480047FEE7FEE7FEE7FEE7FEE7FEE729
:1001E000FEE7FEE7FEE7FEE704480549054A064B41
:1001F00070470000710F000831010008A8090020B5
:10020000A80F0020A80B0020A80B002053EA020C26
:1002100000F069802DE9F04B4FF00006002B1FBF66
:10022000B3FA83F503FA05F424FA05F65E4012BF2B
:100230001643B2FA82F502FA05F4C5F120051EBF95
:1002400022FA05FC44EA0C04203556EA044C4FEA35
:10025000144418BF641C4FF000084FF0000990428E
:1002600071EB030C39D3002919BFB1FA81F701FAF8
:1002700007F6B0FA80F700FA07F6C7F120071EBFAD
:1002800020FA07FC46EA0C062037B6FBF4FCA7EB85
:100290000507103F07F01F0BCBF120060CFA0BFBF4
:1002A0002CFA06F644BFB3460026202FA4BF5E46B4
:1002B0004FF0000B5BEA060C08BF4FF0010B19EB87
:1002C0000B09ABFB027C48EB0608C01B06FB02CC0B
:1002D0000BFB03CC71EB0C01C1E70B460246414618
:1002E0004846BDE8F08B13B54FF000004FF0000119
:1002F000AFF30080BDE81C40704710B5203AC0F055
:100300000B80B1E81850203AA0E81850B1E8185016
:10031000A0E81850BFF4F5AF5FEA027C24BFB1E853
:100320001850A0E8185044BF18C918C0BDE81040C4
:100330005FEA827C24BF51F8043B40F8043B08BFCD
:100340007047D20728BF31F8023B48BF11F8012B94
:1003500028BF20F8023B48BF00F8012B70477047C8
:1003600070477047754600F029F8AE4605006946AB
:10037000534620F00700854618B020B5FFF734FF3C
:10038000BDE820404FF000064FF000074FF0000896
:100390004FF0000B21F00701AC46ACE8C009ACE817
:1003A000C009ACE8C009ACE8C0098D4670470446F6
:1003B000AFF300802046FFF702FF000000487047BF
:1003C0004409002001491820ABBEFEE726000200C8
:1003D0007047000039B1084A1268012383401A436C
:1003E000054B1A6006E0044A1268012383409A43D1
:1003F000014B1A60704700000074004041B1094A87
:1004000012684FF4805383401A43064B1A6007E08A
:10041000044A12684FF4805383409A43014B1A6098
:1004200070470000007400407047000010B52020A5
:1004300000F074F930B1102000F0ACF8002104484D
:1004400000F0B6F801210348806880F83C1010BD28
:100450001C000240A401002010B54FF4005000F031
:100460005DF938B14FF4805000F094F80021044851
:1004700000F09EF801210348006880F83C1010BD90
:1004800044000240A401002010B54FF0007000F0BD
:1004900045F938B14FF0807000F07CF80021044835
:1004A00000F086F801210348406880F83C1010BD38
:1004B00080000240A401002010B5164800F02EF97B
:1004C00030B3154800F066F80021144800F069FECA
:1004D0000021134800F06CF800210846FFF78EFF5A
:1004E000002202210E4800F02FF900210846FFF7F4
:1004F00071FF01200B49096808740A480068C06848
:1005000030B1084A12689068064A1268D168884774
:1005100010BD00000002001000010010001000409B
:10052000300402401800002010B5164800F0F6F81C
:1005300030B30021144800F034FE124800F02AF8CD
:100540000021124800F034F800211020FFF756FF78
:10055000002202210D4800F0F7F800211020FFF7DB
:1005600039FF01200A494968087409484068C06891
:1005700030B1074A52689068054A5268D168884786
:1005800010BD000000200010001400404404024090
:100590001800002000F0805111B10349086001E00B
:1005A0000249486070470000040402400000024015
:1005B00021B1026842F00102026004E002684FF6D5
:1005C000FE731A400260704701684FF6FE721140D8
:1005D00001600021016041608160C1604B49884237
:1005E00008D14A490839496841F00F01474A083A99
:1005F00051608AE045491431884208D1434908399D
:10060000496841F0F001414A083A51607DE03F49B4
:100610002831884208D13D490839496841F4706160
:100620003A4A083A516070E038493C31884208D172
:1006300036490839496841F47041344A083A5160F2
:1006400063E032495031884208D13049083949685D
:1006500041F470212D4A083A516056E02B4964312B
:10066000884208D129490839496841F47001274A6C
:10067000083A516049E025497831884208D1234938
:100680000839496841F07061204A083A51603CE0FD
:100690001F49884206D1011F096841F00F01021F5E
:1006A000116032E01A491431884208D11849091FF3
:1006B000096841F0F001164A121F116025E0144943
:1006C0002831884208D11249091F096841F4706134
:1006D0000F4A121F116018E00D493C31884208D1C1
:1006E0000B49091F096841F47041094A121F116042
:1006F0000BE007495031884207D10549091F0968B5
:1007000041F47021024A121F116070470800024034
:10071000080402400146486880B270470146002044
:10072000002201F0805313B1054B1A6801E0054B1C
:100730001A6802EA01030BB1012000E000207047B3
:1007400000040240000002401AB103680B4303603A
:1007500002E003688B430360704710B50022026813
:1007600047F6F0739A430C6A8B6823430C69234362
:100770004C6923438C692343CC6923434C6A23434C
:100780008C6A23431A430260CB6843600B68836022
:100790004B68C36010BD000010B5012000F064F983
:1007A00068B1012000F052F905480068807D30B141
:1007B000034A12689068024A1268D168884710BDDF
:1007C000D800002010B54FF4806000F04DF980B1E2
:1007D0004FF4806000F03AF93B48806A807D002841
:1007E00071D0394A926A9068374A926AD1688847CC
:1007F00069E04FF4006000F037F980B14FF4006019
:1008000000F024F93048C06A807D00285BD02E4A71
:10081000D26A90682C4AD26AD168884753E04FF474
:10082000805000F021F980B14FF4805000F00EF9B3
:100830002548006B807D002845D0234A126B9068C4
:10084000214A126BD16888473DE04FF4005000F018
:100850000BF978B14FF4005000F0F8F81A48406BEB
:10086000807D80B3184A526B9068174A526BD168EA
:10087000884728E04FF4804000F0F6F878B14FF454
:10088000804000F0E3F81048806B807DD8B10E4ABC
:10089000926B90680C4A926BD168884713E04FF4D2
:1008A000004000F0E1F870B14FF4004000F0CEF8E5
:1008B0000548C06B807D30B1034AD26B9068024A14
:1008C000D26BD168884710BDD800002010B5022037
:1008D00000F0CAF868B1022000F0B8F80548406896
:1008E000807D30B1034A52689068024A5268D168EC
:1008F000884710BDD800002010B5042000F0B4F8DF
:1009000068B1042000F0A2F805488068807D30B10D
:10091000034A92689068024A9268D168884710BD7D
:10092000D800002010B5082000F09EF868B108201B
:1009300000F08CF80548C068807D30B1034AD26869
:100940009068024AD268D168884710BDD80000205C
:1009500010B5102000F088F868B1102000F076F88B
:1009600005480069807D30B1034A12699068024AE7
:100970001269D168884710BDD800002010B520202A
:1009800000F072F878B1202000F060F82E4840693D
:10099000807D002857D02C4A526990682A4A5269B3
:1009A000D16888474FE0402000F05EF878B14020E1
:1009B00000F04CF824488069807D002843D0224A0A
:1009C00092699068204A9269D16888473BE080200C
:1009D00000F04AF870B1802000F038F81A48C06979
:1009E000807D80B3184AD2699068174AD269D1686D
:1009F000884728E04FF4807000F036F878B14FF463
:100A0000807000F023F81048006A807DD8B10E4A4B
:100A1000126A90680C4A126AD168884713E04FF452
:100A2000007000F021F870B14FF4007000F00EF883
:100A30000548406A807D30B1034A526A9068024A94
:100A4000526AD168884710BDD8000020014908606B
:100A50007047000014040140024909680143014A3B
:100A6000116070471004014001460020034A1268DB
:100A70000A400AB1012000E0002070471404014040
:100A8000002123498279002A3AD00A461268036875
:100A90009A430B461A600A1D126803689A430B1D9D
:100AA0001A60027911440A6803681A430A60184AF6
:100AB0000832126803689A43154B08331A601A1DEE
:100AC000126803689A43124B0C331A604279102A59
:100AD0000ED11A1F126803681A430D4B08331A60AF
:100AE0001A1D126803681A43094B0C331A600DE093
:100AF0000749427911440A6803681A430A6005E00D
:100B0000027911440A6803689A430A60704700003A
:100B10000004014030B500228B071C0F0F2303FA9D
:100B200004F20B4B8C1053F824309343084C8D1077
:100B300044F8253023468C1053F824308C07240FBA
:100B400000FA04F42343024C8D1044F8253030BDE4
:100B5000080001402DE9F041024600250026002052
:100B600000230024002791F803C00CF00F0591F832
:100B700003C00CF0100CBCF1000F03D091F802C0C0
:100B80004CEA050591F800C0BCF1000F31D01468A3
:100B900000202BE04FF0010C0CFA00F3B1F800C07C
:100BA0000CEA03069E4220D183004FF00F0C0CFA92
:100BB00003F7BC4305FA03FC4CEA040491F803C0B4
:100BC000BCF1280F06D14FF0010C0CFA00FCC2F862
:100BD00014C00AE091F803C0BCF1480F05D14FF0F2
:100BE000010C0CFA00FCC2F810C0401C0828D1D33C
:100BF0001460B1F800C0BCF1FF0F34DD5468002070
:100C00002EE000F1080C4FF0010808FA0CF3B1F8DF
:100C100000C00CEA03069E4221D183004FF00F0C66
:100C20000CFA03F7BC4305FA03FC4CEA040491F800
:100C300003C0BCF1280F05D100F1080C08FA0CF82C
:100C4000C2F8148091F803C0BCF1480F07D100F13D
:100C5000080C4FF0010808FA0CF8C2F81080401C8C
:100C60000828CED35460BDE8F08102460020936886
:100C70000B400BB1012000E00020704770B500214F
:100C800000230F22C47804B3154C246804F4E064F4
:100C9000C4F5E064210AC1F10403CA40447804FAAF
:100CA00003F184781440214309010E4C0678A155C4
:100CB000047804F01F050124AC4005786D11AD00E7
:100CC00005F1E025C5F8004109E0047804F01F05AE
:100CD0000124AC40044D0678761145F8264070BDDD
:100CE0000CED00E000E400E080E100E00249014397
:100CF000024A1160704700000000FA050CED00E0A8
:100D0000024A0A400243024B1A60704780FFFF1FED
:100D100008ED00E029B1064A52690243044B5A61CA
:100D200004E0034A52698243014B5A617047000054
:100D30000010024029B1064AD2690243044BDA612D
:100D400004E0034AD2698243014BDA617047000034
:100D50000010024029B1064A12690243044B1A618D
:100D600004E0034A12698243014B1A617047000094
:100D70000010024029B1064A92690243044B9A616D
:100D800004E0034A92698243014B9A617047000074
:100D90000010024029B1064AD2680243044BDA60CF
:100DA00004E0034AD2688243014BDA6070470000D6
:100DB0000010024030B500210022002400232D4DF8
:100DC0006D6805F00C0121B1042905D0082923D153
:100DD00005E0294D056022E0274D05601FE0254D07
:100DE0006D6805F47012234D6D6805F4803402259A
:100DF00005EB92421CB9214D554305600BE01D4D9A
:100E00006D6805F400351DB11C4D5543056002E0C9
:100E1000194D5543056002E0174D056000BF00BF46
:100E2000144D6D6805F0F0010909154D6B5C0568FE
:100E3000DD4045600F4D6D6805F4E061090A104D15
:100E40006B5C4568DD4085600A4D6D6805F4605156
:100E5000C90A0B4D6B5C4568DD40C560054D6D688A
:100E600005F44041890B074D6B5CC568B5FBF3F594
:100E7000056130BD0010024000127A0000093D00FB
:100E8000000000201000002010B500F001F810BD97
:100E90000CB50020019000903348006840F4803089
:100EA0003149086000BF3048006800F4003000900D
:100EB0000198401C0190009818B90198B0F5A06FF6
:100EC000F1D12948006800F4003010B101200090F1
:100ED00001E0002000900098012843D123480068D9
:100EE00040F01000214908600846006820F0030027
:100EF00008600846006840F0020008601A48406830
:100F0000194948600846406848600846406840F40F
:100F1000806048600846406820F47C1048600846BD
:100F2000406840F4E81048600846006840F080706F
:100F3000086000BF0C48006800F000700028F9D07D
:100F40000948406820F003000749486008464068A7
:100F500040F00200486000BF0348406800F00C0009
:100F60000828F9D10CBD000000100240002002400A
:100F700010B51348006840F00100114908600846A8
:100F80004068104908400E494860084600680E490C
:100F900008400B4908600846006820F4802008607B
:100FA0000846406820F4FE0048604FF41F00886047
:100FB000FFF76AFF4FF000600449086010BD0000B1
:100FC000001002400000FFF8FFFFF6FE08ED00E011
:100FD00010B501210A4800F0E5F978B1012108486F
:100FE00000F0DCF807480068007D012806D1054ABA
:100FF00012689068034A1268D168884710BD0000E3
:10100000002C01404801002010B50121880700F0A4
:10101000C9F9C0B10121880700F0C0F80A4800688A
:1010200088B109480068C06830B1074A1268906802
:10103000054A1268D1688847034800680069401C67
:1010400001490968086110BD1400002010B5012194
:101050000A4800F0A7F978B10121084800F09EF88D
:1010600007488068007D012806D1054A926890688B
:10107000034A9268D168884710BD00000004004010
:101080004801002010B501210A4800F08BF978B121
:101090000121084800F082F80748C068007D012857
:1010A00006D1054AD2689068034AD268D168884759
:1010B00010BD0000000800404801002010B50121CB
:1010C0000A4800F06FF978B10121084800F066F88D
:1010D00007480069007D012806D1054A1269906819
:1010E000034A1269D168884710BD0000000C004017
:1010F0004801002010B501210A4800F053F978B1E9
:101100000121084800F04AF807484069007D01289D
:1011100006D1054A52699068034A5269D1688847E6
:1011200010BD0000001000404801002010B5012152
:101130000A4800F037F978B10121084800F02EF88C
:1011400007488069007D012806D1054A92699068A8
:10115000034A9269D168884710BD0000001400401E
:101160004801002010B501210A4800F01BF978B1B0
:101170000121084800F012F80748C069007D0128E5
:1011800006D1054AD2699068034AD269D168884776
:1011900010BD00000034014048010020CA43028213
:1011A000704721B1028842F00102028004E0028807
:1011B0004FF6FE731A4002807047000010B50446D7
:1011C0006848844208D10121C014FFF7E3FD0021E3
:1011D000E014FFF7DFFDC4E0B4F1804F08D1012136
:1011E0000846FFF7B7FD00210120FFF7B3FDB8E087
:1011F0005D48844208D101210220FFF7ABFD0021A8
:101200000220FFF7A7FDACE05848844208D1012135
:101210000420FFF79FFD00210420FFF79BFDA0E0C5
:101220005348844208D101210820FFF793FD002193
:101230000820FFF78FFD94E04E48844208D1012139
:101240001020FFF787FD00211020FFF783FD88E0C5
:101250004948844208D101212020FFF77BFD00216D
:101260002020FFF777FD7CE04448844208D101212B
:101270004014FFF78FFD00216014FFF78BFD70E035
:101280003F48844209D10121C804FFF783FD0021B2
:101290004FF40020FFF77EFD63E03A48844209D115
:1012A00001210805FFF776FD00214FF48010FFF7BC
:1012B00071FD56E03448844209D101214805FFF709
:1012C00069FD00214FF40010FFF764FD49E02F484D
:1012D000844208D101214020FFF73CFD002140203D
:1012E000FFF738FD3DE02A48844208D101218020E3
:1012F000FFF730FD00218020FFF72CFD31E025486D
:10130000844208D101218015FFF724FD0021A0159A
:10131000FFF720FD25E02048844209D1012108047F
:10132000FFF738FD00214FF48030FFF733FD18E060
:101330001A48844209D101214804FFF72BFD0021FE
:101340004FF40030FFF726FD0BE01548844208D12A
:1013500001218804FFF71EFD00214FF48020FFF7D4
:1013600019FD10BD002C01400004004000080040A1
:10137000000C004000100040001400400034014008
:10138000004C014000500140005401400018004052
:10139000001C00400020004000400140004401408B
:1013A0000048014002460020138A0B400BB1012087
:1013B00000E0002070471AB183890B43838102E06B
:1013C00083898B4383817047818470470022028820
:1013D0001D4B98420ED01D4B98420BD0B0F1804F60
:1013E00008D01B4B984205D01A4B984202D01A4B9A
:1013F000984204D14FF68F731A404B881A43174B0B
:10140000984207D0164B984204D04FF6FF431A403B
:10141000CB881A4302808B8883850B8803850A4B0F
:1014200098420BD0094B984208D00E4B984205D0F9
:101430000D4B984202D00D4B984201D10B7A038696
:101440000123838270470000002C014000340140DA
:101450000004004000080040000C00400010004064
:101460000014004000400140004401400048014099
:1014700008B540F22661224800F064F908B321481B
:1014800000882049896888420ED3002240F22661F4
:101490001B4800F081F901211B48C06880F83C100E
:1014A0000020184908800CE016484068154A128848
:1014B000815C134800F007FA12480088401C11496B
:1014C000088040F225510E4800F03CF970B10C48FC
:1014D00000F0F4F9C0B200900B49C96801F118009E
:1014E0000A4901220B696946984700BF40F224412E
:1014F000034800F027F910B1014800F0DFF908BDFA
:10150000004C00408C010020A40100202C43000866
:1015100008B540F22661224800F014F908B32148CA
:1015200000882049896888420ED3002240F2266153
:101530001B4800F031F901211B48006980F83C107C
:101540000020184908800CE016484068154A1288A7
:10155000815C134800F0B7F912480088401C11491B
:10156000088040F225510E4800F0ECF870B10C48AC
:1015700000F0A4F9C0B200900B49096901F118000C
:101580000A4901220B696946984700BF40F224418D
:10159000034800F0D7F810B1014800F08FF908BDFA
:1015A0000050004098010020A40100202C430008B6
:1015B00010B540F22441154800F0C4F828B314488F
:1015C000FFF7A8F813490968098A0C1A0021104886
:1015D000FEF7EEFF4FF48030FEF7DCFF0D480068A9
:1015E000008A0B495839C865A2B20A49096801F155
:1015F000180009490B6909499847044800F05EF949
:1016000001210348FEF7D4FF00BF10BD00380140A0
:1016100058000240A40100202C430008B80100201B
:1016200010B540F22441154800F08CF828B3144856
:10163000FFF770F813494968098A0C1A002110480D
:10164000FEF7B6FF4FF48010FEF7A4FF0D48406888
:10165000008A0B496C390867A2B20A49496801F14E
:10166000180009490B6909499847044800F026F910
:1016700001210348FEF79CFF00BF10BD004400405D
:101680006C000240A40100202C430008B803002095
:1016900010B540F22441154800F054F828B314481E
:1016A000FFF738F813498968098A0C1A0021104895
:1016B000FEF77EFF4FF48070FEF76CFF0D488068E8
:1016C000008A0B4930394863A2B20A49896801F19E
:1016D000180009490B6909499847044800F0EEF8D9
:1016E00001210348FEF764FF00BF10BD0048004021
:1016F00030000240A40100202C430008B80500205F
:1017000021B1828942F40052828104E082894DF63F
:10171000FF731A40828170471AB1838A0B43838218
:1017200002E0838A8B438382704702460020B1F532
:10173000007F00D100BF13880B400BB1012000E0F7
:101740000020704770B502460024002300250020C9
:1017500040F66A16B14200D100BFC1F3421501F054
:101760001F03012606FA03F3012D02D196893340A7
:1017700006E0022D02D1168A334001E0968A3340FA
:101780000C12012606FA04F41688344013B10CB189
:10179000012000E0002070BDF0B5034600240026C3
:1017A0000025002040F66A17B94200D100BF184654
:1017B000C1F3421401F01F06012707FA06F5012CB8
:1017C00001D10C3004E0022C01D1103000E01430C3
:1017D0001AB107682F43076002E00768AF4307604C
:1017E000F0BD00002DE9F04786B005460E46002406
:1017F000A24600BFA1460027B08900B100BF2F4616
:101800002C8A4CF6FF700440F08804432C82AC898B
:101810004EF6F3100440B0883189084371890843BB
:101820000443AC81AC8A4FF6FF400440B0890443C6
:10183000AC8201A8FFF7BEFA1F48874202D1DDF84B
:1018400010A001E0DDF80CA0A88900F4004040B130
:101850000AEBCA0000EB0A1031684900B0FBF1F84E
:1018600007E00AEBCA0000EB0A1031688900B0FB00
:10187000F1F86420B8FBF0F004012009642101FBB9
:101880001089A88900F4004040B1322000EBC90063
:10189000B0FBF1F000F00700044308E0322000EB59
:1018A00009106421B0FBF1F000F00F0004432C811B
:1018B00006B0BDE8F0870000003801400146888886
:1018C000C0F308007047C1F308028280704700002F
:1018D00070B505460E48006808B9002070BD0C4878
:1018E0000468284600F0D2F806463246A32109A033
:1018F00001F0B6FF07E028682168884202D1002184
:10190000217601E02469F6E700BF00BF0120E5E78A
:10191000C80000202E2E5C5374616E646172644CAA
:1019200069625C43655469636B65722E63000000F5
:1019300010B504460021204602F05AFB02D284F082
:10194000004010BD2046FCE710B5014600230022F0
:101950000878302802DB087839280ADD08782B2837
:1019600002D008782D2804D108782D2800D1012331
:10197000491C0DE00878302802DB0878392800DDA2
:1019800009E011F8010B303802EB820400EB44024D
:1019900008780028EED100BF087810B16FF0010080
:1019A00010BD012B01D15042FAE71046F8E70000C4
:1019B0002DE9F84F064614461D464FF6FF79484676
:1019C000009022490020091BA84113D34FF00009C1
:1019D00048210020A4FB017305FB013104FB001129
:1019E0004FF47A7203463846FEF710FC401C80B272
:1019F000009025E048210020A4FB017305FB013184
:101A000004FB00114FF07A7203463846FEF7FEFBE6
:101A10001FFA80F909F101004FF47A7180FB01711E
:101A2000884648210022A4FB01A305FB013104FBE9
:101A300002113A4643465046FEF7E8FB80B200905A
:101A4000A6F8169000983083BDE8F88F8EE30D005D
:101A5000014609B908207047C86808B90820FAE7A4
:101A6000044A08681040904201D00220F3E70120A8
:101A7000F1E7000000080001014609B9082070479D
:101A8000886808B90420FAE70120F8E7014609B997
:101A900008207047486808B91120FAE7C86808B9F3
:101AA0000420F6E70120F4E7014609B90820704751
:101AB000486808B91120FAE7C86808B90420F6E7B1
:101AC000044A08681040904201D00220EFE701204C
:101AD000EDE7000000010004014609B90820704745
:101AE000086800F00220B0F1022F01D00220F6E7D2
:101AF0000120F4E770B504460D460648006838B189
:101B000005482A462146436902481830984770BD67
:101B10000020FCE7B80700202C43000810B505485A
:101B2000006828B10448816802481830884710BD11
:101B30000020FCE7B80700202C43000810B504463D
:101B4000002015490860012081F866010020A1F8F5
:101B500064010CB9012010BD04F00220B0F1022F85
:101B600001D00220F7E70C4804604FF4E1300A4945
:101B70004860012088724872087201F14000C86014
:101B800020200882054801680348884703484168C7
:101B9000014888470120DEE7B8070020CC42000852
:101BA0000FB42DE9F84F6C48006800286FD04FF053
:101BB0000009CA46CB460020009000BF0025002443
:101BC00080466549A1F864010FE06448C1680520BA
:101BD000884708F101001FFA80F84FF6FF70804532
:101BE00003DB01205C4981F866015B4890F86601DF
:101BF0000028EAD00020584981F866010BAC0A9D04
:101C00008EE02878252870D1681C05460078642865
:101C100027D00EDC58285ED006DC252866D0422866
:101C20004ED055286DD128E0622848D0632868D16D
:101C30000CE0732839D004DC662829D0692860D1EB
:101C400010E0752818D078285BD143E0201D0446A9
:101C500010F8040C009000221146009800F0A0F843
:101C600055E000BF201D044650F8049C0022114698
:101C7000484600F04DF94AE000BF201D044650F8E8
:101C800004AC00221146504600F093F93FE05EE0BC
:101C900004F10800044650F8086D476800231A460E
:101CA0003046394600F0AAF831E0201D044650F8CD
:101CB00004BC00221146584600F06CF927E000BF32
:101CC000201D044650F8049C00221146484600F0AE
:101CD00051F81CE000BF201D044650F8049C00226F
:101CE0001146484600F0CCF811E013E000221146FE
:101CF000252000F055F800221146252000F050F86C
:101D000005E00022114616A000F044F900BF00BF14
:101D10006D1C05E015F8010B0022114600F040F89B
:101D2000287800287FF46DAF002401200A4981F84B
:101D300066010846006E48B100210748B0F86421EA
:101D4000643081546438016E6430884700BFBDE858
:101D5000F80F5DF814FB0000B80700207842000877
:101D600021556E6B6E6F776E20666F726D61742198
:101D7000000000002DE9F04105460E4617461F24DD
:101D80000AE025FA04F101F0010101F130003A46C0
:101D9000314600F005F8641E002CF2DABDE8F0814F
:101DA00037B50D461446D5B91248006808B3124835
:101DB0000122694683680F4898470E48006EC0B1FB
:101DC0009DF800100B48B0F86421643081546438E9
:101DD000B0F86401401C0749A1F8640109E09DF8CE
:101DE0000000218868542088401C20800020218821
:101DF00068543EBDB8070020CC4200082DE9F047EA
:101E000004460D46164699464FF0000A0022134636
:101E10002046294601F0B0FE06D24A4631462D2022
:101E2000FFF7BEFF85F000452046294601F05EFE23
:101E300082464A463146504600F0BBF84A46314693
:101E40002E20FFF7ADFF504601F07FFE07462246E9
:101E50002B4601F0CBFF04460D460022074B2046DF
:101E6000294601F0C5FE074601F040FE82464A467B
:101E70003146504600F09DF8BDE8F087D01263412E
:101E800070B504460D4616460F2101EA14711F4A2B
:101E9000505C32462946FFF783FF1C49C4F30362B6
:101EA000885C32462946FFF77BFF1849C4F303528A
:101EB000885C32462946FFF773FF1449C4F3034296
:101EC000885C32462946FFF76BFF1049C4F30332A2
:101ED000885C32462946FFF763FF0C49C4F30322AE
:101EE000885C32462946FFF75BFF0849C4F30312BA
:101EF000885C32462946FFF753FF04F00F01034A7E
:101F0000505C32462946FFF74BFF70BDE84200089F
:101F10002DE9FE4305460E4617464FF0000835B939
:101F20003A4631463020FFF73BFFBDE8FE83002DE7
:101F300005DA3A4631462D20FFF732FF6D42002484
:101F40000BE00A2095FBF0F100FB1150C0B20DF838
:101F500004000A2095FBF0F5641C0A2CF1DB09242F
:101F600014E01DF8040008B14FF00108B8F1010FAA
:101F70000BD11DF804003030C0B20DF804001DF87C
:101F800004003A463146FFF70BFF641E002CE8DAE6
:101F900000BFCAE770B504460D46164605E014F8C2
:101FA000010B32462946FFF7FBFE20780028F6D1C8
:101FB00070BD2DE9FE4305460E4617464FF000085A
:101FC00035B93A4631463020FFF7EAFEBDE8FE83D8
:101FD00000240AE00A20B5FBF0F100FB11500DF8D7
:101FE00004000A20B5FBF0F5641C0A2CF2DB09247E
:101FF00014E01DF8040008B14FF00108B8F1010F1A
:102000000BD11DF804003030C0B20DF804001DF8EB
:1020100004003A463146FFF7C3FE641E002CE8DA9E
:1020200000BFD3E710B5044615480068002825D046
:10203000134804661348C16813A088471148C16853
:102040001BA088470F48C16823A088470D48C16876
:102050002DA088470B48C16834A088470948C1684B
:102060003A4888470748C16839A088470548C16889
:1020700042A088470348C16849A0884710BD0000B6
:10208000B8070020F84200085C2A2A2A2A2A2A2AAD
:102090002A2A2A2A2A2A2A2A2A2A2A2A2A2A2A2AA0
:1020A0002A2A2A2A2A2A2A2A2A2A2A5C0A0A0000F2
:1020B0005C2A57454C434F4D4520544F20555345BE
:1020C00020435245454C494E4B5320504C415446B9
:1020D0004F524D2A5C0A00005C2A486172647761A5
:1020E000726520706C6174666F726D3A454C696EF2
:1020F0006B53544D2F454C696E6B53544D5F50726A
:102100006F2A5C0A000000005C2A5374616E6461EF
:102110007264206C6962726172792076657273698B
:102120006F6E3A5631372A5C0A0000005C2A436F12
:102130007265206C6962726172792076657273696A
:102140006F6E3A5631372A5C0A000000A44300083B
:102150005C2A4265696A696E6720446172636572D0
:102160006E20746563686E6F6C6F677920636F2E85
:102170002C204C54442A5C0A000000005C2A435284
:1021800045454C494E4B5320444556454C4F504DC8
:10219000454E54205445414D2A5C0A0A0000000077
:1021A0005C2A2A2A2A2A2A2A2A2A2A2A2A2A2A2A5D
:1021B0002A2A2A2A2A2A2A2A2A2A2A2A2A2A2A2A7F
:1021C0002A2A2A2A5C0A0A000FB42DE9FE4F064685
:1021D0004FF0000AD34600200290019000BF002576
:1021E0000024814600900FE05E48C16805208847C2
:1021F00009F101001FFA80F94FF6FF70814503DBFA
:102200000120594981F86601574890F86601002875
:10221000EAD00020544981F866010EAC0D9D91E092
:102220002878252871D1681C05460078642827D0B5
:102230000EDC58285FD006DC252868D042284FD015
:10224000552870D128E0622849D063286BD10CE072
:10225000732839D004DC662828D0692863D110E0BF
:10226000752818D078285ED144E0201D044610F867
:10227000040C01906A4631460198FFF791FD58E041
:1022800000BF201D044650F804AC6A463146504653
:10229000FFF73EFE4DE000BF201D044650F804BC91
:1022A0006A4631465846FFF784FE42E004F10800D2
:1022B000044650F8087DD0F804806B463246384614
:1022C0004146FFF79BFD34E0201D044650F8040C06
:1022D00002906A4631460298FFF75CFE29E000BF93
:1022E000201D044650F804AC6A4631465046FFF7BC
:1022F00041FD1EE000BF201D044650F804AC6A46B4
:1023000031465046FFF7BCFD13E015E0FFE76A4693
:1023100031462520FFF744FD6A4631462520FFF768
:102320003FFD06E0FFE76A46314610A0FFF732FEA8
:1023300000BF00BF6D1C05E015F8010B6A46314671
:10234000FFF72EFD287800287FF46AAF00240120D3
:10235000054981F86601BDF80000BDE8FE0F5DF893
:1023600014FB000078420008B807002021556E6B6E
:102370006E6F776E20666F726D61742100000000D1
:102380000020014908667047B807002010B50446D0
:102390000448816920468847024881692046884769
:1023A00010BD00002C43000810B50446204600F084
:1023B00045F80348816804F10C00884710BD00000F
:1023C0002C43000810B50446204600F037F80348B7
:1023D000C16804F10C00884710BD00002C430008C0
:1023E00010B5044604480168204688470248016841
:1023F00004F10C00884710BD2C43000810B50446BA
:10240000204600F01BF80348416804F10C0088479F
:1024100010BD00002C43000870B504460D4616465A
:10242000204600F00BF8044832462946436904F17F
:102430000C00984770BD00002C430008F8B5044616
:1024400015488168204688470546002D23DD002673
:102450001DE01148C16804F10C008847012813DB16
:102460000D48016A04F10C00884768B90A48012246
:10247000694643692046984707480122694603692F
:1024800004F10C00984700E003E0701C86B2AE42F5
:10249000DFDB00BF00BFF8BD2C43000870B5044669
:1024A0000D461646E07D012806D1094832462946E8
:1024B00003692046984770BD2046FFF7BFFF0448D8
:1024C00032462946036904F10C009847F3E70000FF
:1024D0002C43000810B5044603E00D48C1680020F5
:1024E0008847A07A0128F8D00120A07203E00848AC
:1024F000C16800208847E07A0128F8D00120E07206
:102500000020E080012020810020E072A07210BD38
:102510007842000801460020CA880B899A4205DAF1
:102520000A89CB88D21A521E90B206E08A88CB88DC
:10253000D21A521E0B891A4490B2704701460020ED
:10254000CA880B899A4205DDCA880B89D21A521EA5
:1025500090B20EE0CA882AB98A880B89D21A521E14
:1025600090B206E08A880B89D21A521ECB881A4490
:1025700090B270470146C87A70470021C18001219E
:10258000018100218172C172704701460889CA88A1
:10259000801A012806D0CA888888401E824203D14A
:1025A000088908B9012070470020FCE72DE9F041B7
:1025B00004460E461746002503E02048C168002067
:1025C0008847A07A0128F8D00120A07223E0E08893
:1025D0002189884205DAE1882089401E814208D19C
:1025E00026E0E188A088401E814202D1208900B9FE
:1025F0001EE0E088401CE080E088A188884201D18C
:102600000020E080E1882068405C7055681C85B23D
:10261000BD4200DB0CE0E1882089401E814207D0EA
:10262000E188A088401E8142D1D120890028CED1E6
:1026300000BF0020A0722846BDE8F0817842000863
:102640002DE9F04104460E461746002503E01A48DE
:10265000C16800208847E07A0128F8D00120E072A4
:1026600023E02089E188884205DA2189E088401E3C
:10267000814208D11AE02189A088401E814202D1FE
:10268000E08800B912E0705D228921688854681CD6
:1026900085B22089401C20812089A188884201D1EF
:1026A00000202081BD4200DB00E0DAE700BF00200F
:1026B000E0722846BDE8F0817842000870B5044613
:1026C0002046FFF7C5F905462A464FF4C77104A016
:1026D00001F0C6F8A18A2069FEF7C7FA70BD0000B4
:1026E0002E2E5C5374616E646172644C69625C434B
:1026F00065496E742E630000F8B5044604F11705B1
:102700002046FFF7A5F906463246FF214AA001F010
:10271000A7F8207800F00F010120884080B2ADF8C2
:1027200000002078C0F30310494951F820002061CF
:10273000207800F00F0101208840E061207800F04F
:102740000F00444941F820402078C0F3031042496B
:1027500001EB0010217801F00F01405C001168705E
:102760002078C0F303103C4901EB0010217801F000
:102770000F01405C00F00F00A870207800F00F00FF
:10278000042805D8207800F00F00801D287009E08B
:10279000207800F00F00092802D81720287001E0E7
:1027A00028202870207910B1012808D103E00C21DD
:1027B00084F8211005E0082184F8211001E00420AC
:1027C000F8BD00BFBDF80010A1820021A1752178DD
:1027D000C1F30312042101FA02F00121FEF7CAFA43
:1027E00001210846FEF7C6FA03208DF802000420F6
:1027F0008DF8030069462069FEF7ACF9227802F0F3
:102800000F01C2F30310FEF785F9002184F82010B0
:10281000012184F8221004F11C00FEF731F9A08A8E
:10282000FEF714F90020E8702846FEF727FAE06961
:10283000FEF712F90120C3E72E2E5C5374616E641B
:102840006172644C69625C4365496E742E6300007A
:1028500020000020D8000020E44000082DE9F041CD
:1028600005460E4600242846FFF7F2F807463A468A
:102870004FF4A17109A000F0F3FF36B90D4C0C34F0
:102880002068E9690843206005E00A4C08342068A4
:10289000E96908432060BDE8F08100002E2E5C53FA
:1028A00074616E646172644C69625C4365496E7404
:1028B0002E6300000004014070B504462046FFF777
:1028C000C7F805462A464FF4AE7107A000F0C8FFCE
:1028D0000121A175A08AFEF7B9F80121A17604F1C2
:1028E0001700FEF7CBF970BD2E2E5C5374616E6439
:1028F0006172644C69625C4365496E742E630000CA
:1029000070B504462046FFF7A3F805462A464FF463
:10291000B67124A000F0A4FF0021A175A08A1028A0
:1029200018DDA08AB0F5007F14DC24484069807D62
:1029300078B922488069807D58B92048C069807D77
:1029400038B91E48006A807D18B91C48406A807DED
:10295000E8B170BDA08AB0F5806F18DB1748806AB7
:10296000807D98B91548C06A807D78B91348006B9E
:10297000807D58B91148406B807D38B90F48806B15
:10298000807D18B90D48C06B807D00B1E1E7002162
:10299000A17604F11700FEF771F9A08AFEF756F848
:1029A00000BFD6E72E2E5C5374616E646172644C76
:1029B00069625C4365496E742E630000D800002094
:1029C0002DE9F04F85B081460C469246142222A193
:1029D0006846FDF792FC0026BAF10A0F09D1B9F159
:1029E000000F06DAC9F100072D223046761C22546A
:1029F00000E04F4600BFB7FBFAF00AFB10701DF86D
:102A000000203046761C2254B7FBFAF7002FF2D193
:102A10000020A05520782D2802D14FF0010801E0B8
:102A20004FF0000845460CE014F805B0701E404415
:102A3000401B205C6055701E4044401B04F800B0F1
:102A40006D1C701E00EBD071B5EB610FECDD204604
:102A500005B0BDE8F08F0000303132333435363701
:102A600038394142434445460000000010B5024653
:102A70000B46002110E0505C5C5CA04203D1505C2E
:102A800040B9002010BD505C08B1585C10B94FF03F
:102A9000FF30F7E7481C81B24FF6FF708142EADB56
:102AA0000020EFE70A46002106E0535C4354535CE4
:102AB00003B905E04B1C99B24FF6FF739942F4DB62
:102AC00000BF70470146002003E00A5C02B970476E
:102AD000401CFAE710B500214FF00060FEF710F936
:102AE0004FF4A060FEF702F9012010BD10B50446B6
:102AF0000448806A401C034988620349086980478A
:102B000010BD000018010020904300082DE9F05F7F
:102B1000824600F0C1F806460F461A4801691A4875
:102B200088474FF000098046164800214269164840
:102B300090470025044606E01248002142691248E9
:102B40009047002504461048806A0021A0FB082316
:102B500001FB083100FB091012EB040B40EB0501EF
:102B6000482200235846FDF751FB821B61EB07000A
:102B70004FF47A71AAFB0131D21A8841DCD3BDE847
:102B8000F09F0000A84200081801002070B504461C
:102B90004FF47A70B4FBF0F5284600F001F870BDF0
:102BA0002DE9F05F8246BAF1000F01D1BDE8F09F38
:102BB00000F072F88046894619480169194888472B
:102BC000002706461648002142691648904700250E
:102BD000044606E012480021426912489047002549
:102BE00004461048806A0021A0FB062301FB063141
:102BF00000FB071012EB040B40EB050148220023F9
:102C00005846FDF703FB0246B2EB080261EB0900F0
:102C1000B2EB0A0270F10000DCD300BF00BFC5E7D1
:102C2000A84200081801002001460022082917D0F8
:102C300007DC69B101290DD002290DD0042917D173
:102C40000CE010290ED011290ED0122910D10DE060
:102C500000220EE001220CE002220AE0032208E03A
:102C6000042206E0052204E0062202E0072200E03A
:102C700000BF00BFC2EB0210014B03EB40007047E6
:102C80006841000870B500F007F804464FF47A7206
:102C90000023FDF7BBFA70BD2DE9F0410C48016936
:102CA0000C48884705460A4801214269094890476F
:102CB00004460848806AA5FB0020161940F100016F
:102CC000482200233046FDF7A1FABDE8F08100005C
:102CD000A84200081801002010B5FFF7FBFE00F025
:102CE00003F8012010BD000010B50A480A49C86069
:102CF0000A4808600A4848600846886000208862E0
:102D000008480168044888470648416802488847DF
:102D1000012010BDED2A0008180100200401000464
:102D2000404B4C00A842000803480088002801DD01
:102D3000012070470020FCE7C00000200248008806
:102D4000401C014908807047C000002010B50948A8
:102D5000006860B10748046806E0207C012802D1C1
:102D6000D4E901018847E468002CF6D100BF0120B6
:102D700010BD0000BC00002004480088002804DDCD
:102D800002480088401E014908807047C0000020AA
:102D900070B504462046FEF76FFE05462A4682219E
:102DA0000EA000F05DFD0020E06020741148006876
:102DB00010B9104804600FE00E49086809E0216866
:102DC0000268914200D105E0C16809B9C46001E020
:102DD000C068F4E700BF00BF012070BD2E2E5C5319
:102DE00074616E646172644C69625C4365546173C2
:102DF0006B2E6300BC00002001460A48006808B939
:102E000011207047074A106807E00A6803689A4271
:102E100002D10122027401E0C068F6E700BF00BFE2
:102E20000120EEE7BC00002001460A48006808B90E
:102E300011207047074A106807E00A6803689A4241
:102E400002D10022027401E0C068F6E700BF00BFB3
:102E50000120EEE7BC0000207047000010B50246DC
:102E60001048006808B9112010BD00210D4B1868EA
:102E700012E013680468A3420CD119B90023094C6D
:102E8000236006E0C36813B90023CB6001E0C36888
:102E9000CB6002E00146C068EBE700BF00BF012045
:102EA000E2E70000BC00002070B51849486980477F
:102EB00005460E46164A06CA691A66EB0200491F05
:102EC00070F1000001D2012070BD104948698047AF
:102ED0000F4A03C20F480068A8B10E4804680FE00B
:102EE000207E01280BD16069401D606161686069C6
:102EF000884204D3D4E90201884700206061246934
:102F0000002CEDD100BF0120DEE700007842000870
:102F1000D0000020C800002070B504462046FEF70F
:102F2000B5FD05462A4658210FA000F099FC002067
:102F30002061002121761348006810B9114804600F
:102F40000FE01049086809E021680268914200D149
:102F500005E0016909B9046101E00069F4E700BF17
:102F600000BF012070BD00002E2E5C5374616E64A2
:102F70006172644C69625C43655469636B65722E6F
:102F800063000000C800002070B505460F480068C7
:102F900008B9002070BD0D4804682846FEF776FD8C
:102FA0000646324684210AA000F05AFC09E028684F
:102FB0002168884204D1012121760020606101E06E
:102FC0002469F4E700BF00BF0120E3E7C800002048
:102FD0002E2E5C5374616E646172644C69625C4352
:102FE000655469636B65722E630000002DE9F04142
:102FF00006461548006810B90020BDE8F08100259C
:10300000114804683046FEF741FD07463A46C221A2
:103010000EA000F025FC12E03068216888420CD137
:103020001DB900200849086006E0206910B9002099
:10303000286101E02069286102E025462469EBE768
:1030400000BF00BF0120D8E7C80000202E2E5C532F
:1030500074616E646172644C69625C436554696357
:103060006B65722E630000000146088BCA8A521CF1
:103070005043704710B50246012914D113691B88CB
:103080004FF6FE7423401469238013699B8C1469E6
:10309000248D641C03FB04F013691B8843F00103B7
:1030A0001469238010BD1069808C13691B8D5B1C13
:1030B0005843F7E77FB504462046FEF7F5FC064681
:1030C000324640F25F1135A000F0CAFB61680A4643
:1030D00000232046FEF76CFCE08AADF80400208B4C
:1030E000ADF808000020ADF80A00ADF80600207821
:1030F00000F00F05304840F82540304850F82500D2
:103100002061681C012809D1681C082806D12C49B7
:1031100051F825000121FDF72DFE11E0681C022861
:1031200008D128490870264951F825000121FDF7EA
:1031300001FE05E0224951F825000121FDF7FAFDC5
:103140002148405D8DF800002048405D00118DF859
:1031500001001E48405D00F00F008DF802000021C4
:1031600021752069FEF72AF801A92069FEF72EF9DA
:1031700001212069FEF712F801208DF8030068464E
:10318000FDF77CFD00212069FEF71EF900220121D8
:103190002069FEF710F9012004B070BD2E2E5C539B
:1031A00074616E646172644C69625C436554696DFC
:1031B00065722E63000000004801002040000020DE
:1031C000780000203C000020B0000020944200085D
:1031D00010B504460121217500212069FEF7F4F89D
:1031E00001212069FDF7DAFF012211462069FEF76F
:1031F000E2F801212069FDF7D4FF10BD10B50446A7
:10320000002121752069FDF7CCFF002201212069F2
:10321000FEF7D1F801212069FDF7C0FF10BD0000C5
:1032200070B504462046FEF73FFC05462A4640F2AC
:1032300091111AA000F014FB207D01280CD100216F
:103240002069FDF7AEFF002201212069FEF7B3F8E7
:1032500001212069FDF7A2FF61680A46002320468C
:10326000FEF7A6FB208B21698885E08A2169088505
:10327000207D012810D100212069FEF7A5F8012149
:103280002069FDF78BFF012211462069FEF793F8B4
:1032900001212069FDF785FF70BD00002E2E5C53D3
:1032A00074616E646172644C69625C436554696DFB
:1032B00065722E630000000010B504460248816963
:1032C00004F11800884710BD2C43000810B50446CF
:1032D0000248816804F11800884710BD2C4300089B
:1032E0002DE9F04194B004462046FEF7F5FB8046F8
:1032F000424640F20B11EDA000F0B2FA207800F047
:103300000F07E068A061218AA183EE48016804F1FB
:103310001800884700213C2001552068A0F10220B8
:1033200005287DD2DFE800F00325476A82000121ED
:103330008803FDF71FFD01210520FDF71BFD4FF45C
:103340000070ADF84C004000ADF84800DE49A163C4
:10335000DE486062DD491431A16225258114E162F5
:10336000090121630E2134200155D9480460D94E4A
:1033700076E001214804FDF7DDFC01210520FDF781
:10338000F9FC0420ADF84C000820ADF84800D24903
:10339000A163CE483C306062CC492831A162262529
:1033A0004104E16209112163112134200155C8480B
:1033B0004460C84E54E001218804FDF7BBFC0121A4
:1033C0000920FDF7D7FC4FF48060ADF84C004000B9
:1033D000ADF84800C149A163BC4828386062BB49C8
:1033E0001439A16227251021E162811521630C2186
:1033F00034200155B6488460B94E31E00121C8043B
:10340000FDF798FC01211020FDF7B4FC4FF480601B
:10341000ADF84C004000ADF84800B249A16300E0AF
:103420001AE03425AA48C460AF4E19E0012108050E
:10343000FDF780FC01213020FDF79CFC4FF480500B
:10344000ADF84C000420ADF84800A849A16335252B
:103450009F480461A44E03E0022014B0BDE8F0814F
:1034600000BF3420005D8DF844008DF84050A04826
:1034700030F81700000B8DF845009D4830F8170014
:10348000C0F303208DF84600994810F81700C0F3E8
:1034900003108DF84100964810F8170000F00F0057
:1034A0008DF8420001208DF8470011A8FDF7E6FBDA
:1034B00001208DF8430010A8FDF7E0FB18208DF8DF
:1034C0004F0003208DF84E0013A93046FDF742FB54
:1034D00004208DF84B00352D01D1864900E031469E
:1034E000084612A9FDF736FB342D6AD0352D68D079
:1034F00001210846FDF70EFC0021606AFDF758F82F
:10350000606AFDF761F8A06B001D01907A48029097
:103510001020039001200490002005908020069048
:1035200000200790089009904FF440500A90002026
:103530000B9001A9606AFDF710F9E06AFDF72AF81F
:103540000021606AFDF734F801220221606AFDF76C
:10355000FBF80021A06AFDF72BF8A06AFDF734F80C
:10356000A06B001D0190252D07D0262D02D0272D00
:1035700009D105E06148029006E06148029003E04D
:103580006048029000E000BF00BF00200390208A46
:10359000049000200590802006900020079008905D
:1035A00009904FF440500A9000200B9001A9A06AA6
:1035B000FDF7D3F8206BFCF7EDFF0121A06AFCF7C3
:1035C000F7FF60680C90207AADF83400207A02286A
:1035D00001D1C00200E00020ADF83400607A01287B
:1035E00006D0022808D003280BD0042813D10DE000
:1035F0000020ADF8360012E04FF48050ADF83600F0
:103600000DE04FF40050ADF8360008E04FF44050A4
:10361000ADF8360003E00020ADF8360000BF00BF73
:10362000A07A012804D0022806D003280ED108E091
:103630000020ADF838000DE04FF48060ADF83800A0
:1036400008E04FF4C060ADF8380003E00020ADF8AA
:10365000380000BF00BF0020ADF83C000C20ADF8E2
:103660003A000CA9A06BFEF7BDF8012240F22441FC
:10367000A06BFEF791F8342D0CD0352D0AD0012225
:103680008021A06BFEF748F801224021A06BFEF7D5
:1036900043F805E0012240F22551A06BFEF77CF8CB
:1036A00001213C2001550120D7E600002E2E5C535D
:1036B00074616E646172644C69625C4365556172E9
:1036C000742E63002C43000800380140440002407F
:1036D000A4010020000801400044004000480040D0
:1036E000000C0140004C0040001001400050004020
:1036F000C042000800140140B8000020B8030020B8
:10370000B8010020B805002070B504460D461646E5
:10371000034832462946436904F11800984770BDB2
:103720002C4300082DE9F04104460E46154620467C
:10373000FEF7D2F907463A464FF4FA7121A000F09D
:103740008FF815B90120BDE8F08100BF3C20005D75
:103750000028FBD000213C20015500BF4021A06B78
:10376000FDF7E3FF0028F9D01C49206888420CD1FE
:103770001B4846608560002019494880012240F2BC
:103780002661A06BFEF708F819E01449491C20686F
:1037900088420CD11348466085600020114948805A
:1037A000012240F22661A06BFDF7F6FF07E0606A98
:1037B000C660606A45600121606AFCF7F9FE01207D
:1037C000C1E700002E2E5C5374616E646172644C1C
:1037D00069625C4365556172742E630003020002E6
:1037E0008C0100209801002070B504462046FEF7A9
:1037F00073F905462A4640F2E51104A000F030F8BE
:103800000121A06BFDF77CFF70BD00002E2E5C53E4
:1038100074616E646172644C69625C436555617287
:10382000742E630070B504462046FEF755F9054630
:103830002A4640F2312104A000F012F80021A06BCA
:10384000FDF75EFF70BD00002E2E5C5374616E6448
:103850006172644C69625C4365556172742E6300E9
:103860002DE9F04105460E461446012C01D1BDE874
:10387000F08110E008488169204688478046074863
:10388000434632462946C76805A0B8470248C16882
:103890004FF47A708847EDE778420008F842000854
:1038A000546865726520697320616E206572726F5D
:1038B00072206F636375727265643A0A0946696CB7
:1038C000653A25730A4C696E653A25640A43455F7B
:1038D0005354415455533A25730A0A0070B50446AF
:1038E0000548016920468847054604482946C268BC
:1038F00003A0904770BD000054410008F842000842
:10390000456E7465722074686520696E74657272A4
:103910007570742C204770696F20737461747573AF
:103920003A25640A000000000E49086880470E48E6
:1039300001680E4888470E480E490860002008714B
:10394000084688600C48C8600C48016809488847E8
:103950000A4881680748884702E0094908688047A3
:10396000FBE7000078420008F8420008020200026B
:103970000419000120090020DD3800085441000826
:103980006C43000810B591EA030F48BF83F0004371
:1039900000F14082841A71EB030C05D2121943EB3B
:1039A0000C03001B61EB0C01DFF824E14FEA11541A
:1039B000A4EB135C1EEA430F18BF9EEA445F73D06A
:1039C00023EA0E03DCF1200E21EA045143F48013B4
:1039D00032D322FA0CFE10EB0E0023FA0CFE41EB60
:1039E0000E01CCF1200E03FA0EFE10EB0E0051F189
:1039F0000001B1F5801FCCF1200E32D201EB045151
:103A000012FA0EF2BDE8104058BF7047401C38BF94
:103A10005FEA420218BF7047002814BF20F001007F
:103A200041F100014FEA410313F5001F38BF704711
:103A3000A1F1C04100F0D4B9012A43EB0302ACF17B
:103A4000200CDCF11F0E32BF4FF0000E23FA0CF3F6
:103A500010EB030041EB0451B4EB115FD0D0A1EBAC
:103A6000045101F5801149085FEA300001EB04516F
:103A70000ED350F1000038BF12FA0EFE08D1BDE897
:103A80001040C9E7401C38BF5FEA4202CAD1C3E711
:103A9000BDE810404FEA410313F5001F38BF7047DF
:103AA000A1F1C04100F09CB99EEA445F08D011EA40
:103AB0005E0FBDE8104004BF01F0004100207047D8
:103AC000BDE8104070B500F03DF900BF64FBBE3E9C
:103AD0000000E0FF491058BFC1F140415B1058BFE2
:103AE000C3F140438B42EFF3008070474FEA41033C
:103AF0004FEA5353A3F58063D3F11E03C8BFD3F13C
:103B0000210C0CDD4FF0004242EAC12242EA505241
:103B100032FA03FC8CEAE17CACEBE1707047102BCD
:103B2000C4BF0020704703F5787CBCF1FF3F04D090
:103B30006FF0004282EA2100704770B500F002F990
:103B40004992248000207047F2E710F0004248BFFD
:103B50004042B0FA80F310FA03F10AD0C3F11D031A
:103B600003F580634FEA415002EB035202EBD1218F
:103B700070474FF00000704751EA030C17D41CF552
:103B8000801F58BFBCF5801F00F10680994218BF06
:103B9000704708BF9042704707D711F5801F58BF84
:103BA00013F5801F19D499427047894270471CF55C
:103BB000801F08D5BCF5801FF7D58B4218BF704712
:103BC00008BF824270474FF4001C1CEB410F38BF06
:103BD0001CEB430F01D28B42704770B500F0B2F876
:103BE000922449004FF000514FF08053FFF772BF0D
:103BF000DFF848C170B51CEA111E1EBF1CEA131580
:103C00009EEA0C0F95EA0C0F00F06F8081EA030426
:103C100023EA4C134EEAD47E21EA4C1141F4801180
:103C200043F48013AE44A1FB024CA0FB0365AEF14C
:103C30007F7E361955EB0C05A1FB034C4CF10003BC
:103C4000A0FB021C16EB0C06654153F10003094270
:103C500018BF46F0010613F4007F0BD14FEA033181
:103C60004FEA0530340341EA155140EA16506FF02F
:103C700003020AE04FEAC3214FEAC520F40241EAF9
:103C8000555140EA56506FF0020202EB2E4201EB12
:103C9000025585EACE710AD05FEA440C18BF24F0C1
:103CA000004450F1000041F1000120EAD47040F2DC
:103CB000FE7C624500D270BDA84214BF4FF0804424
:103CC0004FF04044002E08BF0024BEF1806FA8BF13
:103CD000A1F1C041BDE8704080F282804FF0000049
:103CE00001F1C04101F0004170479EEA0C0F0CEA5F
:103CF000131518BF95EA0C0F06D04FF0000081EAAB
:103D0000030E0EF0004170BD00F01CF88900013E6A
:103D100000F007B800F009B84FEA430C5FEA5C5CBA
:103D200008D081EA030100F05BB84FEA410C5FEA7A
:103D30005C5CF6D14FF00000014970470000FF07BE
:103D40000000F87F0EF1020E2EF0030E5EF8046BF9
:103D5000364205D4012A43EB030515F5001F12D89E
:103D6000012841EB010C1CF5001F0CD80ED14FEAC5
:103D7000D17C15F5001F0CEB4C0C0CF1020C08BFAC
:103D80004CEBD37C04E04FF0080C01E04FEAD37C0D
:103D90000CEB4C0526FA05F606F00706B6F1040C06
:103DA00006D20EEB860CBDE870404CF0010C60476B
:103DB000DFE80CF0090B02024FF000414FF0000069
:103DC000A1F5002170BD19461046012851EB0104F0
:103DD00018BFD4F5001484BF002001F0004170BD6D
:103DE0000808A0F500114FEA3101704791EA030F6E
:103DF00010B581F000413FF5CDAD83F0004300F0F8
:103E000009B8000010B591EA030F48BF83F00043E2
:103E10003FF5C0AD841A71EB030C07D212198CF078
:103E2000004C43EB0C03001B61EB0C01DFF8A4E139
:103E30004FEA1154A4EB135C1EEA430F18BF9EEA2D
:103E4000445F00F0B08023EA6E03524221EA04513D
:103E5000C3EB6E0338BF5B1EDCF1200E25D322FAC4
:103E60000CFE10EB0E0043FA0CFE41EB0E01CCF100
:103E7000200E03FA0EFE10EB0E0051F10001CCF102
:103E8000200E29D412FA0EF201EB0451BDE81040C5
:103E900058BF7047401C1CBFB2F1004F704700284C
:103EA0000CBF491C20F00100704712EB020E43EBDF
:103EB000030218BF4FF0010E4EEA4202ACF1200C93
:103EC000DCF11E0E54D943FA0CFE10EB0E0051F13A
:103ED000FF31CCF11E0ED5D50EF1010E12FA0EFEF9
:103EE000404141EB010101EB445C5FEA5C5C10D9AD
:103EF00010EBDE7001EB045138BFBEF1004FBDE89E
:103F0000104018BF704700280CBF491C20F001006A
:103F1000704730D24FEAD42C11F5001124F400641C
:103F20001BD0B1FA81F20B3AA41AA41ED2F12003DD
:103F3000914030FA03F31943904001EBCC71002C0F
:103F400001EB0451BDE81040A8BF704701F1C0412A
:103F50004FF0000001F000417047B0FA80F310FA12
:103F600003F100D110BDE41A173C4805C90AE4E783
:103F700001EB045110BD491001EB0451BDE81040A4
:103F80004FEA300002E04FF0000170474A0008BFDE
:103F90000042F8D0B2F5001F28BF704701F0004181
:103FA0004FF0000070479EEA445F07D011EA5E0FB1
:103FB000BDE8104004BF002100207047BDE810405C
:103FC00070B5FFF7BFFE00BF40DFF63E83F0004153
:103FD000104670470000E0FF401058BFC0F140405D
:103FE000491058BFC1F140418142EFF30080704752
:103FF00050EA010C00F113801CF5000F58BFBCF50E
:10400000000F01D48842704707D710F5000F58BF42
:1040100011F5000F15D488427047894270471CF58E
:10402000000F04D5BCF5000FF7D5814270474FF063
:10403000807C1CEB400F38BF1CEB410F01D281424A
:10404000704710B500F008F8922449004FF0005076
:104050004FF08051FFF7C0BF0EF1020E2EF0030E9D
:104060005EF8044B244204D44FEA4102B2F17F4F80
:1040700011D84FEA4003B3F17F4F0CD80ED14FEA6D
:10408000D07CB2F17F4F0CEB4C0C0CF1020C08BF52
:104090004CEBD17C04E04FF0080C01E04FEAD17CFE
:1040A0000CEB4C0324FA03F404F00704B4F1040C01
:1040B00006D20EEB840CBDE810404CF0010C6047BA
:1040C000DFE80CF0070802024FF00040A0F5800086
:1040D00010BD0846420018BFD2F1807288BF00F0C0
:1040E000004010BD31313131313131313131313177
:1040F00031313131313131313131313131313131B0
:10410000313131313131313131313131313131319F
:10411000313131313131313131313131313131318F
:10412000313131313131313131313131313131317F
:10413000313131313131313131313131313131316F
:10414000313131313131313131313131313131315F
:1041500031313131F92600085D280008B9280008FE
:1041600001290008BD26000843455F5354415455BA
:10417000535F4641494C450000000000000000002C
:1041800000000000000043455F5354415455535F05
:104190005355434345535300000000000000000006
:1041A0000000000043455F5354415455535F52454E
:1041B000534F555243455F4552524F520000000045
:1041C000000043455F5354415455535F494E495491
:1041D00049414C5F46414C5345000000000000003F
:1041E00043455F5354415455535F4E554C4C5F50BB
:1041F0004F494E5445520000000000000000434566
:104200005F5354415455535F4D414C4C4F435F46AF
:10421000414C5345000000000000000043455F533F
:1042200054415455535F5041525F4552524F5200D2
:104230000000000000000000000043455F535441AF
:104240005455535F4F55545F54494D45000000008D
:104250000000000000000000556E6B6E6F77457225
:10426000726F7200000000000000000000000000FB
:104270000000000000000000D92C00088D2B000871
:10428000A12B00080D2B0008992C0008852C000894
:10429000292C00083131313131313131E3388EE3AD
:1042A0001C0000000E000000B5300008D1310008ED
:1042B00021320008FD31000869300008753000081F
:1042C000312131213121212121210000E132000859
:1042D000E937000825370008CD3200080937000803
:1042E00025380008B93200083031323334353637DA
:1042F00038394142434445463D1B0008252000080B
:1043000081230008A11B0008C92100081D1B00080B
:10431000F51A000831190008C52A00086D2A00089E
:10432000A52A0008C1290008491900087B250008B2
:104330008B250008152500083D25000841260008AA
:10434000AD250008D52400087525000800000000F0
:10435000E1230008FD230008A9230008C523000865
:104360009D240008192400088D2300084D2D000805
:10437000912D0008F92D0008292E00085D2E000857
:104380003D2D0008792D0008292D0008592E000820
:10439000192F0008892F0008D1180008ED2F0008F8
:1043A000A92E00085C2A49662074686520736F6630
:1043B0007477617265207573656420666F7220631F
:1043C0006F6D6D65726369616C20707572706F736B
:1043D00065732C20706C6561736520636F6E74610A
:1043E00063742074686520736F66747761726520EA
:1043F000646576656C6F706D656E74207465616D53
:104400002E2A5C0A0000000028440008000000205A
:10441000D80000006C01000800450008D80000200A
:10442000D00E000088010008000000000102030413
:104430000102030406070809020406080000000040
:10444000000000000000000000080140000C0140D6
:10445000001001400014014000180140001C014000
:104460000020014000000000002C0140000000403E
:104470000004004000080040000C00400010004014
:104480000014004000340140004C01400050014045
:104490000054014000180040001C00400020004073
:1044A00000080000010000000200000004000000FD
:1044B00008000000100000002000000000200000A4
:1044C0000000080000001000000020004000000074
:1044D0008000000000010000191C1D1E3236372C20
:1044E00000000000000000000000000000000000CC
:1044F00000000000000000000000000000000000BC
:0400000508000131BD
:00000001FF
