:020000040800F2
:10000000202400200D020008150200081702000835
:10001000190200081B0200081D0200080000000071
:100020000000000000000000000000001F020008A7
:100030002102000800000000230200082502000839
:1000400027020008270200082702000827020008EC
:100050002702000827020008690900089D0A000815
:10006000C90A0008F50A0008210B0008F905000874
:10007000FD050008270200082906000827020008DD
:100080002702000859060008270200082702000876
:100090002702000827020008270200084D0B00086D
:1000A00027020008C51200082702000827020008DE
:1000B000FD12000841130008791300082702000808
:1000C000270200082702000827020008270200086C
:1000D00027020008911B0008011C0008711C000881
:1000E00095090008270200082702000827020008D7
:1000F00059140008270200082702000827020008F8
:100100002702000827020008B11300082702000890
:10011000511A0008F11A0008E91300082114000818
:10012000270200082702000889060008F9060008CF
:1001300000F002F800F05AF80AA090E8000C82449F
:100140008344AAF10107DA4501D100F04FF8AFF27C
:10015000090EBAE80F0013F0010F18BFFB1A43F0A5
:10016000010318478CA70000ACA700000A444FF019
:10017000000C10F8013B13F0070408BF10F8014B06
:100180001D1108BF10F8015B641E05D010F8016B4B
:10019000641E01F8016BF9D113F0080F1EBF10F8AF
:1001A000014BAD1C0C1B09D16D1E58BF01F801CBD2
:1001B000FAD505E014F8016B01F8016B6D1EF9D555
:1001C0009142D6D37047000000230024002500266A
:1001D000103A28BF78C1FBD8520728BF30C148BFAA
:1001E0000B6070471FB51FBD10B510BD00F0DAF8E9
:1001F0001146FFF7F7FF08F039FA00F0F8F803B4FA
:10020000FFF7F2FF03BC00F0FDF80000094880474B
:1002100009480047FEE7FEE7FEE7FEE7FEE7FEE7E8
:10022000FEE7FEE7FEE7FEE704480549054A064B00
:10023000704700006512000831010008201E0020F0
:1002400020240020202000202020002053EA020C3F
:1002500000F069802DE9F04B4FF00006002B1FBF26
:10026000B3FA83F503FA05F424FA05F65E4012BFEB
:100270001643B2FA82F502FA05F4C5F120051EBF55
:1002800022FA05FC44EA0C04203556EA044C4FEAF5
:10029000144418BF641C4FF000084FF0000990424E
:1002A00071EB030C39D3002919BFB1FA81F701FAB8
:1002B00007F6B0FA80F700FA07F6C7F120071EBF6D
:1002C00020FA07FC46EA0C062037B6FBF4FCA7EB45
:1002D0000507103F07F01F0BCBF120060CFA0BFBB4
:1002E0002CFA06F644BFB3460026202FA4BF5E4674
:1002F0004FF0000B5BEA060C08BF4FF0010B19EB47
:100300000B09ABFB027C48EB0608C01B06FB02CCCA
:100310000BFB03CC71EB0C01C1E70B4602464146D7
:100320004846BDE8F08B13B54FF000004FF00001D8
:10033000AFF30080BDE81C40704710B5203AC0F014
:100340000B80B1E81850203AA0E81850B1E81850D6
:10035000A0E81850BFF4F5AF5FEA027C24BFB1E813
:100360001850A0E8185044BF18C918C0BDE8104084
:100370005FEA827C24BF51F8043B40F8043B08BF8D
:100380007047D20728BF31F8023B48BF11F8012B54
:1003900028BF20F8023B48BF00F8012B7047704788
:1003A00070477047754600F029F8AE46050069466B
:1003B000534620F00700854618B020B5FFF734FFFC
:1003C000BDE820404FF000064FF000074FF0000856
:1003D0004FF0000B21F00701AC46ACE8C009ACE8D7
:1003E000C009ACE8C009ACE8C0098D4670470446B6
:1003F000AFF300802046FFF702FF0000004870477F
:10040000BC1D002001491820ABBEFEE726000200FB
:100410007047CA430260704721B1826842F001020E
:10042000826003E0826822F0010282607047014628
:1004300000208A6802F004020AB1012000E00020D6
:1004400070470146C86C80B27047024600201368AE
:100450000B400BB1012000E0002070470146002056
:100460008A6802F008020AB1012000E0002070470B
:1004700030B502460020002350680F4C20400D7913
:100480000C6844EA05242043506090680B4C2040DF
:10049000D1E902542C434D7944EA4504204390604D
:1004A000D06A20F470000C7C641EE4B2234340EA5E
:1004B0000350D06230BD0000FFFEF0FFFDF7F1FFFA
:1004C000F0B504460D4600200021092D11DDE0683D
:1004D000A5F10A0606EB4607072606FA07F1884348
:1004E000A5F10A0606EB460603FA06F10843E060AA
:1004F0000CE0206905EB4507072606FA07F188435B
:1005000005EB450603FA06F108432061072A0FDAD6
:10051000606B561E06EB86071F2606FA07F1884316
:10052000561E06EB860605FA06F10843606322E0D4
:100530000D2A0FDA206BD61F06EB86071F2606FA58
:1005400007F18843D61F06EB860605FA06F1084335
:10055000206310E0E06AA2F10D0606EB86071F2675
:1005600006FA07F18843A2F10D0606EB860605FAA6
:1005700006F10843E062F0BD816841F00801816046
:10058000704721B1826842F4A002826003E0826871
:1005900022F4A00282607047816841F0040181600A
:1005A0007047000039B1084A1268012383401A439A
:1005B000054B1A6006E0044A1268012383409A43FF
:1005C000014B1A60704700000074004041B1094AB5
:1005D00012684FF4805383401A43064B1A6007E0B9
:1005E000044A12684FF4805383409A43014B1A60C7
:1005F00070470000007400407047000010B52020D4
:1006000000F074F930B1102000F0ACF8002104487B
:1006100000F0B6F801210348806880F83C1010BD56
:100620001C000240C403002010B54FF4005000F03D
:100630005DF938B14FF4805000F094F8002104487F
:1006400000F09EF801210348006880F83C1010BDBE
:1006500044000240C403002010B54FF0007000F0C9
:1006600045F938B14FF0807000F07CF80021044863
:1006700000F086F801210348406880F83C1010BD66
:1006800080000240C403002010B5164800F02EF987
:1006900030B3154800F066F80021144800F007FF59
:1006A0000021134800F06CF800210846FFF78EFF88
:1006B000002202210E4800F02FF900210846FFF722
:1006C00071FF01200B49096808740A480068C06876
:1006D00030B1084A12689068064A1268D1688847A3
:1006E00010BD0000000200100001001000100040CA
:1006F000300402403800002010B5164800F0F6F82B
:1007000030B30021144800F0D2FE124800F02AF85D
:100710000021124800F034F800211020FFF756FFA6
:10072000002202210D4800F0F7F800211020FFF709
:1007300039FF01200A494968087409484068C068BF
:1007400030B1074A52689068054A5268D1688847B4
:1007500010BD0000002000100014004044040240BE
:100760003800002000F0805111B10349086001E019
:100770000249486070470000040402400000024043
:1007800021B1026842F00102026004E002684FF603
:10079000FE731A400260704701684FF6FE72114006
:1007A00001600021016041608160C1604B49884265
:1007B00008D14A490839496841F00F01474A083AC7
:1007C00051608AE045491431884208D143490839CB
:1007D000496841F0F001414A083A51607DE03F49E3
:1007E0002831884208D13D490839496841F470618F
:1007F0003A4A083A516070E038493C31884208D1A1
:1008000036490839496841F47041344A083A516020
:1008100063E032495031884208D13049083949688B
:1008200041F470212D4A083A516056E02B49643159
:10083000884208D129490839496841F47001274A9A
:10084000083A516049E025497831884208D1234966
:100850000839496841F07061204A083A51603CE02B
:100860001F49884206D1011F096841F00F01021F8C
:10087000116032E01A491431884208D11849091F21
:10088000096841F0F001164A121F116025E0144971
:100890002831884208D11249091F096841F4706162
:1008A0000F4A121F116018E00D493C31884208D1EF
:1008B0000B49091F096841F47041094A121F116070
:1008C0000BE007495031884207D10549091F0968E3
:1008D00041F47021024A121F116070470800024063
:1008E000080402400146486880B270470146002073
:1008F000002201F0805313B1054B1A6801E0054B4B
:100900001A6802EA01030BB1012000E000207047E1
:1009100000040240000002401AB103680B43036068
:1009200002E003688B430360704710B50022026841
:1009300047F6F0739A430C6A8B6823430C69234390
:100940004C6923438C692343CC6923434C6A23437A
:100950008C6A23431A430260CB6843600B68836050
:100960004B68C36010BD000010B5012000F064F9B1
:1009700068B1012000F052F905480068807D30B16F
:10098000034A12689068024A1268D168884710BD0D
:10099000F402002010B54FF4806000F04DF980B1F2
:1009A0004FF4806000F03AF93B48806A807D00286F
:1009B00071D0394A926A9068374A926AD1688847FA
:1009C00069E04FF4006000F037F980B14FF4006047
:1009D00000F024F93048C06A807D00285BD02E4AA0
:1009E000D26A90682C4AD26AD168884753E04FF4A3
:1009F000805000F021F980B14FF4805000F00EF9E2
:100A00002548006B807D002845D0234A126B9068F2
:100A1000214A126BD16888473DE04FF4005000F046
:100A20000BF978B14FF4005000F0F8F81A48406B19
:100A3000807D80B3184A526B9068174A526BD16818
:100A4000884728E04FF4804000F0F6F878B14FF482
:100A5000804000F0E3F81048806B807DD8B10E4AEA
:100A6000926B90680C4A926BD168884713E04FF400
:100A7000004000F0E1F870B14FF4004000F0CEF813
:100A80000548C06B807D30B1034AD26B9068024A42
:100A9000D26BD168884710BDF402002010B5022047
:100AA00000F0CAF868B1022000F0B8F805484068C4
:100AB000807D30B1034A52689068024A5268D1681A
:100AC000884710BDF402002010B5042000F0B4F8EF
:100AD00068B1042000F0A2F805488068807D30B13C
:100AE000034A92689068024A9268D168884710BDAC
:100AF000F402002010B5082000F09EF868B108202C
:100B000000F08CF80548C068807D30B1034AD26897
:100B10009068024AD268D168884710BDF40200206C
:100B200010B5102000F088F868B1102000F076F8B9
:100B300005480069807D30B1034A12699068024A15
:100B40001269D168884710BDF402002010B520203A
:100B500000F072F878B1202000F060F82E4840696B
:100B6000807D002857D02C4A526990682A4A5269E1
:100B7000D16888474FE0402000F05EF878B140200F
:100B800000F04CF824488069807D002843D0224A38
:100B900092699068204A9269D16888473BE080203A
:100BA00000F04AF870B1802000F038F81A48C069A7
:100BB000807D80B3184AD2699068174AD269D1689B
:100BC000884728E04FF4807000F036F878B14FF491
:100BD000807000F023F81048006A807DD8B10E4A7A
:100BE000126A90680C4A126AD168884713E04FF481
:100BF000007000F021F870B14FF4007000F00EF8B2
:100C00000548406A807D30B1034A526A9068024AC2
:100C1000526AD168884710BDF4020020014908607B
:100C20007047000014040140024909680143014A69
:100C3000116070471004014001460020034A126809
:100C40000A400AB1012000E000207047140401406E
:100C5000002123498279002A3AD00A4612680368A3
:100C60009A430B461A600A1D126803689A430B1DCB
:100C70001A60027911440A6803681A430A60184A24
:100C80000832126803689A43154B08331A601A1D1C
:100C9000126803689A43124B0C331A604279102A87
:100CA0000ED11A1F126803681A430D4B08331A60DD
:100CB0001A1D126803681A43094B0C331A600DE0C1
:100CC0000749427911440A6803681A430A6005E03B
:100CD000027911440A6803689A430A607047000069
:100CE0000004014030B500228B071C0F0F2303FACC
:100CF00004F20B4B8C1053F824309343084C8D10A6
:100D000044F8253023468C1053F824308C07240FE8
:100D100000FA04F42343024C8D1044F8253030BD12
:100D2000080001402DE9F041024600250026002080
:100D300000230024002791F803C00CF00F0591F860
:100D400003C00CF0100CBCF1000F03D091F802C0EE
:100D50004CEA050591F800C0BCF1000F31D01468D1
:100D600000202BE04FF0010C0CFA00F3B1F800C0AA
:100D70000CEA03069E4220D183004FF00F0C0CFAC0
:100D800003F7BC4305FA03FC4CEA040491F803C0E2
:100D9000BCF1280F06D14FF0010C0CFA00FCC2F890
:100DA00014C00AE091F803C0BCF1480F05D14FF020
:100DB000010C0CFA00FCC2F810C0401C0828D1D36A
:100DC0001460B1F800C0BCF1FF0F34DD546800209E
:100DD0002EE000F1080C4FF0010808FA0CF3B1F80E
:100DE00000C00CEA03069E4221D183004FF00F0C95
:100DF0000CFA03F7BC4305FA03FC4CEA040491F82F
:100E000003C0BCF1280F05D100F1080C08FA0CF85A
:100E1000C2F8148091F803C0BCF1480F07D100F16B
:100E2000080C4FF0010808FA0CF8C2F81080401CBA
:100E30000828CED35460BDE8F0810000F0B50A4622
:100E4000002300240021002500F00046B6F1004FE9
:100E500002D11D4EF16901E01B4E7168C0F30345DC
:100E600083B200F44016B6F5401F08D121F070613E
:100E7000154E766826F07066134F7E6012E000F41F
:100E80008016B6F5801F06D1032606FA05F4A143A5
:100E900041F0706106E0460D360103FA06F6B143F3
:100EA00041F0706122B1460D360103FA06F6314376
:100EB00000F00046B6F1004F02D1034EF16101E0AF
:100EC000014E7160F0BD00000000014002460020AC
:100ED00093680B400BB1012000E000207047416196
:100EE000704701617047000070B5002100230F2298
:100EF000C47804B3154C246804F4E064C4F5E064D9
:100F0000210AC1F10403CA40447804FA03F1847849
:100F10001440214309010E4C0678A155047804F0D1
:100F20001F050124AC4005786D11AD0005F1E025E9
:100F3000C5F8004109E0047804F01F050124AC4025
:100F4000044D0678761145F8264070BD0CED00E0A2
:100F500000E400E080E100E002490143024A116040
:100F6000704700000000FA050CED00E0024A0A405C
:100F70000243024B1A60704780FFFF1F08ED00E03C
:100F800001460020034A506820F440400843506066
:100F9000704700000010024029B1064A526902431E
:100FA000044B5A6104E0034A52698243014B5A617F
:100FB000704700000010024029B1064AD26902437E
:100FC000044BDA6104E0034AD2698243014BDA61DF
:100FD000704700000010024029B1064A126902431E
:100FE000044B1A6104E0034A12698243014B1A61FF
:100FF000704700000010024029B1064A926902437E
:10100000044B9A6104E0034A92698243014B9A615E
:10101000704700000010024029B1064AD26802431E
:10102000044BDA6004E0034AD2688243014BDA6081
:10103000704700000010024030B50021002200245B
:1010400000232D4D6D6805F00C0121B1042905D058
:10105000082923D105E0294D056022E0274D0560D0
:101060001FE0254D6D6805F47012234D6D6805F481
:101070008034022505EB92421CB9214D5543056091
:101080000BE01D4D6D6805F400351DB11C4D554339
:10109000056002E0194D5543056002E0174D0560FB
:1010A00000BF00BF144D6D6805F0F0010909154D32
:1010B0006B5C0568DD4045600F4D6D6805F4E061CF
:1010C000090A104D6B5C4568DD4085600A4D6D680E
:1010D00005F46051C90A0B4D6B5C4568DD40C56085
:1010E000054D6D6805F44041890B074D6B5CC56883
:1010F000B5FBF3F5056130BD0010024000127A0027
:1011000000093D00000000201000002021B10288ED
:1011100042F04002028004E002884FF6BF731A409A
:10112000028070470246002013890B400BB101205A
:1011300000E0002070470146888970478181704730
:1011400010B50022028802F441520B884C882343D8
:101150008C882343CC8823430C8923434C89234325
:101160008C892343CC8923431A430280838B4FF21B
:10117000FF74234083830B8A038210BD10B500F0F7
:1011800001F810BD0CB500200190009033480068B4
:1011900040F480303149086000BF3048006800F4F6
:1011A000003000900198401C0190009818B90198F7
:1011B000B0F5A06FF1D12948006800F4003010B1FB
:1011C0000120009001E0002000900098012843D108
:1011D0002348006840F01000214908600846006874
:1011E00020F0030008600846006840F00200086034
:1011F0001A484068194948600846406848600846EF
:10120000406840F4806048600846406820F47C10E4
:1012100048600846406840F4E810486008460068A6
:1012200040F08070086000BF0C48006800F000705B
:101230000028F9D00948406820F0030007494860B9
:101240000846406840F00200486000BF034840681C
:1012500000F00C000828F9D10CBD0000001002407D
:101260000020024010B51348006840F00100114909
:10127000086008464068104908400E494860084622
:1012800000680E4908400B4908600846006820F4D1
:10129000802008600846406820F4FE0048604FF453
:1012A0001F008860FFF76AFF4FF000600449086084
:1012B00010BD0000001002400000FFF8FFFFF6FE26
:1012C00008ED00E010B501210A4800F0FFF978B1FF
:1012D0000121084800F0E8F807480068007D01286F
:1012E00006D1054A12689068034A1268D168884797
:1012F00010BD0000002C01406803002010B5012142
:10130000880700F0E3F9C0B10121880700F0CCF8AC
:101310000A48006888B109480068C06830B1074AC7
:1013200012689068054A1268D168884703480068C7
:101330000069401C01490968086110BD34000020A3
:1013400010B501210A4800F0C1F978B1012108481F
:1013500000F0AAF807488068007D012806D1054AF8
:1013600092689068034A9268D168884710BD00006F
:10137000000400406803002010B501210A4800F075
:10138000A5F978B10121084800F08EF80748C06837
:10139000007D012806D1054AD2689068034AD268C8
:1013A000D168884710BD0000000800406803002095
:1013B00010B501210A4800F089F978B101210848E7
:1013C00000F072F807480069007D012806D1054A3F
:1013D00012699068034A1269D168884710BD0000FD
:1013E000000C00406803002010B501210A4800F0FD
:1013F0006DF978B10121084800F056F807484069B6
:10140000007D012806D1054A52699068034A526955
:10141000D168884710BD000000100040680300201C
:1014200010B501210A4800F051F978B101210848AE
:1014300000F03AF807488069007D012806D1054A86
:1014400092699068034A9269D168884710BD00008C
:10145000001400406803002010B501210A4800F084
:1014600035F978B10121084800F01EF80748C06935
:10147000007D012806D1054AD2699068034AD269E5
:10148000D168884710BD0000003401406803002087
:1014900021B1028842F08002028004E002884FF607
:1014A0007F731A4002807047CA430282704721B19D
:1014B000028842F00102028004E002884FF6FE73C7
:1014C0001A400280704731B1B0F8442042F4004223
:1014D000A0F8442005E0B0F84420C2F30E02A0F8C2
:1014E0004420704710B504466848844208D1012161
:1014F000C014FFF791FD0021E014FFF78DFDC4E05B
:10150000B4F1804F08D101210846FFF765FD0021A5
:101510000120FFF761FDB8E05D48844208D1012158
:101520000220FFF759FD00210220FFF755FDACE036
:101530005848844208D101210420FFF74DFD0021C5
:101540000420FFF749FDA0E05348844208D101215F
:101550000820FFF741FD00210820FFF73DFD94E042
:101560004E48844208D101211020FFF735FD0021AB
:101570001020FFF731FD88E04948844208D101215D
:101580002020FFF729FD00212020FFF725FD7CE02A
:101590004448844208D101214014FFF73DFD002159
:1015A0006014FFF739FD70E03F48844209D1012102
:1015B000C804FFF731FD00214FF40020FFF72CFD98
:1015C00063E03A48844209D101210805FFF724FD70
:1015D00000214FF48010FFF71FFD56E0344884428D
:1015E00009D101214805FFF717FD00214FF4001034
:1015F000FFF712FD49E02F48844208D10121402025
:10160000FFF7EAFC00214020FFF7E6FC3DE02A4816
:10161000844208D101218020FFF7DEFC00218020D8
:10162000FFF7DAFC31E02548844208D1012180151A
:10163000FFF7D2FC0021A015FFF7CEFC25E02048E3
:10164000844209D101210804FFF7E6FC00214FF490
:101650008030FFF7E1FC18E01A48844209D10121EB
:101660004804FFF7D9FC00214FF40030FFF7D4FC09
:101670000BE01548844208D101218804FFF7CCFC17
:1016800000214FF48020FFF7C7FC10BD002C014063
:101690000004004000080040000C00400010004022
:1016A0000014004000340140004C01400050014053
:1016B0000054014000180040001C00400020004081
:1016C0000040014000440140004801400246002023
:1016D000138A0B400BB1012000E0002070471AB1C3
:1016E00083890B43838102E083898B438381704725
:1016F00070B5002400220023058C4FF6FE7635409D
:101700000584028C8388048B4FF68F752C40B51EA0
:101710002C400D882C43751E2A400D892A434D8884
:101720002A43144DA8420BD0134DA84208D0134DA4
:10173000A84205D0124DA84202D0124DA84213D1A2
:101740004FF6F7752A404D892A434FF6FB752A401C
:101750008D882A434FF6FF652B404FF6FF552B40EF
:101760008D892B43CD892B4383800483CD88858647
:10177000028470BD002C0140003401400040014053
:1017800000440140004801400A460021018B4FF609
:10179000F7731940114301837047000070B50024AE
:1017A00000220023058C4FF6EF7635400584028C2D
:1017B0008388048B48F6FF752C404FF6FF452C407C
:1017C0000D884FF6FF7606EA05252C434FF6DF75A8
:1017D0002A400D8906EA05152A434D8806EA0515B3
:1017E0002A43154DA84202D0144DA8421DD14FF6F0
:1017F0007F752A404D894FF6FF7606EA05152A4384
:101800004FF6BF752A408D8806EA05152A434FF624
:10181000FF352B404FF2FF752B408D8906EA850579
:101820002B43CD8906EA85052B4383800483CD882D
:101830000587028470BD0000002C01400034014087
:101840000A460021018B4FF2FF7319404FF6FF73D8
:1018500003EA0223194301837047000070B5002496
:1018600000220023058C4FF6FF6635400584028C6C
:101870008388848B4FF68F752C404FF6FC752C4077
:101880000D882C434FF6FF552A400D894FF6FF7601
:1018900006EA05252A434D8806EA05252A43154D03
:1018A000A84202D0144DA8421DD14FF2FF752A4024
:1018B0004D894FF6FF7606EA05252A434FF6FF3598
:1018C0002A408D8806EA05252A434EF6FF752B40EF
:1018D0004DF6FF752B408D8906EA05152B43CD8902
:1018E00006EA05152B4383808483CD88858702848F
:1018F00070BD0000002C0140003401400A46002168
:10190000818B4FF6F77319401143818370470000B4
:1019100070B5002200230024058C4EF6FF7635407A
:101920000584038C8488828B48F6FF752A404FF625
:10193000FF452A400D884FF6FF7606EA05252A4323
:101940004DF6FF752B400D8906EA05352B434D8872
:1019500006EA05352B430B4DA84202D00A4DA8429A
:1019600008D14BF6FF752C408D894FF6FF7606EABD
:1019700085152C4384808283CD88A0F84050038451
:1019800070BD0000002C0140003401400A460021D7
:10199000818B4FF2FF7319404FF6FF7303EA022366
:1019A00019438183704781847047000000220288B8
:1019B0001D4B98420ED01D4B98420BD0B0F1804F7A
:1019C00008D01B4B984205D01A4B984202D01A4BB4
:1019D000984204D14FF68F731A404B881A43174B25
:1019E000984207D0164B984204D04FF6FF431A4056
:1019F000CB881A4302808B8883850B8803850A4B2A
:101A000098420BD0094B984208D00E4B984205D013
:101A10000D4B984202D00D4B984201D10B7A0386B0
:101A20000123838270470000002C014000340140F4
:101A30000004004000080040000C0040001000407E
:101A400000140040004001400044014000480140B3
:101A500008B540F22661224800F064F908B3214835
:101A600000882049896888420ED3002240F226610E
:101A70001B4800F081F901211B48C06880F83C1028
:101A80000020184908800CE016484068154A128862
:101A9000815C134800F007FA12480088401C114985
:101AA000088040F225510E4800F03CF970B10C4816
:101AB00000F0F4F9C0B200900B49C96801F11800B8
:101AC0000A4901220B696946984700BF40F2244148
:101AD000034800F027F910B1014800F0DFF908BD14
:101AE000004C0040AC030020C4030020409B0008D1
:101AF00008B540F22661224800F014F908B32148E5
:101B000000882049896888420ED3002240F226616D
:101B10001B4800F031F901211B48006980F83C1096
:101B20000020184908800CE016484068154A1288C1
:101B3000815C134800F0B7F912480088401C114935
:101B4000088040F225510E4800F0ECF870B10C48C6
:101B500000F0A4F9C0B200900B49096901F1180026
:101B60000A4901220B696946984700BF40F22441A7
:101B7000034800F0D7F810B1014800F08FF908BD14
:101B800000500040B8030020C4030020409B000820
:101B900010B540F22441154800F0C4F828B31448A9
:101BA000FEF7A0FE13490968098A0C1A00211048A3
:101BB000FEF7E6FD4FF48030FEF7D4FD0D480068D7
:101BC000008A0B495839C865A2B20A49096801F16F
:101BD000180009490B6909499847044800F05EF963
:101BE00001210348FEF7CCFD00BF10BD00380140C5
:101BF00058000240C4030020409B0008D803002086
:101C000010B540F22441154800F08CF828B3144870
:101C1000FEF768FE13494968098A0C1A002110482A
:101C2000FEF7AEFD4FF48010FEF79CFD0D484068B6
:101C3000008A0B496C390867A2B20A49496801F168
:101C4000180009490B6909499847044800F026F92A
:101C500001210348FEF794FD00BF10BD0044004081
:101C60006C000240C4030020409B0008D8050020FF
:101C700010B540F22441154800F054F828B3144838
:101C8000FEF730FE13498968098A0C1A00211048B2
:101C9000FEF776FD4FF48070FEF764FD0D48806816
:101CA000008A0B4930394863A2B20A49896801F1B8
:101CB000180009490B6909499847044800F0EEF8F3
:101CC00001210348FEF75CFD00BF10BD0048004045
:101CD00030000240C4030020409B0008D8070020C9
:101CE00021B1828942F40052828104E082894DF65A
:101CF000FF731A40828170471AB1838A0B43838233
:101D000002E0838A8B438382704702460020B1F54C
:101D1000007F00D100BF13880B400BB1012000E011
:101D20000020704770B502460024002300250020E3
:101D300040F66A16B14200D100BFC1F3421501F06E
:101D40001F03012606FA03F3012D02D196893340C1
:101D500006E0022D02D1168A334001E0968A334014
:101D60000C12012606FA04F41688344013B10CB1A3
:101D7000012000E0002070BDF0B5034600240026DD
:101D80000025002040F66A17B94200D100BF18466E
:101D9000C1F3421401F01F06012707FA06F5012CD2
:101DA00001D10C3004E0022C01D1103000E01430DD
:101DB0001AB107682F43076002E00768AF43076066
:101DC000F0BD00002DE9F04786B005460E46002420
:101DD000A24600BFA1460027B08900B100BF2F4630
:101DE0002C8A4CF6FF700440F08804432C82AC89A6
:101DF0004EF6F3100440B0883189084371890843D6
:101E00000443AC81AC8A4FF6FF400440B0890443E0
:101E1000AC8201A8FFF710F91F48874202D1DDF814
:101E200010A001E0DDF80CA0A88900F4004040B14A
:101E30000AEBCA0000EB0A1031684900B0FBF1F868
:101E400007E00AEBCA0000EB0A1031688900B0FB1A
:101E5000F1F86420B8FBF0F004012009642101FBD3
:101E60001089A88900F4004040B1322000EBC9007D
:101E7000B0FBF1F000F00700044308E0322000EB73
:101E800009106421B0FBF1F000F00F0004432C8135
:101E900006B0BDE8F08700000038014001468888A0
:101EA000C0F308007047C1F3080282807047000049
:101EB00010B5044602482146426A0248904710BDC8
:101EC000D0A60008E017002010B50848C16A0848ED
:101ED0008847012804D10548816A0548884703E0FE
:101EE000024841680248884710BD0000D0A600089B
:101EF000E017002070B505460E48006808B90020BC
:101F000070BD0C480468284600F0BEFB0646324609
:101F1000A32109A006F09AF907E028682168884201
:101F200002D10021217601E02469F6E700BF00BF5D
:101F30000120E5E7F80000202E2E5C2E2E5C2E2ED0
:101F40005C2E2E5C54656D706C6174654C69625CCE
:101F500053544D333246313033585C5374616E64A0
:101F60006172644C69625C43655469636B65722E8F
:101F70006300000010B504460021204607F050FC25
:101F800002D284F0004010BD2046FCE770B5044644
:101F9000002503E01648C1680020884715480078EE
:101FA0000228F7D0022013490870A17A00230122E9
:101FB0001148FEF785FA02210F48FEF72AFA01219F
:101FC0000D48FEF7DEFA00BF02210B48FEF73DFA8E
:101FD0000028F9D00848FEF734FA054600210648E3
:101FE000FEF7CFFA012003490870284670BD0000B3
:101FF000C09D0008140000200024014030B587B0C7
:102000000446204600F0D8FA05462A46672135A046
:1020100006F01CF92178C1F30312042101FA02F041
:102020000121FEF7E9FF2078C0F303103B4951F886
:1020300020006060207800F00F010120884020819E
:102040002078C0F30310364901EB0010217801F02D
:102050000F01415CA17200208DF81B0003208DF858
:102060001A002089ADF8180006A96068FEF75AFE2C
:102070002C48007890BB01202A4908708003FEF7A5
:102080007FFF01214802FEF7B7FF002001908DF885
:1020900008008DF809004FF46020039000200490A0
:1020A00001208DF8140001A91F48FEF7E1F9012174
:1020B0001D48FEF7B1F91C48FEF75EFA00BF1A484A
:1020C000FEF7CCF90028FAD11748FEF765FA00BFF1
:1020D0001548FEF7ACF90028FAD100BF012007B07F
:1020E00030BD00002E2E5C2E2E5C2E2E5C2E2E5C23
:1020F00054656D706C6174654C69625C53544D330A
:102100003246313033585C5374616E646172644C92
:1021100069625C436541642E630000001800002082
:10212000849A0008140000200024014010B50146E4
:10213000002300220878302802DB087839280ADDDD
:1021400008782B2802D008782D2804D108782D286B
:1021500000D10123491C0DE00878302802DB087803
:10216000392800DD09E011F8010B303802EB820458
:1021700000EB440208780028EED100BF087810B1C7
:102180006FF0010010BD012B01D15042FAE710465B
:10219000F8E7000070B504460D4625601020207158
:1021A00004480168204688470248816820468847DD
:1021B000012070BD809B000802460120704700008E
:1021C0002DE9F04704460D4616461F464FF000091C
:1021D00022E01349486980474FF000080FE0A089CA
:1021E000A16808610F48816864208847A089A168B8
:1021F00048610C4881686420884708F1010805EBB4
:1022000085004045EBDC0649886980470548C16880
:102210003046884709F10109B945DADBBDE8F087A6
:10222000DC9D0008C09D000810B50446606D08B133
:10223000606D804710BD000070B505462C460E4805
:10224000C16804F12400884778B994F8500000F080
:10225000010080B9606D08B1606D804794F850004E
:1022600040F0010084F8500005E094F8500020F0A0
:10227000010084F8500070BD809B000810B5044632
:1022800094F8500000F08000802808D109480169C6
:102290002046884708B9012010BD0020FCE7064809
:1022A000C16804F12400884708B90120F4E7002040
:1022B000F2E70000049C0008809B000870B504460B
:1022C0000D461646002084F8500066656562482178
:1022D000282001551048016804F124008847606DEA
:1022E00080B165630D4921646421A163E4630C48F6
:1022F000016804F1340088470948416804F134005A
:10230000884707E0606BA84204D10548C16804F122
:1023100034008847012070BD809B000839220008E6
:10232000009E000870B504460D461646802084F8CD
:102330005000666525600848E06000202071A460B8
:102340000648016820468847606D18B103488168D7
:1023500020468847012070BD29220008049C0008FF
:1023600070B506460C461E4948698047054696F8F2
:10237000500000F08000802817D10FE0184948690C
:10238000804700220346084611465A1B60EB0100B5
:102390000021A21A814101D2122070BD11480169A9
:1023A000304688470128E9D017E00FE00C4948691A
:1023B000804700220346084611465A1B60EB010085
:1023C0000021A21A814101D21220E6E70648C16825
:1023D00006F1240088470128E8D00120DDE700004D
:1023E000C09D0008049C0008809B000870B506464C
:1023F0000C461E4948698047054696F8500000F093
:102400008000802817D10FE01849486980470022D2
:102410000346084611465A1B60EB01000021A21A30
:10242000814101D2122070BD1148016930468847B0
:102430000028E9D017E00FE00C49486980470022E6
:102440000346084611465A1B60EB01000021A21A00
:10245000814101D21220E6E70648C16806F1240056
:1024600088470028E8D00120DDE70000C09D000873
:10247000049C0008809B00082DE9F84F05460C4697
:1024800092464FF6FF76B146701000902048844285
:102490000BD8002604EBC400C0004FF47A71B0FBE7
:1024A000F1F0401C1FFA80F920E01A4884421BD842
:1024B0004820A4FB007001464FF07A720023384692
:1024C000FDF7C4FE86B2701C4FF47A7180FB017078
:1024D00003464820A4FB00B001463A465846FDF7A3
:1024E000B5FE1FFA80F901E0BDE8F88FAAFB09707C
:1024F0000146224600233846FDF7A8FE80B2009030
:10250000EE82A5F818900098688300BFECE7000001
:102510008EE30D00E3388EE32DE9F84F06461446AE
:102520001D464FF6FF794846009022490020091BBE
:10253000A84113D34FF0000948210020A4FB0173E8
:1025400005FB013104FB00114FF47A720346384653
:10255000FDF77CFE401C80B2009025E04821002061
:10256000A4FB017305FB013104FB00114FF07A72EB
:1025700003463846FDF76AFE1FFA80F909F10100AB
:102580004FF47A7180FB0171884648210022A4FB38
:1025900001A305FB013104FB02113A4643465046B4
:1025A000FDF754FE80B20090A6F816900098308394
:1025B000BDE8F88F8EE30D00014609B90820704789
:1025C000044A08681040904201D00220F7E7012039
:1025D000F5E7000000100001014609B90820704726
:1025E000086800F00120B0F1012F06D0044A086805
:1025F0001040904201D00220F1E70120EFE70000F7
:1026000000200002014609B908207047C86808B9CF
:102610000820FAE7044A08681040904201D00220DE
:10262000F3E70120F1E7000000080001014609B9C5
:10263000082070470D4A08681040904201D00220DF
:10264000F7E788680E2803D3D1E90102904201D24E
:102650001120EEE7064A4868904202D848680E28E2
:1026600001D81120E5E70120E3E7000000020001A6
:10267000E3388EE3014609B908207047886808B935
:102680000420FAE70120F8E7014609B9082070475D
:10269000486808B91120FAE7C86808B90420F6E7C5
:1026A0000120F4E7014609B908207047486808B9D5
:1026B0001120FAE7C86808B90420F6E7044A086858
:1026C0001040904201D00220EFE70120EDE700002A
:1026D00000010004014609B908207047086800F0AD
:1026E0000220B0F1022F01D00220F6E70120F4E72A
:1026F000014609B908207047044A08681040904212
:1027000001D00220F7E70120F5E7000000040002F5
:1027100070B504460D460648006838B105482A469B
:102720002146436902481830984770BD0020FCE7F5
:102730008C010020409B000810B50548006828B1B6
:102740000448816802481830884710BD0020FCE723
:102750008C010020409B000810B50446002015495C
:102760000860012081F866010020A1F864010CB91D
:10277000012010BD04F00220B0F1022F01D0022090
:10278000F7E70C4804604FF4E1300A494860012043
:1027900088724872087201F14000C86020200882E7
:1027A000054801680348884703484168014888474D
:1027B0000120DEE78C0100204C9E00080FB42DE9BB
:1027C000F84F6C48006800286FD04FF00009CA46E7
:1027D000CB460020009000BF0025002480466549BC
:1027E000A1F864010FE06448C1680520884708F13A
:1027F00001001FFA80F84FF6FF70804503DB0120CF
:102800005C4981F866015B4890F866010028EAD0CF
:102810000020584981F866010BAC0A9D8EE02878AB
:10282000252870D1681C05460078642827D00EDC66
:1028300058285ED006DC252866D042284ED0552880
:102840006DD128E0622848D0632868D10CE0732855
:1028500039D004DC662829D0692860D110E07528B9
:1028600018D078285BD143E0201D044610F8040CF2
:10287000009000221146009800F0A0F855E000BF3B
:10288000201D044650F8049C00221146484600F0E2
:102890004DF94AE000BF201D044650F804AC002268
:1028A0001146504600F093F93FE05EE004F1080065
:1028B000044650F8086D476800231A4630463946EA
:1028C00000F0AAF831E0201D044650F804BC0022B4
:1028D0001146584600F06CF927E000BF201D044661
:1028E00050F8049C00221146484600F051F81CE0C4
:1028F00000BF201D044650F8049C002211464846A3
:1029000000F0CCF811E013E000221146252000F081
:1029100055F800221146252000F050F805E000226D
:10292000114616A000F044F900BF00BF6D1C05E081
:1029300015F8010B0022114600F040F82878002815
:102940007FF46DAF002401200A4981F86601084632
:10295000006E48B100210748B0F86421643081540A
:102960006438016E6430884700BFBDE8F80F5DF839
:1029700014FB00008C010020C09D000821556E6BE7
:102980006E6F776E20666F726D61742100000000BB
:102990002DE9F04105460E4617461F240AE025FAA8
:1029A00004F101F0010101F130003A46314600F036
:1029B00005F8641E002CF2DABDE8F08137B50D464B
:1029C0001446D5B91248006808B312480122694676
:1029D00083680F4898470E48006EC0B19DF80010FC
:1029E0000B48B0F86421643081546438B0F8640155
:1029F000401C0749A1F8640109E09DF80000218806
:102A000068542088401C20800020218868543EBDE6
:102A10008C0100204C9E00082DE9F04704460D462D
:102A2000164699464FF0000A0022134620462946D2
:102A300006F0A0FB06D24A4631462D20FFF7BEFF26
:102A400085F000452046294606F04EFB82464A4660
:102A50003146504600F0BBF84A4631462E20FFF77B
:102A6000ADFF504606F06FFB074622462B4606F0A8
:102A7000BBFC04460D460022074B2046294606F0C3
:102A8000B5FB074606F030FB82464A4631465046C3
:102A900000F09DF8BDE8F087D012634170B50446A0
:102AA0000D4616460F2101EA14711F4A505C32464A
:102AB0002946FFF783FF1C49C4F30362885C324652
:102AC0002946FFF77BFF1849C4F30352885C32465E
:102AD0002946FFF773FF1449C4F30342885C32466A
:102AE0002946FFF76BFF1049C4F30332885C324676
:102AF0002946FFF763FF0C49C4F30322885C324682
:102B00002946FFF75BFF0849C4F30312885C32468D
:102B10002946FFF753FF04F00F01034A505C324689
:102B20002946FFF74BFF70BDFC9A00082DE9FE43D4
:102B300005460E4617464FF0000835B93A4631466D
:102B40003020FFF73BFFBDE8FE83002D05DA3A4653
:102B500031462D20FFF732FF6D4200240BE00A20A2
:102B600095FBF0F100FB1150C0B20DF804000A20F3
:102B700095FBF0F5641C0A2CF1DB092414E01DF828
:102B8000040008B14FF00108B8F1010F0BD11DF896
:102B900004003030C0B20DF804001DF804003A46BD
:102BA0003146FFF70BFF641E002CE8DA00BFCAE7CE
:102BB00070B504460D46164605E014F8010B324682
:102BC0002946FFF7FBFE20780028F6D170BD2DE9DD
:102BD000FE4305460E4617464FF0000835B93A4603
:102BE00031463020FFF7EAFEBDE8FE8300240AE00C
:102BF0000A20B5FBF0F100FB11500DF804000A208B
:102C0000B5FBF0F5641C0A2CF2DB092414E01DF876
:102C1000040008B14FF00108B8F1010F0BD11DF805
:102C200004003030C0B20DF804001DF804003A462C
:102C30003146FFF7C3FE641E002CE8DA00BFD3E77D
:102C400010B5044615480068002825D013480466CE
:102C50001348C16813A088471148C1681BA0884762
:102C60000F48C16823A088470D48C1682DA0884738
:102C70000B48C16834A088470948C1683A4888476A
:102C80000748C16839A088470548C16842A08847FD
:102C90000348C16849A0884710BD00008C0100208E
:102CA0000C9B00085C2A2A2A2A2A2A2A2A2A2A2A4B
:102CB0002A2A2A2A2A2A2A2A2A2A2A2A2A2A2A2A74
:102CC0002A2A2A2A2A2A2A5C0A0A00005C2A57454C
:102CD0004C434F4D4520544F2055534520435245BA
:102CE000454C494E4B5320504C4154464F524D2A6F
:102CF0005C0A00005C2A486172647761726520702A
:102D00006C6174666F726D3A454C696E6B53544DCD
:102D10002F454C696E6B53544D5F50726F2A5C0A9D
:102D2000000000005C2A5374616E64617264206C60
:102D30006962726172792076657273696F6E3A5654
:102D400031372A5C0A0000005C2A436F7265206CF0
:102D50006962726172792076657273696F6E3A5634
:102D600031372A5C0A00000074A700085C2A42651B
:102D7000696A696E67204461726365726E2074656A
:102D800063686E6F6C6F677920636F2E2C204C54D4
:102D9000442A5C0A000000005C2A435245454C4925
:102DA0004E4B5320444556454C4F504D454E5420B4
:102DB0005445414D2A5C0A0A000000005C2A2A2A78
:102DC0002A2A2A2A2A2A2A2A2A2A2A2A2A2A2A2A63
:102DD0002A2A2A2A2A2A2A2A2A2A2A2A2A2A2A2A53
:102DE0005C0A0A000FB42DE9FE4F06464FF0000AB8
:102DF000D34600200290019000BF002500248146A8
:102E000000900FE05E48C1680520884709F1010085
:102E10001FFA80F94FF6FF70814503DB0120594905
:102E200081F86601574890F866010028EAD0002032
:102E3000544981F866010EAC0D9D91E02878252853
:102E400071D1681C05460078642827D00EDC58280C
:102E50005FD006DC252868D042284FD0552870D195
:102E600028E0622849D063286BD10CE0732839D060
:102E700004DC662828D0692863D110E0752818D0B2
:102E800078285ED144E0201D044610F8040C01901F
:102E90006A4631460198FFF791FD58E000BF201DBA
:102EA000044650F804AC6A4631465046FFF73EFEF1
:102EB0004DE000BF201D044650F804BC6A46314670
:102EC0005846FFF784FE42E004F10800044650F83B
:102ED000087DD0F804806B46324638464146FFF7FD
:102EE0009BFD34E0201D044650F8040C02906A4615
:102EF00031460298FFF75CFE29E000BF201D044622
:102F000050F804AC6A4631465046FFF741FD1EE0DA
:102F100000BF201D044650F804AC6A4631465046B6
:102F2000FFF7BCFD13E015E0FFE76A4631462520B8
:102F3000FFF744FD6A4631462520FFF73FFD06E0D6
:102F4000FFE76A46314610A0FFF732FE00BF00BF20
:102F50006D1C05E015F8010B6A463146FFF72EFDA2
:102F6000287800287FF46AAF00240120054981F801
:102F70006601BDF80000BDE8FE0F5DF814FB00001F
:102F8000C09D00088C01002021556E6B6E6F776E1E
:102F900020666F726D6174210000000000200149FD
:102FA000086670478C01002010B50446044881690A
:102FB00020468847024881692046884710BD0000A6
:102FC000409B000810B50446204600F045F8034831
:102FD000816804F10C00884710BD0000409B000888
:102FE00010B50446204600F037F80348C16804F1E4
:102FF0000C00884710BD0000409B000810B5044637
:1030000004480168204688470248016804F10C0022
:10301000884710BD409B000810B50446204600F0CC
:103020001BF80348416804F10C00884710BD0000FC
:10303000409B000870B504460D461646204600F039
:103040000BF8044832462946436904F10C009847BE
:1030500070BD0000409B0008F8B504461548816823
:10306000204688470546002D23DD00261DE0114837
:10307000C16804F10C008847012813DB0D48016A80
:1030800004F10C00884768B90A480122694643697F
:1030900020469847074801226946036904F10C005D
:1030A000984700E003E0701C86B2AE42DFDB00BF51
:1030B00000BFF8BD409B000870B504460D4616469B
:1030C000E07D012806D10948324629460369204699
:1030D000984770BD2046FFF7BFFF04483246294697
:1030E000036904F10C009847F3E70000409B0008D7
:1030F0002DE9F04188B004460D46164694F8650661
:10310000012800D000BF94F86106012803D00120F7
:1031100008B0BDE8F08194F86106012807D1114894
:1031200033462A4610A107696846B84705E00D48AE
:10313000324612A10369684698474FF47A7313A286
:103140006946204601F00EF88046114881694046E4
:103150008847074603483A466946C3680DA0984722
:103160004046D5E70C9B000841542B43495053453A
:103170004E443D25642C25640D0A000041542B4328
:10318000495053454E443D25640D0A003E00000061
:10319000C09D000852756E20434D443A2573527508
:1031A0006E20726573756C743A25730A0A0000000C
:1031B0002DE9FF4105460E46284600F061FA80469B
:1031C00095F8640640B92D483146C2682CA0904756
:1031D000002004B0BDE8F081002445E004EB440386
:1031E00005F5227101EB4311481C2F494A6831460D
:1031F0009047B0BB04EB440105F5227000EB411091
:10320000B0F85C0004EB440205F5227101EB4211B9
:10321000B1F85A1004EB440305F5227202EB431295
:10322000483204EB440705F5227303EB47135B6C4C
:10323000CDE90032CDE9021004EB440105F522701E
:1032400000EB4110431C04EB440105F5227000EB38
:103250004110027809483146C7681448B847012030
:10326000B7E7FFE7601CC4B20A2CB7DB034831465E
:10327000C26803A090470020ABE700000C9B000849
:103280004365455350383236362063616E6E6F7435
:103290002066696E642077696669206279206E61B4
:1032A0006D653A2025730A002C9B000838A8000899
:1032B0002DE9F04F8FB004460D4616461F46DDE956
:1032C000189A002084F8610604F5C96040F825A02A
:1032D0000097B9F1000F01D110A000E010A0024644
:1032E0001048334610A1D0F810C002A8E0474FF4B0
:1032F000FA6314A202A9204600F034FF8046124867
:10330000816940468847834606485A4602A9C368F1
:103310000EA0984740460FB0BDE8F08F54435000D0
:10332000554450000C9B000841542B4349505354C2
:103330004152543D222573222C222573222C2564D0
:103340000D0A00004F4B0000C09D000852756E2012
:10335000434D443A257352756E20726573756C74D3
:103360003A25730A0A0000002DE9F0419AB006469A
:103370000C4615461B482B4622461BA1D0F810C010
:1033800001A8E04742F6E0631DA201A9304600F023
:10339000E9FE07461B488169384688478046114840
:1033A000424601A9C36818A098470E4801221DA1F2
:1033B000036901A898474FF4FA6311A201A93046A6
:1033C00000F0D0FE07460F4881693846884780469E
:1033D0000448424601A9C36816A0984738461AB067
:1033E000BDE8F0810C9B000841542B43574A4150E3
:1033F0003D222573222C222573220D0A0000000095
:103400004F4B0000C09D000852756E20434D443A5A
:10341000257352756E20726573756C743A25730A44
:103420000A00000041542B4349504D4F44453D256F
:10343000640D0A0052756E20434D443A25732052A4
:10344000756E20726573756C743A25730A0A0000F4
:1034500010B50346002003E00C5C1C54441CA0B2D1
:103460009042F9DB10BD00002DE9F04389B004461D
:103470000D4690461E46012084F86106C4F85C663D
:103480001D4801221DA1036901A898474FF4FA6362
:103490001EA201A9204600F065FE07461C4881696E
:1034A00038468847814614484A4601A9C36819A08E
:1034B0009847012F03D0384609B0BDE8F0830E4885
:1034C0002B4601221AA1D0F810C001A8E0474FF402
:1034D000FA630EA201A9204600F044FE07460C48FC
:1034E000816938468847814603484A4601A9C3682E
:1034F00008A098473846DFE70C9B000841542B434F
:1035000049504D55583D25640D0A00004F4B0000B1
:10351000C09D000852756E20434D443A2573527584
:103520006E20726573756C743A25730A0A00000088
:1035300041542B4349505345525645523D25642C26
:1035400025640D0A000000002DE9F04FA3B00646E7
:103550000D4617469846DDE92C9A2148CDE9009A98
:1035600043463A461FA1D0F810C003A8E0474FF4E5
:10357000FA6323A203A9304600F0F4FD0446214873
:10358000816920468847834615485A4603A9C3687F
:103590001DA09847012C03D0204623B0BDE8F08F32
:1035A0000F482A461FA1036903A898474FF4FA63FE
:1035B00013A203A9304600F0D5FD044611488169E5
:1035C00020468847834606485A4603A9C3680EA08A
:1035D0009847012C01D02046DFE72046DDE70000B8
:1035E0000C9B000841542B43575341503D222573F7
:1035F000222C222573222C25642C25640D0A000020
:103600004F4B0000C09D000852756E20434D443A58
:10361000257352756E20726573756C743A25730A42
:103620000A00000041542B43495041503D2225736C
:10363000220D0A0010B50446204600F021F894F847
:1036400064160348C26803A0904794F8640610BD4E
:103650000C9B000843654553503832363620666966
:103660006E642063616E20636F6E6E656374207795
:1036700069666920636F756E743A2025640A0000DC
:103680002DE9F04190B00446002511E0002105EB42
:10369000450204F5227000EB4210417005EB450233
:1036A00004F5227000EB421080F84810681C85B2C7
:1036B0000A2DEBDB4FF4FA6390A293A1204600F0B1
:1036C00051FD0746934881693846884780469248AD
:1036D00042468DA1C36891A09847012F07D00020D2
:1036E00084F8640604F5227010B0BDE8F08100256E
:1036F000FEE04FF4FA5090A3322203A90090204636
:1037000000F05EFC0646002E04DC84F8645604F5E6
:103710002270E9E74FF4FA608AA3322203A90090ED
:10372000204600F04DFC0646022E04D19DF80C0008
:103730003038052804DD84F8645604F52270D3E798
:103740009DF80C003038C1B205EB450204F522703B
:1037500000EB421001704FF4FA607BA3322203A900
:103760000090204600F02CFC0646012E04DC84F874
:10377000645604F52270B7E705EB450204F52271A3
:1037800001EB4211481C324603A9FFF761FE4FF4DA
:10379000FA606CA3322203A90090204600F010FCCE
:1037A0000646012E01DD062E04DB84F8645604F57E
:1037B000227099E76548016903A8884705EB45022F
:1037C00004F5227101EB421148644FF4FA605EA3E4
:1037D000322203A90090204600F0F2FB0646122E8A
:1037E00004D084F8645604F522707DE705EB4502A9
:1037F00004F5227101EB421101F14800324603A9A0
:10380000FFF726FE4FF4FA6051A3322203A900907D
:10381000204600F0D5FB0646002E01DD062E04DD15
:1038200084F8645604F522705EE74848016903A8ED
:10383000884781B205EB450204F5227000EB421087
:10384000A0F85A104FF4FA6042A3322203A9009064
:10385000204600F0B5FB0646002E01DD062E04DDF5
:1038600084F8645604F522703EE73848016903A8DD
:10387000884781B205EB450204F5227000EB421047
:10388000A0F85C1005EB450104F5227000EB411037
:10389000B0F85C0005EB450204F5227101EB421122
:1038A000B1F85A1005EB450304F5227202EB4312FE
:1038B000483205EB4508CDE90021029004F522705D
:1038C00000EB481005EB4508436C04F5227000EB53
:1038D0004810421C05EB450804F5227000EB481027
:1038E00001780D48D0F80CC01B48E047681C85B231
:1038F0000A2DFFF6FEAE04F52270F5E641542B4387
:10390000574C41500000000041542B43574C41504C
:103910000D0A0000C09D00080C9B000852756E2027
:10392000434D443A257352756E20726573756C74FD
:103930003A25730A0A0000002B43574C41503A289D
:10394000000000002C220000222C00002C9B00080C
:103950002C00000029000000D8A7000810B504467C
:10396000204600F021F894F862160348C26803A0CC
:10397000904794F8620610BD0C9B000843654553C0
:1039800050383236362066696E6420636F6E6E651D
:1039900063742064657669636520636F756E743A3D
:1039A0002025640A000000002DE9F0418AB0044699
:1039B00000250DE0002105EB051204F1550000F88B
:1039C000121005EB051200EB42000174681CC5B231
:1039D0000A2DEFDB3D48C1683DA088474FF47A735C
:1039E00046A249A1204600F0BDFB0746494881692F
:1039F0003846884780463548424643A1C36846A0BA
:103A00009847012F07D0002084F8620604F1550082
:103A10000AB0BDE8F081002552E04FF4FA6045A3FA
:103A20001E2202A90090204600F0CAFA06460EB1F6
:103A3000102E04DD84F8625604F15500E8E705EB2A
:103A4000051204F1550101EB4200324602A9FFF7CD
:103A5000FFFC4FF4FA602EA31E2202A9009020461C
:103A600000F0AEFA06460EB1132E09DD002105EB7B
:103A7000051204F1550000F8121084F86256C7E7E9
:103A800005EB051204F1550101EB420101F11000B3
:103A9000324602A9FFF7DCFC05EB051C04F15500DA
:103AA00000EB4C0000F1100205EB051C04F1550081
:103AB00000EB4C010548C3681FA09847681CC5B2BD
:103AC0000A2DAADB04F15500A2E700000C9B0008B8
:103AD0004365455350383236362074727920746FFE
:103AE0002066696E6420636F6E6E65637420646522
:103AF000766963652E2E2E0A0000000041542B4388
:103B0000574C49460D0D0A0041542B43574C49462A
:103B10000D0A0000C09D000852756E20434D443AC6
:103B2000257352756E20726573756C743A25730A2D
:103B30000A0000002C00000043654553503832361F
:103B4000362066696E6420636F6E6E6563742064F0
:103B50006576696365206F6E204150204D6F646506
:103B60003A0A49503A2573202020204D41433A25F6
:103B7000730A000010B50446204600F01BF894F8C4
:103B800063160348C26803A0904794F8630610BD0B
:103B90000C9B000843654553503832363620666921
:103BA0006E64206C696E6B20636F756E743A2025AD
:103BB000640A00002DE9F0418AB0044600250BE0BC
:103BC000002105EB450000EBC50204F5D57000EBC4
:103BD00042004170681C85B20A2DF1DB4FF4FA6394
:103BE000AAA2ADA1204600F0BDFA0746AE48816901
:103BF000384688478046AD484246A7A1C368ACA076
:103C00009847012F0BD0A948C168B0A08847002071
:103C100084F8630604F5D5700AB0BDE8F08100258C
:103C20002DE14FF4FA60B7A31E2202A900902046AE
:103C300000F0C6F9064636B1022E04DC9DF80800F5
:103C40003038042804DD84F8635604F5D570E3E7C2
:103C50009DF808003038C1B205EB450000EBC50205
:103C600004F5D57000EB420001754FF4FA60A6A38D
:103C70001E2202A90090204600F0A2F906460EB1CD
:103C8000042E04DD84F8635604F5D570C4E79DF86E
:103C90000800542811D19DF8090043280DD19DF842
:103CA0000A00502809D1002105EB450000EBC502B0
:103CB00004F5D57000F8121024E09DF8080055288E
:103CC00011D19DF8090044280DD19DF80A00502813
:103CD00009D1012105EB450000EBC50204F5D570C3
:103CE00000F812100EE0002105EB450000EBC502C4
:103CF00004F5D57000EB4200417084F8635604F57A
:103D0000D57089E74FF4FA6080A31E2202A90090C3
:103D1000204600F055F90646072E01DB142E0EDD75
:103D2000002105EB450000EBC50204F5D57000EB62
:103D30004200417084F8635604F5D5706CE705EBDA
:103D4000450101EBC50204F5D57101EB4201481CA8
:103D5000324602A9FFF77CFB4FF4FA606CA31E22E7
:103D600002A90090204600F02BF906460EB1062E5F
:103D70000EDD002105EB450000EBC50204F5D57012
:103D800000EB4200417084F8635604F5D57043E7B8
:103D90006048016902A8884781B205EB450000EB45
:103DA000C50204F5D57000EB420041824FF4FA6081
:103DB0003CA31E2202A90090204600F001F906460D
:103DC0000EB1022E0EDD002105EB450000EBC50211
:103DD00004F5D57000EB4200417084F8635604F599
:103DE000D57019E74B48016902A88847C1B205EBB5
:103DF000450000EBC50204F5D57000EB42004175AB
:103E000005EB450000EBC50104F5D57000EB410062
:103E1000407D012801D140A100E041A105EB450012
:103E200000EBC50204F5D57000EB4200408ACDE9F5
:103E3000000105EB450000EBC50804F5D57000EB6B
:103E40004800431C05EB450000EBC50804F5D570A0
:103E500010F8180008B934A000E034A0024605EBC1
:103E6000450000EBC50804F5D57000EB4800017D66
:103E70000E48D0F80CC02E48E047681C85B20A2DC9
:103E8000FFF6CFAE04F5D570C6E600002B434950CF
:103E90005354415455533A0041542B4349505354C1
:103EA000415455530D0A0000C09D00080C9B0008AA
:103EB00052756E20434D443A257352756E207265DB
:103EC00073756C743A25730A0A0000004365455304
:103ED00050383236362063616E6E6F742066696EBC
:103EE00064206C696E6B206F6E20736572766572EC
:103EF000206F7220636C69656E74206D6F64652E2F
:103F00000A0000002C220000222C2200222C00009B
:103F10002C0000002C9B000853657276657200002F
:103F2000436C69656E740000544350005544500062
:103F300090A8000870B504460D46002004F5C96439
:103F4000207660776076E076A076207760612060EA
:103F5000A4F5C964002140F24C600151001D0151DB
:103F6000001D0151001D015125604FF4E1306060DA
:103F70000120A072607220720002208204F266604A
:103F8000E06064610B480168204688470948416841
:103F90002046884725640849A1646464074841684D
:103FA00004F1400088470548816804F140008847D3
:103FB000012070BD4C9E00086D450008DC9D000886
:103FC0002DE9F84F82460C4690461E46DDF828B093
:103FD0004FF000090027002500208DF80100207017
:103FE0003DE01F48C1685046884700280EDCD9458F
:103FF00003DB00202070BDE8F88F09F10A001FFAEA
:1040000080F91848C1680A20884728E0144801222E
:1040100069460369504698479DF800006055681C42
:1040200085B2454502D100202070E4E79DF80000EC
:10403000F15D884212D1781C87B2F05D78B90A48E8
:10404000016830468847281A002121540648016833
:1040500030468847281A401C80B2CCE70027C0E7CA
:104060004C9E0008C09D00082C9B00082DE9F047DD
:1040700007468A4615461C46B4F5AF6F1BDC224640
:1040800051463846FFF734F8012802D00020BDE839
:10409000F08722462946384600F0E8F897F865068A
:1040A00008B10120F3E74FF47A732DA200213846BE
:1040B00000F058F8EBE74FF4AF6094FBF0F000F03D
:1040C000FF084FF4AF6094FBF0F100FB11401FFAC2
:1040D00080F900261EE04FF4AF6251463846FFF7E4
:1040E00007F8012801D00020D1E7AF20704305EB8D
:1040F000C0012246384600F0B9F84FF47A7318A28E
:104100000021384600F02EF8012801D00020BEE73B
:10411000701CC6B24645DEDBB9F1000F1CD04A4622
:1041200051463846FEF7E4FF012801D00020AEE7F3
:10413000AF2008FB00F005EBC0014A46384600F00E
:1041400095F84FF47A7306A20021384600F00AF879
:10415000012801D000209AE700BF012097E7000066
:104160004F4B00002DE9FF4F83B004460D46164625
:1041700035B994F86506012802D107B0BDE8F08F83
:104180004FF000090027B846BA460FF2CC0B0020CA
:104190008DF809000BE03248C168012088470AF118
:1041A00001001FFA80FABAF5FA6F00DB03E094F819
:1041B00060060128EFD000BF012084F860067DB1C1
:1041C000284881692046884727480168284688474B
:1041D00080B201902348836829462046019A984777
:1041E00039E02048C1682046884700280FDC1C4879
:1041F000C1680A20884709F10A001FFA80F9069869
:10420000814528DB002084F860061220B5E71548B8
:10421000012202A90369204698479DF808001BF86F
:104220000810884208D108F101001FFA80F81BF835
:10423000080008B90020A0E79DF80800F15D884259
:1042400008D1781C87B2F05D28B9002084F8600698
:10425000012092E70027C4E74552524F5200000068
:10426000C09D00084C9E00082C9B00082DE9F041E1
:1042700004460E461746002509E00E48C168012095
:104280008847681C85B2B5F5FA6F00DB03E094F847
:1042900060060128F1D000BF012084F860060648BE
:1042A0003A463146836820469847002084F86006E5
:1042B000BDE8F081C09D00084C9E0008F0B591B0AB
:1042C00005460C460D4822460DA1036901A89847F2
:1042D0004FF4FA630EA201A92846FFF743FF0646F2
:1042E0000C48816930468847074604483A4601A988
:1042F000C36809A09847304611B0F0BD0C9B000878
:1043000041542B43495041503D222573220D0A0050
:104310004F4B0000C09D000852756E20434D443A3B
:10432000257352756E20726573756C743A25730A25
:104330000A000000F0B5A1B006460D464FF4FA633E
:104340003BA23CA13046FFF70DFF04463B48816984
:104350002046884707463A483A463AA1C3683AA0F9
:104360009847012C10D03F48416B304688474FF4A6
:10437000FA632FA22FA13046FFF7F4FE0446012C6A
:1043800002D0204621B0F0BD2D482A4636A103694F
:1043900001A898474FF4FA6325A201A93046FFF718
:1043A000E1FE04462548816920468847074624489F
:1043B0003A4601A9C36830A09847012C01D0204695
:1043C000E0E74FF4FA5333A234A13046FFF7CAFEB8
:1043D00004461A48816920468847074618483A46E5
:1043E00031A1C36818A09847012C01D02046C9E725
:1043F000134800222EA1036901A898474FF4FA63DD
:104400000BA201A93046FFF7ADFE04460B488169B7
:104410002046884707460A483A4601A9C36816A0BD
:104420009847012C01D02046ACE72046AAE70000BF
:104430004F4B000041540D0A00000000C09D0008D1
:104440000C9B00084154000052756E20434D443AC5
:1044500025730A52756E20726573756C743A2573F4
:104460000A0A00000CA7000841542B43574D4F4443
:10447000453D25640D0A000052756E20434D443AB7
:10448000257352756E20726573756C743A25730AC4
:104490000A000000726561647900000041542B52EB
:1044A00053540D0A0000000041542B525354000095
:1044B00041542B4349504D55583D25640D0A000089
:1044C00070B504464FF4FA530AA20BA12046FFF739
:1044D00049FE05460C4881692846884706460B4830
:1044E000324605A1C3680AA09847012084F86506F2
:1044F000284670BD3E00000041542B4349505345AF
:104500004E440D0A00000000C09D00080C9B0008EE
:1045100052756E20434D443A257352756E20726574
:1045200073756C743A25730A0A00000010B50446CE
:104530004FF4FA53002207A12046FFF713FE064866
:1045400004A1C26805A09047002084F865060120F8
:1045500010BD00002B2B2B000C9B000852756E2009
:10456000434D443A25730A0A000000002DE9F0414A
:104570008AB00646344694F86006012802D10AB093
:10458000BDE8F08194F8650628B95148C168204615
:104590008847092808DD94F86506012805D14C48AC
:1045A000C1682046884700B9E9E7002794F8650606
:1045B000012805D14648C16820468847054659E08C
:1045C0004FF000084FF4FA7042A31E2202A9009097
:1045D0002046FFF7F5FC054605B9D0E794F86106DB
:1045E000012800D017E04FF4FA703BA31E2202A965
:1045F00000902046FFF7E4FC054635B1022D04DCAF
:104600009DF808003038042800DDB8E79DF8080060
:104610003038C7B200E000274FF4FA702FA31E22F3
:1046200002A900902046FFF7CBFC05460DB1062DF0
:1046300000DDA4E72A48016902A8884785B2002D59
:1046400003DD40F2DC50854200DB98E70BE02548B3
:10465000C1680120884708F101001FFA80F8B8F509
:10466000FA6F00DD8BE71A48C16820468847A842E8
:10467000EDDB00BF16482A4604F266710369204646
:104680009847A84200D07AE7002104F266704155AD
:1046900094F8610670B904F5C96050F8270000B9B4
:1046A0006DE704F5C96050F82720294604F26670CA
:1046B00090470AE0D4F85C0600B960E72A4604F2A5
:1046C00066713846D4F85C36984700BF00BF56E79D
:1046D0004C9E00082B4950442C0000003A0000007A
:1046E0002C9B0008C09D000810B5044603E00D484F
:1046F000C16800208847A07A0128F8D00120A07264
:1047000003E00848C16800208847E07A0128F8D013
:104710000120E0720020E080012020810020E07272
:10472000A07210BDC09D000801460020CA880B89F8
:104730009A4205DA0A89CB88D21A521E90B206E054
:104740008A88CB88D21A521E0B891A4490B27047BD
:1047500001460020CA880B899A4205DDCA880B8968
:10476000D21A521E90B20EE0CA882AB98A880B89E2
:10477000D21A521E90B206E08A880B89D21A521EB3
:10478000CB881A4490B270470146C87A704700211E
:10479000C1800121018100218172C17270470146EF
:1047A0000889CA88801A012806D0CA888888401ECD
:1047B000824203D1088908B9012070470020FCE734
:1047C0002DE9F04104460E461746002503E0204837
:1047D000C16800208847A07A0128F8D00120A07283
:1047E00023E0E0882189884205DAE1882089401E9B
:1047F000814208D126E0E188A088401E814202D192
:10480000208900B91EE0E088401CE080E088A18893
:10481000884201D10020E080E1882068405C70552A
:10482000681C85B2BD4200DB0CE0E1882089401E97
:10483000814207D0E188A088401E8142D1D12089E1
:104840000028CED100BF0020A0722846BDE8F0812C
:10485000C09D00082DE9F04104460E46174600258C
:1048600003E01A48C16800208847E07A0128F8D0A0
:104870000120E07223E02089E188884205DA21895D
:10488000E088401E814208D11AE02189A088401E9C
:10489000814202D1E08800B912E0705D228921686E
:1048A0008854681C85B22089401C20812089A188F9
:1048B000884201D100202081BD4200DB00E0DAE720
:1048C00000BF0020E0722846BDE8F081C09D0008CE
:1048D00010B50446A189A068FCF7F8FA10BD0000E5
:1048E00070B504462046FDF777FE05462A46362178
:1048F0000FA003F0ABFC2178C1F30312042101FAED
:1049000002F00121FCF778FB2078C0F30310164970
:1049100051F82000A060207800F00F0101208840AD
:10492000A0812179204600F029F8012070BD000007
:104930002E2E5C2E2E5C2E2E5C2E2E5C54656D7001
:104940006C6174654C69625C53544D33324631304E
:1049500033585C5374616E646172644C69625C4389
:10496000654770696F2E630040000020818982686E
:10497000516170478189826811617047F8B50446BA
:104980000D462046FDF728FE06463246692109A05D
:1049900003F05CFC2571A089ADF8000003208DF8C0
:1049A000020020798DF803006946A068FCF7BAF987
:1049B000F8BD00002E2E5C2E2E5C2E2E5C2E2E5C62
:1049C00054656D706C6174654C69625C53544D3311
:1049D0003246313033585C5374616E646172644C9A
:1049E00069625C43654770696F2E630070B5044669
:1049F0002046FDF707FE05462A464FF4C77104A07E
:104A000003F024FCA18A2069FCF760FA70BD000065
:104A10002E2E5C2E2E5C2E2E5C2E2E5C54656D7020
:104A20006C6174654C69625C53544D33324631306D
:104A300033585C5374616E646172644C69625C43A8
:104A400065496E742E630000F8B5044604F117053D
:104A50002046FDF7D7FD06463246FF214AA003F067
:104A6000F5FB207800F00F010120884080B2ADF8FE
:104A700000002078C0F30310514951F82000206154
:104A8000207800F00F0101208840E061207800F0DC
:104A90000F004C4941F820402078C0F303104A49E8
:104AA00001EB0010217801F00F01405C00116870EB
:104AB0002078C0F30310444901EB0010217801F085
:104AC0000F01405C00F00F00A870207800F00F008C
:104AD000042805D8207800F00F00801D287009E018
:104AE000207800F00F00092802D81720287001E074
:104AF00028202870207910B1012808D103E00C216A
:104B000084F8211005E0082184F8211001E0042038
:104B1000F8BD00BFBDF80010A1820021A175217869
:104B2000C1F30312042101FA02F00121FCF764FA37
:104B300001210846FCF760FA03208DF802000420EA
:104B40008DF8030069462069FCF7ECF8227802F042
:104B50000F01C2F30310FCF7C5F8002184F8201000
:104B6000012184F8221004F11C00FCF771F8A08ADE
:104B7000FCF754F80020E8702846FCF7B5F9E06926
:104B8000FCF752F80120C3E72E2E5C2E2E5C2E2E51
:104B90005C2E2E5C54656D706C6174654C69625C52
:104BA00053544D333246313033585C5374616E6424
:104BB0006172644C69625C4365496E742E630000E7
:104BC0005C000020F4020020949B00082DE9F041D5
:104BD00005460E4600242846FDF714FD07463A46D2
:104BE0004FF4A17109A003F031FB36B9154C0C3418
:104BF0002068E9690843206005E0124C0834206809
:104C0000E96908432060BDE8F08100002E2E5C2E8B
:104C10002E5C2E2E5C2E2E5C54656D706C6174655E
:104C20004C69625C53544D333246313033585C53D7
:104C300074616E646172644C69625C4365496E7450
:104C40002E6300000004014070B504462046FDF7C5
:104C5000D9FC05462A464FF4AE7107A003F0F6FAD8
:104C60000121A175A08AFBF7D9FF0121A17604F1EA
:104C70001700FCF739F970BD2E2E5C2E2E5C2E2EFF
:104C80005C2E2E5C54656D706C6174654C69625C61
:104C900053544D333246313033585C5374616E6433
:104CA0006172644C69625C4365496E742E630000F6
:104CB00070B504462046FDF7A5FC05462A464FF48C
:104CC000B67124A003F0C2FA0021A175A08A1028B1
:104CD00018DDA08AB0F5007F14DC2C484069807D87
:104CE00078B92A488069807D58B92848C069807D94
:104CF00038B92648006A807D18B92448406A807D0A
:104D0000E8B170BDA08AB0F5806F18DB1F48806ADB
:104D1000807D98B91D48C06A807D78B91B48006BBA
:104D2000807D58B91948406B807D38B91748806B31
:104D3000807D18B91548C06B807D00B1E1E7002186
:104D4000A17604F11700FCF7CFF8A08AFBF766FF05
:104D500000BFD6E72E2E5C2E2E5C2E2E5C2E2E5CF7
:104D600054656D706C6174654C69625C53544D336D
:104D70003246313033585C5374616E646172644CF6
:104D800069625C4365496E742E630000F402002082
:104D90002DE9F04F85B081460C469246142222A19F
:104DA0006846FBF7CAFA0026BAF10A0F09D1B9F131
:104DB000000F06DAC9F100072D223046761C225476
:104DC00000E04F4600BFB7FBFAF00AFB10701DF879
:104DD00000203046761C2254B7FBFAF7002FF2D1A0
:104DE0000020A05520782D2802D14FF0010801E0C5
:104DF0004FF0000845460CE014F805B0701E404422
:104E0000401B205C6055701E4044401B04F800B0FD
:104E10006D1C701E00EBD071B5EB610FECDD204610
:104E200005B0BDE8F08F000030313233343536370D
:104E30003839414243444546000000002DE9F04125
:104E4000044600250026002700BF0FE019484168EE
:104E50002046884705441748416804F10C008847FC
:104E600006441548C168012088477F1C0A2FEDDBE6
:104E70000A21B5FBF1F109B24FF4FA6201FB02F02D
:104E8000C11700EB11510913A1F57A7109B2A4F809
:104E900044100A21B6FBF1F109B201FB02F0C1177F
:104EA00000EB11510913A1F57A710AB246210A5398
:104EB000BDE8F081F49A0008C09D00082DE9F04794
:104EC00004464FF00008C1463048416820468847F4
:104ED00006462E48416804F10C0088470746B4F99D
:104EE0004410891B4FF4FA6201FB02F0C11700EB7A
:104EF00011510E13B4F94610791A01FB02F0C117D3
:104F000000EB11510F13002516E004F12800691C75
:104F100050F8211040F825100C30691C50F8211071
:104F200040F825100C3850F82500804404F1340076
:104F300050F8250081446D1C022DE6DB2663E763F3
:104F4000B044B944032098FBF0F699FBF0F7B6F5AE
:104F50007A7F02DD4FF47A7603E016F57A7F00DA85
:104F60000B4EB7F57A7F02DD4FF47A7703E017F541
:104F70007A7F00DA064F30B2A4F8400039B24220FE
:104F8000015304F14000BDE8F0870000F49A0008E6
:104F900018FCFFFF10B504460448C16804F118006E
:104FA000884708B9012010BD0020FCE7809B00085D
:104FB0002DE9F04704460F4690469946002500200B
:104FC000A4F84000002142200153E760284801680E
:104FD00004F10C008847C4F8008025480168204689
:104FE0008847C4F81890042121772248016804F109
:104FF00018008847002609E01D4841682046884778
:1050000005441D48C16802208847761C202EF3DB2A
:105010002846E91705EBD161491109B2A4F84410FB
:10502000002500260AE01248416804F10C00884778
:1050300005441148C16802208847761C202EF2DB07
:105040002846E91705EBD16149110AB246210A53F6
:10505000002608E0002104F1280040F826100C305A
:1050600040F82610761C032EF4DB0120BDE8F08703
:10507000F49A0008809B0008C09D000870B50546A2
:105080002C4694F8550038BB94F8540001280ED1F2
:10509000216D606B01446163D4E90C01814215D339
:1050A000206B401E6063002084F854000EE0206DE9
:1050B0000E30616B814205D20E216163012084F8BC
:1050C000540003E0216D606B411A61631A488168E6
:1050D00004F12C0088472EE094F85600012814D1E2
:1050E000B4F858106069814207D1B4F85A10616170
:1050F00012488168204688471DE0B4F85810616165
:105100000E4841682046884715E0B4F85810606999
:10511000814208D1B4F85A1061610748416904F12D
:105120002C00884707E0B4F8581061610248016913
:1051300004F12C00884770BD789C0008809B000813
:1051400070B504460D46012084F8560025601020F5
:1051500020710A480168204688470848816820462F
:10516000884725614FF47A716161A4610449E16166
:105170000448016804F11000884770BD809B000856
:105180007D500008009E000870B504460D460020C2
:1051900084F85600E5620E492163206B4108616383
:1051A0000C48016804F12C0088470A48416904F161
:1051B0002C00884725614FF47A716161A46106492A
:1051C000E1610648016804F11000884770BD0000E5
:1051D000808D5B00789C00087D500008009E0008D0
:1051E00070B504460D4694F85600012804D11048C5
:1051F000C16810A0884770BD002084F855000120C8
:1052000084F85400322095FBF0F0401C216BB1FB78
:10521000F0F02065142161611048416804F110002C
:1052200088470F48416804F12C00884700BFE2E737
:105230000C9B000843616E206E6F742073657420B0
:105240006272656174682069732047696F702072AB
:1052500065736F75726365210A000000009E000887
:10526000789C000870B504460E461546012084F867
:105270005500A4F85860A4F85A5065610248416886
:1052800004F11000884770BD009E000810B5044668
:1052900094F85600012809D10C48816804F11000E7
:1052A00088470B488168204688470EE00748816898
:1052B00004F1100088470748C16804F12C008847B2
:1052C0000448416904F12C00884710BD009E000885
:1052D000809B0008789C000810B5044694F856009E
:1052E000012809D10C48816804F1100088470B4857
:1052F0004168204688470EE00748816804F11000A5
:1053000088470748C16804F12C00884704480169B0
:1053100004F12C00884710BD009E0008809B000807
:10532000789C00087FB5054613A103C9CDE90201A9
:105330000020009001900024052302AA3021284675
:1053400000F026FA05236A461021284600F082F86C
:1053500000BF0CE002A8005D1DF80410884204D0D4
:10536000042C02D1042004B070BD601CC4B2052C12
:10537000F0DB0120F7E70000C2C3C4C5C60000008F
:105380002DE9F04104460D4616461F46002084F8DC
:105390001C0160662560052020710120A0716071EC
:1053A0001A480168204688471848416820468847BF
:1053B00026631021342001551548016804F130009E
:1053C00088471348816804F13000884727641149F1
:1053D000E164002144200155A4640F48016804F1F0
:1053E000400088470C48816804F1400088470A481B
:1053F000C16804F1400088470748816804F1400013
:1054000088472046FFF78EFFBDE8F081909C00089A
:10541000809B00081D540008049C000870B50646D7
:1054200000243546284600F06EF844B2012C0FDB0C
:10543000072C0DDA601E44B205F1640050F8240018
:1054400030B105F1640050F8242020213630904717
:1054500070BD00002DE9F0470746884615461E46F8
:105460000E484169384688470C484146C26838466C
:1054700090478146002407E00848FF21C26838466B
:1054800090472855601CC4B2B442F5DB034801695B
:10549000384688474846BDE8F0870000909C0008E1
:1054A00070B504460D460A484169204688470848B9
:1054B0002946C2682046904705480021C268204618
:1054C000904706460248016920468847304670BD2D
:1054D000909C00082DE9F04104460D4617461E46F3
:1054E000052D02DD1120BDE8F081012084F81C01AA
:1054F00004F1640040F825603A462946204600F051
:1055000037F80120EFE770B505460024072128464B
:10551000FFF7C6FF044622462721284600F05EF921
:1055200004F0400048B1202305F19A026121284689
:10553000FFF790FFC4F34200441C204670BD2DE9E4
:10554000F04104460D4616461F4694F81C010228F9
:1055500002D0022084F81C012A462946204600F089
:1055600065F820223146204600F0B0F8BDE8F08111
:1055700070B505460C4616462B48816805F130008B
:10558000884708222021284600F028F9FF22E2213E
:10559000284600F023F9052332463021284600F042
:1055A000F7F8012C08DC04F12A00C1B205233246C9
:1055B000284600F0EDF80DE0052332462B21284661
:1055C00000F0E6F804F12A00C1B201233246284671
:1055D00000F0DEF83F20A040C2B22121284600F0B2
:1055E000FDF83F20A040C2B22221284600F0F6F884
:1055F00028222521284600F0F1F804F13100C1B23B
:105600002022284600F0EAF80F222621284600F042
:10561000E5F80F222021284600F0E0F80248416812
:1056200005F13000884770BD809B000870B50446C6
:105630000D4616462348816804F130008847082249
:105640002021204600F0CAF8FF22E121204600F088
:10565000C5F8052332463021204600F099F805238D
:105660002A462A21204600F093F83F222121204695
:1056700000F0B4F83F222221204600F0AFF81A22B1
:105680002421204600F0AAF828222521204600F0F7
:10569000A5F820223121204600F0A0F80F22262173
:1056A000204600F09BF80E222021204600F096F8BC
:1056B0000448416804F13000884703488168142099
:1056C000884770BD809B0008C09D00082DE9F0410F
:1056D00004460E46904600272A48C16804F140005F
:1056E00088472948816804F1300088472748816845
:1056F0000520884720233246A021204600F048F8A4
:105700000E222021204600F069F81F48416804F16C
:10571000300088471D4881681420884708E0781CBD
:10572000C7B21A48C168012088470A2F00DB06E08B
:105730001448016904F1400088470128EFD000BFF8
:1057400007212046FFF7ACFE05462A4627212046C2
:1057500000F044F80B48816804F14000884705F0E8
:10576000100038B1FF22E121204600F037F8002078
:10577000BDE8F08105F0200008B10120F8E7002025
:10578000F6E70000049C0008809B0008C09D00080C
:105790002DE9F0470746884614461D460E484169E4
:1057A000384688470C484146C2683846904781468B
:1057B000002607E021780848C26838469047641CF4
:1057C000701CC6B2AE42F5DB034801693846884713
:1057D0004846BDE8F0870000909C00082DE9F041A4
:1057E00005460E4614460B48416928468847094835
:1057F0003146C26828469047074606482146C26897
:105800002846904703480169284688473846BDE83E
:10581000F0810000909C00082DE9F04104460B48FF
:10582000416820468847064603F0E6FF05460849DA
:10583000284603F007FF0746064904F025F8064608
:10584000054904F021F8BDE8F0810000F49A000851
:1058500000F07F45333353400000204170B50446CB
:105860000D4625600248016820468847012070BD2A
:10587000F49A00082DE9F04305460B461446002231
:10588000002794462E4690464FEAE47904EBD96906
:105890004FEA6919A4EB4919B9F1000F02D00020B1
:1058A000BDE8F08300216CE0002000EB4110185CA3
:1058B000552805D11F2000EB4110185CFE2801D0AF
:1058C0000020EDE74FF000084A0104E0985C4044F6
:1058D00000F0FF08521C202000EB4110801E904277
:1058E000F4DC202000EB4110801E185C404501D004
:1058F0000020D5E7012000EB41101F5C052F00D3ED
:1059000046E0C7EBC7094FEA89004FEAE07900EBB0
:1059100099794FEAA90905EB8906C7EBC7094FEA50
:1059200089004FEAE07900EB99794FEAA90C02204F
:1059300000EB41121DE0BCF11D0F00D91FE005F185
:105940007800864200D31AE0D01C185C4FEA006948
:10595000901C185C49EA0049501C185C49EA002078
:1059600013F8029040EA09003060361D0CF1010C7A
:10597000121D202000EB4110801E9042DBDC00BF96
:10598000491C4FEAE47904EBD969B1EB691F8BDB61
:1059900000BF012084E70000F0B50446234600253F
:1059A0000026002160E05520002707EB4117DFF8B3
:1059B000C0C00CF80700012707EB41170CF80710CF
:1059C00001F15500C6B202223BE01E2D00D33AE0A1
:1059D000187802EB4117DFF898C00CF80700188818
:1059E000C0F30727501C00EB41100CF8007018683A
:1059F000C0F30747901C00EB41100CF800701868CA
:105A0000070ED01C00EB41100CF800701B1D6D1C24
:105A100002EB41106746385C8719501C00EB4110BF
:105A20001CF800000744901C00EB41101CF800001B
:105A30000744D01C00EB41101CF800003844C6B2EB
:105A4000121D1E2AC1DB00BF202000EB4110801E6A
:105A5000074F3E54FE27202000EB4110401EDFF888
:105A600010C00CF80070491C01299CDB0048F0BDF7
:105A7000D809002001460B46002203E000201860F0
:105A80001B1D521C1E2AF9D30120704710B5024677
:105A90001346002103E0002018601B1D491C1E292D
:105AA000F9D3002103E00020034C6054491CA029D5
:105AB000F9D3012010BD0000D8090020F0B587B04F
:105AC00004460025002660680E2802D20E20606081
:105AD00005E057496068884201D908466060A068BF
