:020000040800F2
:10000000A85800200D020008150200081702000879
:10001000190200081B0200081D0200080000000071
:100020000000000000000000000000001F020008A7
:1000300021020008000000008F02000819230008B8
:1000400027020008270200082702000827020008EC
:1000500027020008270200087D080008B1090008EF
:10006000DD090008090A0008350A00080D05000826
:1000700011050008270200083D05000827020008B6
:10008000270200086D050008270200082702000863
:10009000270200082702000827020008610A00085A
:1000A00027020008A12300082702000827020008F1
:1000B000D92300081D240008552400082702000841
:1000C000270200082702000827020008270200086C
:1000D0002702000881290008F1290008612A000888
:1000E000A9080008270200082702000827020008C4
:1000F000352500082702000827020008270200080B
:1001000027020008270200088D24000827020008A3
:1001100041280008E1280008C5240008FD24000843
:1001200027020008270200089D0500080D060008A8
:1001300000F002F800F05AF80AA090E8000C82449F
:100140008344AAF10107DA4501D100F04FF8AFF27C
:10015000090EBAE80F0013F0010F18BFFB1A43F0A5
:100160000103184768550000885500000A444FF005
:10017000000C10F8013B13F0070408BF10F8014B06
:100180001D1108BF10F8015B641E05D010F8016B4B
:10019000641E01F8016BF9D113F0080F1EBF10F8AF
:1001A000014BAD1C0C1B09D16D1E58BF01F801CBD2
:1001B000FAD505E014F8016B01F8016B6D1EF9D555
:1001C0009142D6D37047000000230024002500266A
:1001D000103A28BF78C1FBD8520728BF30C148BFAA
:1001E0000B6070471FB51FBD10B510BD00F02CF996
:1001F0001146FFF7F7FF04F025FC00F04AF903B4BD
:10020000FFF7F2FF03BC00F04FF9000009488047F8
:1002100009480047FEE7FEE7FEE7FEE7FEE7FEE7E8
:10022000FEE7FEE7FEE7FEE704480549054A064B00
:10023000704700004123000831010008A852002047
:10024000A8580020A8540020A8540020EFF31080E4
:1002500072B6704780F3108870471D484FF0FF0159
:100260000170002080F309881A48012101701A48A2
:100270004FF08051016062B6FEE717484FF08051A1
:100280000160704714484FF080510160704772B6AA
:10029000EFF3098028B1203880E8F00F0F49096892
:1002A000086000B50E4880475DF804EB0D480E4924
:1002B0000A78027009480D490A680260106890E8DF
:1002C000F00F203080F309884EF0040E62B67047BC
:1002D00022ED00E04E00002004ED00E0540000207C
:1002E000F514000843000020440000205C000020BA
:1002F00053EA020C00F069802DE9F04B4FF0000644
:10030000002B1FBFB3FA83F503FA05F424FA05F6B0
:100310005E4012BF1643B2FA82F502FA05F4C5F147
:1003200020051EBF22FA05FC44EA0C04203556EADB
:10033000044C4FEA144418BF641C4FF000084FF0FF
:100340000009904271EB030C39D3002919BFB1FAAF
:1003500081F701FA07F6B0FA80F700FA07F6C7F15D
:1003600020071EBF20FA07FC46EA0C062037B6FB22
:10037000F4FCA7EB0507103F07F01F0BCBF120069D
:100380000CFA0BFB2CFA06F644BFB3460026202FCE
:10039000A4BF5E464FF0000B5BEA060C08BF4FF0AF
:1003A000010B19EB0B09ABFB027C48EB0608C01BE9
:1003B00006FB02CC0BFB03CC71EB0C01C1E70B4637
:1003C000024641464846BDE8F08B13B54FF00000A9
:1003D0004FF00001AFF30080BDE81C40704710B53E
:1003E000203AC0F00B80B1E81850203AA0E818502D
:1003F000B1E81850A0E81850BFF4F5AF5FEA027CEE
:1004000024BFB1E81850A0E8185044BF18C918C05C
:10041000BDE810405FEA827C24BF51F8043B40F8FD
:10042000043B08BF7047D20728BF31F8023B48BFE2
:1004300011F8012B28BF20F8023B48BF00F8012B20
:100440007047704770477047754600F029F8AE4610
:1004500005006946534620F00700854618B020B5D0
:10046000FFF7E2FEBDE820404FF000064FF0000726
:100470004FF000084FF0000B21F00701AC46ACE84C
:10048000C009ACE8C009ACE8C009ACE8C0098D46B9
:1004900070470446AFF300802046FFF7B0FE00002F
:1004A000004870474852002001491820ABBEFEE7C3
:1004B000260002007047000039B1084A1268012383
:1004C00083401A43054B1A6006E0044A1268012370
:1004D00083409A43014B1A6070470000007400404B
:1004E00041B1094A12684FF4805383401A43064BC6
:1004F0001A6007E0044A12684FF4805383409A431D
:10050000014B1A6070470000007400407047000003
:1005100010B5202000F074F930B1102000F0ACF8D4
:100520000021044800F0B6F801210348806880F8F3
:100530003C1010BD1C000240EC2B002010B54FF405
:10054000005000F05DF938B14FF4805000F094F89D
:100550000021044800F09EF801210348006880F85B
:100560003C1010BD44000240EC2B002010B54FF0B1
:10057000007000F045F938B14FF0807000F07CF861
:100580000021044800F086F801210348406880F803
:100590003C1010BD80000240EC2B002010B5164826
:1005A00000F02EF930B3154800F066F80021144829
:1005B00001F0DFFF0021134800F06CF8002108462D
:1005C000FFF78EFF002202210E4800F02FF90021D4
:1005D0000846FFF771FF01200B49096808740A48B3
:1005E0000068C06830B1084A12689068064A12680C
:1005F000D168884710BD0000000200100001001003
:1006000000100040300402409000002010B5164851
:1006100000F0F6F830B30021144801F0AAFF1248A8
:1006200000F02AF80021124800F034F800211020D0
:10063000FFF756FF002202210D4800F0F7F80021D5
:100640001020FFF739FF01200A494968087409485A
:100650004068C06830B1074A52689068054A5268DD
:10066000D168884710BD0000002000100014004031
:10067000440402409000002000F0805111B1034971
:10068000086001E00249486070470000040402402D
:100690000000024021B1026842F00102026004E061
:1006A00002684FF6FE731A400260704701684FF609
:1006B000FE72114001600021016041608160C160F3
:1006C0004B49884208D14A490839496841F00F012D
:1006D000474A083A51608AE045491431884208D1B6
:1006E00043490839496841F0F001414A083A5160EC
:1006F0007DE03F492831884208D13D4908394968A1
:1007000041F470613A4A083A516070E038493C312E
:10071000884208D136490839496841F47041344A61
:10072000083A516063E032495031884208D130497B
:100730000839496841F470212D4A083A516056E061
:100740002B496431884208D129490839496841F464
:100750007001274A083A516049E0254978318842BA
:1007600008D123490839496841F07061204A083AA4
:1007700051603CE01F49884206D1011F096841F0E1
:100780000F01021F116032E01A491431884208D16A
:100790001849091F096841F0F001164A121F11603B
:1007A00025E014492831884208D11249091F0968F7
:1007B00041F470610F4A121F116018E00D493C317D
:1007C000884208D10B49091F096841F47041094A60
:1007D000121F11600BE007495031884207D10549CB
:1007E000091F096841F47021024A121F1160704705
:1007F00008000240080402400146486880B2704781
:1008000001460020002201F0805313B1054B1A6805
:1008100001E0054B1A6802EA01030BB1012000E078
:100820000020704700040240000002401AB1036833
:100830000B43036002E003688B430360704710B50D
:100840000022026847F6F0739A430C6A8B682343D0
:100850000C6923434C6923438C692343CC692343AC
:100860004C6A23438C6A23431A430260CB6843607B
:100870000B6883604B68C36010BD000010B5012099
:1008800000F05CF968B1012000F052F905480068F9
:10089000807D30B1034A12689068024A1268D168BC
:1008A000884710BD202B002010B54FF4806000F069
:1008B00045F980B14FF4806000F03AF93B48806A16
:1008C000807D002871D0394A926A9068374A926ACE
:1008D000D168884769E04FF4006000F02FF980B1DB
:1008E0004FF4006000F024F93048C06A807D002891
:1008F0005BD02E4AD26A90682C4AD26AD168884767
:1009000053E04FF4805000F019F980B14FF480505B
:1009100000F00EF92548006B807D002845D0234A61
:10092000126B9068214A126BD16888473DE04FF402
:10093000005000F003F978B14FF4005000F0F8F8DF
:100940001A48406B807D80B3184A526B9068174AF2
:10095000526BD168884728E04FF4804000F0EEF8F1
:1009600078B14FF4804000F0E3F81048806B807D50
:10097000D8B10E4A926B90680C4A926BD168884746
:1009800013E04FF4004000F0D9F870B14FF400408C
:1009900000F0CEF80548C06B807D30B1034AD26BC1
:1009A0009068024AD26BD168884710BD202B002086
:1009B00010B5022000F0C2F868B1022000F0B8F8CB
:1009C00005484068807D30B1034A52689068024A09
:1009D0005268D168884710BD202B002010B5042034
:1009E00000F0ACF868B1042000F0A2F80548806877
:1009F000807D30B1034A92689068024A9268D1685B
:100A0000884710BD202B002010B5082000F096F874
:100A100068B1082000F08CF80548C068807D30B1CE
:100A2000034AD2689068024AD268D168884710BDEC
:100A3000202B002010B5102000F080F868B11020A5
:100A400000F076F805480069807D30B1034A1269EC
:100A50009068024A1269D168884710BD202B002097
:100A600010B5202000F06AF878B1202000F060F87E
:100A70002E484069807D002857D02C4A52699068E2
:100A80002A4A5269D16888474FE0402000F056F862
:100A900078B1402000F04CF824488069807D00281F
:100AA00043D0224A92699068204A9269D168884767
:100AB0003BE0802000F042F870B1802000F038F870
:100AC0001A48C069807D80B3184AD2699068174A75
:100AD000D269D168884728E04FF4807000F02EF882
:100AE00078B14FF4807000F023F81048006A807DE0
:100AF000D8B10E4A126A90680C4A126AD1688847C7
:100B000013E04FF4007000F019F870B14FF400706A
:100B100000F00EF80548406A807D30B1034A526A01
:100B20009068024A526AD168884710BD202B002085
:100B3000014908607047000014040140014600208C
:100B4000034A12680A400AB1012000E00020704701
:100B5000140401402DE9F041024600250026002042
:100B600000230024002791F803C00CF00F0591F832
:100B700003C00CF0100CBCF1000F03D091F802C0C0
:100B80004CEA050591F800C0BCF1000F31D01468A3
:100B900000202BE04FF0010C0CFA00F3B1F800C07C
:100BA0000CEA03069E4220D183004FF00F0C0CFA92
:100BB00003F7BC4305FA03FC4CEA040491F803C0B4
:100BC000BCF1280F06D14FF0010C0CFA00FCC2F862
:100BD00014C00AE091F803C0BCF1480F05D14FF0F2
:100BE000010C0CFA00FCC2F810C0401C0828D1D33C
:100BF0001460B1F800C0BCF1FF0F34DD5468002070
:100C00002EE000F1080C4FF0010808FA0CF3B1F8DF
:100C100000C00CEA03069E4221D183004FF00F0C66
:100C20000CFA03F7BC4305FA03FC4CEA040491F800
:100C300003C0BCF1280F05D100F1080C08FA0CF82C
:100C4000C2F8148091F803C0BCF1480F07D100F13D
:100C5000080C4FF0010808FA0CF8C2F81080401C8C
:100C60000828CED35460BDE8F081000070B50021A3
:100C700000230F22C47804B3154C246804F4E06404
:100C8000C4F5E064210AC1F10403CA40447804FABF
:100C900003F184781440214309010E4C0678A155D4
:100CA000047804F01F050124AC4005786D11AD00F7
:100CB00005F1E025C5F8004109E0047804F01F05BE
:100CC0000124AC40044D0678761145F8264070BDED
:100CD0000CED00E000E400E080E100E002490143A7
:100CE000024A1160704700000000FA050CED00E0B8
:100CF000024A0A400243024B1A60704780FFFF1FFE
:100D000008ED00E0174818481848194819481A48CB
:100D10001A481B481B481C481C481D481D481E48B3
:100D20001E481F481F482048204821482148224883
:100D30002248234823482448244825482548264853
:100D400026482748274828482848294829482A4823
:100D50002A482B482B482C482C482D482D4800BFAA
:100D600070470000CC530008D0530008D45300084B
:100D7000D6530008D8530008DA530008DC530008A3
:100D8000DE530008E0530008E2530008E453000873
:100D9000E6530008E8530008EA530008EC53000843
:100DA000EE530008F0530008F2530008F453000813
:100DB000F6530008F8530008FA530008FC530008E3
:100DC000FE530008005400080254000804540008B0
:100DD00006540008085400080A5400080C5400087F
:100DE0000E5400081054000812540008145400084F
:100DF00016540008185400081A5400081C5400081F
:100E00001E540008205400082254000824540008EE
:100E100026540008285400082DE9F04105460E46E6
:100E200014464FF000080CB9BDE8F08115B9042054
:100E30002070F9E716B90C202070F5E71948007802
:100E4000002802DD12202070EEE72878012808D063
:100E5000022807D0032802D0042804D100E000BFF4
:100E600000BF00BF02E001202070DDE700BFFFF7F8
:100E7000EDF98046304601F005F807460F2F05DDF5
:100E80004046FFF7E7F90B202070CDE7314605F12A
:100E9000130000F0E9FF4046FFF7DCF90020207066
:100EA00000BFC1E74100002010B500F019F800F0C4
:100EB0006DFE00F095FE00F0B7FE00F03FFE00F082
:100EC00017FE00F03FFF00F063FF00F0E1FE00F0CE
:100ED00007FF00F0E9FB00F009F8FFF713FF10BD72
:100EE00000200149088070478800002070470000FA
:100EF00010B500241A480078012830D1FFF7A6F970
:100F0000044618480078002804DD16480078401E82
:100F10001449087013480078F0B913480078D8B91C
:100F200000F08CFF1148007811490978884213D0ED
:100F300010480E49097850F821000F49086008460A
:100F40000068806B401C096888630C480068401C7E
:100F50000A490860FFF796F92046FFF77BF910BDB4
:100F60004E000020410000204200002044000020EC
:100F700043000020240700205C00002028000020FF
:100F800070B50546002612480078002801DD0020D3
:100F900070BDFFF75BF906460E480468006820B193
:100FA0000C48006840680B4908603046FFF752F96A
:100FB0005CB1032020702581002060603F20E07438
:100FC00000212175204600F085FD2046E0E7000065
:100FD000410000202C0000202DE9F04105460E467E
:100FE000144600270CB9BDE8F08115B90420207023
:100FF000F9E72878032802D001202070F3E734486D
:101000000078002802DD02202070ECE731480078EB
:10101000002802DD0D202070E5E7FFF717F90746ED
:101020002889002808DD2889401E28813846FFF7D6
:1010300011F900202070D6E72748006890F83000AA
:1010400040F001002449096881F83000002022495D
:10105000096881F8310020480068C685284600F0FC
:10106000FBFC3846FFF7F6F800F0AEFEFFF7EEF8AF
:1010700007461948006890F8310020B1012809D0CE
:10108000022806D102E0002020700BE00E20207024
:1010900008E000BF29461048006800F0ABFC0A20B9
:1010A000207000BF00BF00200B49096881F83000A4
:1010B0000949096881F8310007490968C86106498A
:1010C000096808623846FFF7C5F800BF8BE70000E3
:1010D00041000020420000205400002070B504466A
:1010E00000250CB9042070BD2078032801D0012010
:1010F000F9E7FFF7ABF80546A07A60B100230122BB
:101100001946204600F02EFC2846FFF7A3F800F011
:101110005BFE0020E7E720894FF6FF71884207D287
:101120002089401C20812846FFF794F80020DAE748
:101130002846FFF78FF83220D5E7000010B50B489E
:10114000007890B900F07AFE0948007809490870E3
:1011500009480749097850F82100084908600846FD
:10116000006807490860FFF778F810BD4E000020BE
:101170004400002043000020240700205C000020E1
:1011800054000020704700002DE9F04F85B08146E3
:101190008A4693461C46DDE90F78129D0020039095
:1011A0003F2C03DD2A2005B0BDE8F08FFFF74EF895
:1011B000039022480078002804DD0398FFF74AF8DE
:1011C0003C20F0E71E4850F8240088BB01201C4951
:1011D00041F824000398FFF73DF82A464146384677
:1011E00000F05EFF2B465A465146484600F0D6F8BE
:1011F00004901198CDE9008002953A4620460E9B56
:10120000049900F049FE064636B90E4800780128D8
:101210000CD100F0D9FD09E0FFF718F80390002089
:10122000074941F824000398FFF714F83046BAE75D
:10123000FFE70398FFF70EF82820B4E741000020ED
:10124000240700204E000020704770472DE9F0472A
:1012500005460F4614464FF000090CB9BDE8F0876B
:101260003F2D04DDFF2D02D02A202070F6E717B9AC
:101270000C202070F2E71D480078002802DD1220C3
:101280002070EBE7FEF7E2FF8146FF2D03D11848FF
:10129000006890F83250174850F825602EB948463B
:1012A000FEF7D8FF43202070D8E7012E05D148462D
:1012B000FEF7D0FF43202070D0E7384600F0E2FD73
:1012C0008046B8F11F0F05DD4846FEF7C3FF4120F9
:1012D0002070C3E7394606F14C0000F0C5FD4846D2
:1012E000FEF7B8FF0020207000BFB7E741000020E4
:1012F0005400002024070020704700002DE9F0472B
:1013000006460C464FF0000A3F2E04DDFF2E02D0A9
:101310002A20BDE8F0870CB90920FAE700202060F8
:101320006060FEF793FF8246FF2E03D119480068E4
:1013300090F83260184850F8265025B95046FEF70C
:1013400089FF4320E5E7012D04D15046FEF782FFD7
:101350004320DEE7287C00F0010020B95046FEF76C
:1013600079FF4520D5E70027D5F80C90D5F80880FF
:101370005046FEF76FFF00E07F1C58F8041B002961
:10138000FAD0B8002060A9EB070080006060002060
:10139000BFE70000540000202407002070B5044679
:1013A00010464FF080750560051F28462C606FF0D1
:1013B0000106051F28462E604FF01236051F2846ED
:1013C0002E604FF00336051F28462E604FF0023680
:1013D000051F28462E607610051F28462E60051F23
:1013E000284629604FF01136051F28462E604FF021
:1013F0001036051F28462E604FF00936051F284677
:101400002E604FF00836051F28462E604FF0073635
:10141000051F28462E604FF00636051F28462E6011
:101420004FF00536051F28462E604FF00436051F85
:1014300028462E6070BD00002DE9F04105464FF0B2
:1014400000083F2D02D14720BDE8F0813F2D03DB8E
:10145000FF2D01D02A20F7E7FEF7F8FE8046FF2D8A
:1014600005D12048006890F83250012608E01D4858
:10147000006890F83200A84201D1012600E0002661
:10148000194850F8254024B94046FEF7E3FE4820AD
:10149000DAE7012C04D14046FEF7DCFE4320D3E717
:1014A00094F834701148C05D94F8351088430F49A2
:1014B000C8550846C05D30B994F836100C4800781D
:1014C00088430B49087094F8300040F0080084F815
:1014D00030004046FEF7BEFE012E01D100F074FC44
:1014E0000020B1E75400002024070020460000201F
:1014F000450000207047000070B5054600261648DC
:101500000078002800DD70BD002D23DDFEF79EFE73
:1015100006461248006890F834401148005D0F49B3
:10152000096891F8351088430D4908550846005D53
:1015300040B90A48006890F836100A480078884395
:101540000849087005480068C5853046FEF782FEE8
:1015500000F03AFC00BFD6E7410000205400002014
:10156000460000204500002070B50025FEF76EFE05
:101570000546034804682846FEF76CFE204670BD09
:101580007000002070B5002600F072F8FEF75EFED5
:10159000064631480068401C2F4908603046FEF777
:1015A00059FE2E480078012853D12D48007820B1EB
:1015B000012804D0022809D103E001250BE0002511
:1015C00009E0012501202649087004E001250020DA
:1015D0002349087000BF00BF05B970BD21480468E9
:1015E00033E0FEF733FE0646E08D50B3E08D401E3B
:1015F00080B2E08528BB94F8300000F0370040B19D
:1016000014F8300F20F03700207001206070303C5B
:1016100002E0002084F8310094F8300000F0080067
:1016200078B93434A0781049097808430E49087015
:1016300020780E49085C6178084314F834190B4A85
:10164000505464693046FEF705FE94F832003F2896
:10165000C7D100BFC1E70000700000204E0000208D
:1016600064000020600000204500002046000020AB
:1016700010B507480088401C0549088008460088C6
:10168000642803DB0020088000F004F810BD00008F
:101690008800002010B503480068FFF71FFD0446CE
:1016A000204610BD80000020F8B54FF45071274847
:1016B00000F03EFB4021264800F03AFB234C04F1A9
:1016C000340600250FE064202070002084F83100EB
:1016D000E6603F2084F820000021212001553434A9
:1016E0003436681C85B20F2DEDDB6420207000209D
:1016F00084F83100E0603F2084F8200000212120A0
:10170000015500201349086013490880102013492F
:1017100008800E48124908600120FFF731FC11498A
:1017200008600020FFF72CFC0F4908606A460FA1F3
:101730000C480068FFF770FB6A460FA10A48006872
:10174000FFF76AFB00F01EF8F8BD00003824002007
:101750007829002078000020760000207400002006
:10176000840000207C000020800000204F532D5476
:101770006D724C6F636B00004F532D546D72536943
:101780006700000000B587B00320002180220A4BCB
:10179000CDE90132CDE903104FF6FD700423074A6D
:1017A00000900748FFF7F0FC06AA06A10420FFF707
:1017B0004DFD07B000BD00007827002074290020EF
:1017C0005518000875432F4F532D494920546D7209
:1017D0000000000070B50B46032580F83150012B46
:1017E00005D1154EC5693668354445610CE08569FB
:1017F0002DB9114EC56936683544456104E00E4E79
:101800008569366835444561057D05F007040B4D53
:1018100005EBC4010D682DB908600025C5600125E0
:101820008D8006E00A680860C26010618D886D1CBA
:101830008D800025056170BD78000020782900208A
:1018400008B56A46002102480068FFF7C5FB08BDDD
:101850007C00002008B500BF6A46002119480068D6
:10186000FFF7BAFBFFF7ECFF17480068401C16496A
:1018700008600846007800F00708144800EBC80725
:101880003C681AE0E668104960690968884213D12B
:10189000656815B12046A168A847204600F018F8F1
:1018A00094F83000022804D101212046FFF792FF6E
:1018B00002E0022084F831003446002CE2D100F02E
:1018C00029F8C9E78000002078000020782900204E
:1018D00030B5057D05F007040D4D05EBC4031D680B
:1018E000854205D1C168196039B100250D6104E058
:1018F0000169C268CA6002B11161012580F83150E6
:101900000025C56005619D886D1E9D8030BD00006D
:101910007829002010B502480068FFF7DFFB10BDF2
:101920007C0000200D4909684FF47A72B1FBF2F097
:10193000411E4FF0E0225161FF21094A11704FF022
:10194000E021096941F005014FF0E02211611146E3
:10195000096941F002011161704700001400002084
:1019600023ED00E02DE9F04F05460F4690469946DD
:10197000A87A1C490E5C05F10B00805D11F800B0DF
:101980000BEBC60000F0FF0A174850F82A40002071
:10199000243460812760207B20EA0800207384F8CB
:1019A0000D90207B243C00F0080068B994F83600C4
:1019B0000E49097808430D4908700D48805D94F878
:1019C000351008430A4988552946204600F012F888
:1019D000206A20B12046216A00F021F8E5615046D6
:1019E000BDE8F08FCC5200082407002045000020FD
:1019F0004600002010B590F8342001F10B039B5CE9
:101A000090F83540A34301F10B04A35423469B5C9B
:101A100023B98B7A90F83640A3438B7210BDF0B592
:101A2000024612F8344F95785678343A0B461868C7
:101A30000FE000F10B073F5DB74300F10B0C0CF812
:101A4000047067463F5D17B9877AAF4387721B1DE5
:101A500018680028EDD1F0BD10B51B4A1268D0619E
:101A6000194A126892F8343000F10B02D25C164B1E
:101A70001B6893F835301A43134B1B6893F83440B6
:101A800000F10B031A55827A0F4B1B6893F836301E
:101A90001A4382720C4A126892F834100B4A525C54
:101AA000094B1B6893F835309A43084B5A541A4631
:101AB000525C42B9044A126892F83630044A1278ED
:101AC0009A43034B1A7010BD5400002046000020BA
:101AD000450000200023837200F10B01002204E086
:101AE000002301F8013B531CDAB2082AF8DB7047E7
:101AF00070B58C210F4800F01BF90E4C04F11C0648
:101B000000250AE00020207066603F20A0720021BE
:101B1000E1721C341C36681C85B2042DF2DB0020F7
:101B2000207060603F20A0720021E17201480249EC
:101B3000086070BD980200203000002030B54FF4DE
:101B4000B471104800F0F4F80E4B03F124050024A2
:101B50000AE0002018705D603F20D87400211975DC
:101B600024332435601C84B2092CF2DB0020187069
:101B700058603F20D8740021197502480249086056
:101B800030BD0000300100202C00002000200A4958
:101B900008600A4908700A4908700A4908700A4929
:101BA00008700A4908600A4908600A4908600A4939
:101BB00008600A490870704770000020410000204A
:101BC000420000204F0000204E000020280000208E
:101BD000500000203C000020380000204000002081
:101BE00000220B4B1A700B49002004E0002201F880
:101BF000012B421CD0B20828F8DB0022064B1A70D9
:101C0000064B1A70064B1A60064B1A6070470000AC
:101C10004500002046000020430000204400002032
:101C20005C0000205400002030B54FF4D851144817
:101C300000F07EF84FF48071124800F079F8104BF4
:101C400003F16C0500240AE05D613F2083F84C003D
:101C500000214D20C1546C336C35601CC4B23F2C44
:101C6000F2D3002058613F2083F84C0000214D2022
:101C7000C15400200449086001480449086030BD8F
:101C800024080020240700206000002058000020C5
:101C900000B587B00320002180220A4BCDE9013234
:101CA000CDE903104FF6FF703F23074A0090074825
:101CB000FFF76AFA06AA06A13F20FFF7C7FA07B0A6
:101CC00000BD00002405002020070020B91F0008E7
:101CD00075432F4F532D49492049646C650000001E
:101CE00000B587B00320002180220A4BCDE90132E4
:101CF000CDE903104FF6FE703E23074A00900748D7
:101D0000FFF742FA06AA06A13E20FFF79FFA07B0A6
:101D100000BD00002403002020050020DD1F000876
:101D200075432F4F532D49492053746174000000AF
:101D300004E0002200F8012B4A1E91B20029F8DCD1
:101D40007047000070B5B4210F48FFF7F1FF0E4C4B
:101D500000250DE0681C00EBC0000B4901EB800082
:101D600060603F202075002161752434681C85B2B5
:101D7000042DEFDB002060603F202075002161759D
:101D800001480249086070BD24230020680000203B
:101D900070B560210A48FFF7CBFF094C04F1180623
:101DA000002504E0266018341836681C85B2032D1F
:101DB000F8DB0020206002480249086070BD000086
:101DC000D82300206C00002010B50024FEF73EFA56
:101DD000044613480078F0B912480078D8B900F0EA
:101DE0002DF81148007811490978884213D010481D
:101DF0000D49097850F821000E490860084600682E
:101E0000806B401C096888630B480068401C0A49C5
:101E10000860FEF732FA2046FEF71CFA10BD0000FB
:101E20004100002042000020440000204300002028
:101E3000240700205C000020280000200649074AF3
:101E40001278885C0649095C034A515C01EBC001C9
:101E5000044A117070470000CC5200084500002071
:101E600046000020440000200246002005E011F852
:101E7000013B02F8013B431CD8B20B78002BF6D192
:101E8000137070470146002002E0491C421CD0B28A
:101E90000A78002AF9D170472DE9F84F05460E4619
:101EA00017469846DDE90BABDDF82890002000903E
:101EB000FEF7CCF900903A480468002C6BD0183437
:101EC00054F8040C364908600098FEF7C3F944F84A
:101ED000186CA576002020766076E08244F814AC79
:101EE00044F80C9C44F8107C24F808BC24F8068CB8
:101EF000E077E810207705F00700E076217F0120E9
:101F00008840A077E17E01208840607700206060F3
:101F1000A0602061E0602062A0626062E0622063F5
:101F20003F2084F83400183C00214D200155204604
:101F3000FFF728F92046FFF787F9FEF787F90090A9
:101F4000184840F825401848006860610020A061EA
:101F50001548006810B11448006884611248046094
:101F60003434A07811490978084310490870207862
:101F70000F49085C6178084314F834190C4A50542E
:101F80000C480078401C0B4908700098FEF762F975
:101F90000020BDE8F88F0098FEF75CF94220F8E7D2
:101FA0005800002024070020600000204500002089
:101FB000460000204F000020002400BFFEF746F935
:101FC000044605480068401C034908602046FEF7A7
:101FD00041F9FFF73AF9F1E750000020002402E050
:101FE000C820FFF789FA1A4800780028F8D0194865
:101FF00000686421B0FBF1F01649086008460068EB
:1020000028B9002014490870FF20FFF715FA00BF17
:10201000FEF71CF9044611480068114908600020C9
:102020000E4908602046FEF715F90D480068094979
:102030000968B0FBF1F0C0F1640007490870FFF7D0
:102040005BF900F00FF86420FFF756FAE0E70000B4
:102050004000002038000020340000205000002004
:102060003C0000207CB5002514E069462846FFF7B7
:1020700045F9064666B9094850F8254044B1012C97
:1020800006D0D4E9020100EB810060640198A064ED
:10209000681CC5B23F2DE8DD7CBD00002407002090
:1020A00002F0010343B102F002032BB102E0491E2A
:1020B000002308C00029FAD17047000029B1064A60
:1020C00052690243044B5A6104E0034A5269824355
:1020D000014B5A61704700000010024029B1064AC6
:1020E000D2690243044BDA6104E0034AD2698243B5
:1020F000014BDA61704700000010024029B1064A26
:1021000012690243044B1A6104E0034A12698243D4
:10211000014B1A61704700000010024029B1064AC5
:1021200092690243044B9A6104E0034A9269824334
:10213000014B9A61704700000010024029B1064A25
:10214000D2680243044BDA6004E0034AD268824357
:10215000014BDA60704700000010024030B50021EA
:102160000022002400232D4D6D6805F00C0121B1E3
:10217000042905D0082923D105E0294D056022E076
:10218000274D05601FE0254D6D6805F47012234D45
:102190006D6805F48034022505EB92421CB9214D8F
:1021A000554305600BE01D4D6D6805F400351DB10C
:1021B0001C4D5543056002E0194D5543056002E092
:1021C000174D056000BF00BF144D6D6805F0F001AC
:1021D0000909154D6B5C0568DD4045600F4D6D6864
:1021E00005F4E061090A104D6B5C4568DD408560CF
:1021F0000A4D6D6805F46051C90A0B4D6B5C45686A
:10220000DD40C560054D6D6805F44041890B074D03
:102210006B5CC568B5FBF3F5056130BD001002408D
:1022200000127A0000093D0000000020100000208C
:1022300010B500F001F810BD0CB500200190009021
:102240003348006840F480303149086000BF3048AE
:10225000006800F4003000900198401C0190009844
:1022600018B90198B0F5A06FF1D12948006800F4C1
:10227000003010B10120009001E000200090009893
:10228000012843D12348006840F01000214908602C
:102290000846006820F0030008600846006840F027
:1022A000020008601A4840681949486008464068BA
:1022B00048600846406840F48060486008464068CE
:1022C00020F47C1048600846406840F4E8104860FC
:1022D0000846006840F08070086000BF0C48006845
:1022E00000F000700028F9D00948406820F0030091
:1022F000074948600846406840F00200486000BF57
:102300000348406800F00C000828F9D10CBD00001B
:10231000001002400020024010B5FDF797FF044670
:1023200006480078401C054908702046FDF792FFDA
:10233000FFF728F9FEF7DCFD10BD0000410000208A
:1023400010B51348006840F00100114908600846C4
:102350004068104908400E494860084600680E4928
:1023600008400B4908600846006820F48020086097
:102370000846406820F4FE0048604FF41F00886063
:10238000FFF756FF4FF000600449086010BD0000E1
:10239000001002400000FFF8FFFFF6FE08ED00E02D
:1023A00010B501210A4800F0E5F978B1012108488B
:1023B00000F0DCF807480068007D012806D1054AD6
:1023C00012689068034A1268D168884710BD0000FF
:1023D000002C0140902B002010B50121880700F04F
:1023E000C9F9C0B10121880700F0C0F80A480068A7
:1023F00088B109480068C06830B1074A126890681F
:10240000054A1268D1688847034800680069401C83
:1024100001490968086110BD8C00002010B5012138
:102420000A4800F0A7F978B10121084800F09EF8A9
:1024300007488068007D012806D1054A92689068A7
:10244000034A9268D168884710BD0000000400402C
:10245000902B002010B501210A4800F08BF978B1CB
:102460000121084800F082F80748C068007D012873
:1024700006D1054AD2689068034AD268D168884775
:1024800010BD000000080040902B002010B5012175
:102490000A4800F06FF978B10121084800F066F8A9
:1024A00007480069007D012806D1054A1269906835
:1024B000034A1269D168884710BD0000000C004033
:1024C000902B002010B501210A4800F053F978B193
:1024D0000121084800F04AF807484069007D0128BA
:1024E00006D1054A52699068034A5269D168884703
:1024F00010BD000000100040902B002010B50121FD
:102500000A4800F037F978B10121084800F02EF8A8
:1025100007488069007D012806D1054A92699068C4
:10252000034A9269D168884710BD0000001400403A
:10253000902B002010B501210A4800F01BF978B15A
:102540000121084800F012F80748C069007D012801
:1025500006D1054AD2699068034AD269D168884792
:1025600010BD000000340140902B0020CA430282BD
:10257000704721B1028842F00102028004E0028823
:102580004FF6FE731A4002807047000010B50446F3
:102590006848844208D10121C014FFF7CFFD002113
:1025A000E014FFF7CBFDC4E0B4F1804F08D1012166
:1025B0000846FFF7A3FD00210120FFF79FFDB8E0CB
:1025C0005D48844208D101210220FFF797FD0021D8
:1025D0000220FFF793FDACE05848844208D1012166
:1025E0000420FFF78BFD00210420FFF787FDA0E00A
:1025F0005348844208D101210820FFF77FFD0021C4
:102600000820FFF77BFD94E04E48844208D1012169
:102610001020FFF773FD00211020FFF76FFD88E009
:102620004948844208D101212020FFF767FD00219D
:102630002020FFF763FD7CE04448844208D101215B
:102640004014FFF77BFD00216014FFF777FD70E079
:102650003F48844209D10121C804FFF76FFD0021E2
:102660004FF40020FFF76AFD63E03A48844209D145
:1026700001210805FFF762FD00214FF48010FFF7EC
:102680005DFD56E03448844209D101214805FFF739
:1026900055FD00214FF40010FFF750FD49E02F4891
:1026A000844208D101214020FFF728FD002140206D
:1026B000FFF724FD3DE02A48844208D10121802013
:1026C000FFF71CFD00218020FFF718FD31E02548B1
:1026D000844208D101218015FFF710FD0021A015CB
:1026E000FFF70CFD25E02048844209D101210804B0
:1026F000FFF724FD00214FF48030FFF71FFD18E0A5
:102700001A48844209D101214804FFF717FD00212E
:102710004FF40030FFF712FD0BE01548844208D15A
:1027200001218804FFF70AFD00214FF48020FFF704
:1027300005FD10BD002C01400004004000080040D1
:10274000000C004000100040001400400034014024
:10275000004C01400050014000540140001800406E
:10276000001C0040002000400040014000440140A7
:102770000048014002460020138A0B400BB10120A3
:1027800000E0002070471AB183890B43838102E087
:1027900083898B438381704781847047002202883C
:1027A0001D4B98420ED01D4B98420BD0B0F1804F7C
:1027B00008D01B4B984205D01A4B984202D01A4BB6
:1027C000984204D14FF68F731A404B881A43174B27
:1027D000984207D0164B984204D04FF6FF431A4058
:1027E000CB881A4302808B8883850B8803850A4B2C
:1027F00098420BD0094B984208D00E4B984205D016
:102800000D4B984202D00D4B984201D10B7A0386B2
:102810000123838270470000002C014000340140F6
:102820000004004000080040000C00400010004080
:1028300000140040004001400044014000480140B5
:1028400008B540F22661224800F064F908B3214837
:1028500000882049896888420ED3002240F2266110
:102860001B4800F081F901211B48C06880F83C102A
:102870000020184908800CE016484068154A128864
:10288000815C134800F007FA12480088401C114987
:10289000088040F225510E4800F03CF970B10C4818
:1028A00000F0F4F9C0B200900B49C96801F11800BA
:1028B0000A4901220B696946984700BF40F224414A
:1028C000034800F027F910B1014800F0DFF908BD16
:1028D000004C0040D42B0020EC2B0020705400084A
:1028E00008B540F22661224800F014F908B32148E7
:1028F00000882049896888420ED3002240F2266170
:102900001B4800F031F901211B48006980F83C1098
:102910000020184908800CE016484068154A1288C3
:10292000815C134800F0B7F912480088401C114937
:10293000088040F225510E4800F0ECF870B10C48C8
:1029400000F0A4F9C0B200900B49096901F1180028
:102950000A4901220B696946984700BF40F22441A9
:10296000034800F0D7F810B1014800F08FF908BD16
:1029700000500040E02B0020EC2B00207054000899
:1029800010B540F22441154800F0C4F828B31448AB
:10299000FDF732FF13490968098A0C1A0021104813
:1029A000FDF778FE4FF48030FDF766FE0D480068B5
:1029B000008A0B495839C865A2B20A49096801F171
:1029C000180009490B6909499847044800F05EF965
:1029D00001210348FDF75EFE00BF10BD0038014035
:1029E00058000240EC2B002070540008002C0020FE
:1029F00010B540F22441154800F08CF828B3144873
:102A0000FDF7FAFE13494968098A0C1A002110489B
:102A1000FDF740FE4FF48010FDF72EFE0D48406894
:102A2000008A0B496C390867A2B20A49496801F16A
:102A3000180009490B6909499847044800F026F92C
:102A400001210348FDF726FE00BF10BD00440040F1
:102A50006C000240EC2B002070540008002E002077
:102A600010B540F22441154800F054F828B314483A
:102A7000FDF7C2FE13498968098A0C1A0021104823
:102A8000FDF708FE4FF48070FDF7F6FD0D488068F5
:102A9000008A0B4930394863A2B20A49896801F1BA
:102AA000180009490B6909499847044800F0EEF8F5
:102AB00001210348FDF7EEFD00BF10BD00480040B6
:102AC00030000240EC2B0020705400080030002041
:102AD00021B1828942F40052828104E082894DF65C
:102AE000FF731A40828170471AB1838A0B43838235
:102AF00002E0838A8B438382704702460020B1F54F
:102B0000007F00D100BF13880B400BB1012000E013
:102B10000020704770B502460024002300250020E5
:102B200040F66A16B14200D100BFC1F3421501F070
:102B30001F03012606FA03F3012D02D196893340C3
:102B400006E0022D02D1168A334001E0968A334016
:102B50000C12012606FA04F41688344013B10CB1A5
:102B6000012000E0002070BDF0B5034600240026DF
:102B70000025002040F66A17B94200D100BF184670
:102B8000C1F3421401F01F06012707FA06F5012CD4
:102B900001D10C3004E0022C01D1103000E01430DF
:102BA0001AB107682F43076002E00768AF43076068
:102BB000F0BD00002DE9F04786B005460E46002422
:102BC000A24600BFA1460027B08900B100BF2F4632
:102BD0002C8A4CF6FF700440F08804432C82AC89A8
:102BE0004EF6F3100440B0883189084371890843D8
:102BF0000443AC81AC8A4FF6FF400440B0890443E3
:102C0000AC8201A8FFF7AAFA1F48874202D1DDF87B
:102C100010A001E0DDF80CA0A88900F4004040B14C
:102C20000AEBCA0000EB0A1031684900B0FBF1F86A
:102C300007E00AEBCA0000EB0A1031688900B0FB1C
:102C4000F1F86420B8FBF0F004012009642101FBD5
:102C50001089A88900F4004040B1322000EBC9007F
:102C6000B0FBF1F000F00700044308E0322000EB75
:102C700009106421B0FBF1F000F00F0004432C8137
:102C800006B0BDE8F08700000038014001468888A2
:102C9000C0F308007047C1F308028280704700004B
:102CA00070B505460E48006808B9002070BD0C4894
:102CB0000468284600F0CCF806463246A52109A053
:102CC00001F082FE07E028682168884202D10021D5
:102CD000217601E02469F6E700BF00BF0120E5E7A7
:102CE000A80000202E2E5C5374616E646172644CE7
:102CF00069625C43655469636B65722E6300000012
:102D000010B504460021204602F066FA02D284F093
:102D1000004010BD2046FCE710B50146002300220C
:102D20000878302802DB087839280ADD08782B2853
:102D300002D008782D2804D108782D2800D101234D
:102D4000491C0DE00878302802DB0878392800DDBE
:102D500009E011F8010B303802EB820400EB440269
:102D600008780028EED100BF087810B16FF001009C
:102D700010BD012B01D15042FAE71046F8E70000E0
:102D80002DE9F84F064614461D464FF6FF79484692
:102D9000009022490020091BA84113D34FF00009DD
:102DA00048210020A4FB017305FB013104FB001145
:102DB0004FF47A7203463846FDF79AFA401C80B207
:102DC000009025E048210020A4FB017305FB0131A0
:102DD00004FB00114FF07A7203463846FDF788FA7B
:102DE0001FFA80F909F101004FF47A7180FB01713B
:102DF000884648210022A4FB01A305FB013104FB06
:102E000002113A4643465046FDF772FA80B20090EE
:102E1000A6F8169000983083BDE8F88F8EE30D0079
:102E2000014609B904207047886808B90320FAE709
:102E3000087B042801DD0620F5E7087B042803DC75
:102E4000086908B1486908B90620ECE70120EAE7FB
:102E5000014609B904207047486808B90620FAE716
:102E6000C86808B90320F6E70120F4E7014609B96C
:102E700004207047486808B90620FAE7C86808B90E
:102E80000320F6E7044A08681040904201D002206F
:102E9000EFE70120EDE7000000010004014609B959
:102EA00004207047086800F00220B0F1022F01D022
:102EB0000220F6E70120F4E770B504460D46074806
:102EC000006840B106482A46214643690348183045
:102ED0009847C0B270BD0020FCE70000B829002070
:102EE0007054000810B50648006830B10548816884
:102EF000034818308847C0B210BD0020FCE700002E
:102F0000B82900207054000810B504460020154967
:102F10000860012081F866010020A1F864010CB965
:102F2000012010BD04F00220B0F1022F01D00220D8
:102F3000F7E70C4804604FF4E1300A49486001208B
:102F400088724872087201F14000C860202008822F
:102F50000548016803488847034841680148884795
:102F60000120DEE7B82900204C5600080FB42DE9F7
:102F7000F84F6C48006800286FD04FF00009CA462F
:102F8000CB460020009000BF002500248046654904
:102F9000A1F864010FE06448C1680520884708F182
:102FA00001001FFA80F84FF6FF70804503DB012017
:102FB0005C4981F866015B4890F866010028EAD018
:102FC0000020584981F866010BAC0A9D8EE02878F4
:102FD000252870D1681C05460078642827D00EDCAF
:102FE00058285ED006DC252866D042284ED05528C9
:102FF0006DD128E0622848D0632868D10CE073289E
:1030000039D004DC662829D0692860D110E0752801
:1030100018D078285BD143E0201D044610F8040C3A
:10302000009000221146009800F0A0F855E000BF83
:10303000201D044650F8049C00221146484600F02A
:103040004DF94AE000BF201D044650F804AC0022B0
:103050001146504600F093F93FE05EE004F10800AD
:10306000044650F8086D476800231A463046394632
:1030700000F0AAF831E0201D044650F804BC0022FC
:103080001146584600F06CF927E000BF201D0446A9
:1030900050F8049C00221146484600F051F81CE00C
:1030A00000BF201D044650F8049C002211464846EB
:1030B00000F0CCF811E013E000221146252000F0CA
:1030C00055F800221146252000F050F805E00022B6
:1030D000114616A000F044F900BF00BF6D1C05E0CA
:1030E00015F8010B0022114600F040F8287800285E
:1030F0007FF46DAF002401200A4981F8660108467B
:10310000006E48B100210748B0F864216430815452
:103110006438016E6430884700BFBDE8F80F5DF881
:1031200014FB0000B8290020C055000821556E6B23
:103130006E6F776E20666F726D6174210000000003
:103140002DE9F04105460E4617461F240AE025FAF0
:1031500004F101F0010101F130003A46314600F07E
:1031600005F8641E002CF2DABDE8F08137B50D4693
:103170001446D5B91248006808B3124801226946BE
:1031800083680F4898470E48006EC0B19DF8001044
:103190000B48B0F86421643081546438B0F864019D
:1031A000401C0749A1F8640109E09DF8000021884E
:1031B00068542088401C20800020218868543EBD2F
:1031C000B82900204C5600082DE9F04704460D466A
:1031D000164699464FF0000A00221346204629461B
:1031E00001F0BEFD06D24A4631462D20FFF7BEFF54
:1031F00085F000452046294601F06CFD82464A468E
:103200003146504600F0BBF84A4631462E20FFF7C3
:10321000ADFF504601F08DFD074622462B4601F0DA
:10322000D9FE04460D460022074B2046294601F0F0
:10323000D3FD074601F04EFD82464A4631465046D0
:1032400000F09DF8BDE8F087D012634170B50446E8
:103250000D4616460F2101EA14711F4A505C324692
:103260002946FFF783FF1C49C4F30362885C32469A
:103270002946FFF77BFF1849C4F30352885C3246A6
:103280002946FFF773FF1449C4F30342885C3246B2
:103290002946FFF76BFF1049C4F30332885C3246BE
:1032A0002946FFF763FF0C49C4F30322885C3246CA
:1032B0002946FFF75BFF0849C4F30312885C3246D6
:1032C0002946FFF753FF04F00F01034A505C3246D2
:1032D0002946FFF74BFF70BD2C5400082DE9FE4333
:1032E00005460E4617464FF0000835B93A463146B6
:1032F0003020FFF73BFFBDE8FE83002D05DA3A469C
:1033000031462D20FFF732FF6D4200240BE00A20EA
:1033100095FBF0F100FB1150C0B20DF804000A203B
:1033200095FBF0F5641C0A2CF1DB092414E01DF870
:10333000040008B14FF00108B8F1010F0BD11DF8DE
:1033400004003030C0B20DF804001DF804003A4605
:103350003146FFF70BFF641E002CE8DA00BFCAE716
:1033600070B504460D46164605E014F8010B3246CA
:103370002946FFF7FBFE20780028F6D170BD2DE925
:10338000FE4305460E4617464FF0000835B93A464B
:1033900031463020FFF7EAFEBDE8FE8300240AE054
:1033A0000A20B5FBF0F100FB11500DF804000A20D3
:1033B000B5FBF0F5641C0A2CF2DB092414E01DF8BF
:1033C000040008B14FF00108B8F1010F0BD11DF84E
:1033D00004003030C0B20DF804001DF804003A4675
:1033E0003146FFF7C3FE641E002CE8DA00BFD3E7C6
:1033F00010B5044615480068002825D01348046617
:103400001348C16813A088471148C1681BA08847AA
:103410000F48C16823A088470D48C1682DA0884780
:103420000B48C16834A088470948C1683A488847B2
:103430000748C16839A088470548C16842A0884745
:103440000348C16849A0884710BD0000B829002082
:103450003C5400085C2A2A2A2A2A2A2A2A2A2A2AAA
:103460002A2A2A2A2A2A2A2A2A2A2A2A2A2A2A2ABC
:103470002A2A2A2A2A2A2A5C0A0A00005C2A574594
:103480004C434F4D4520544F205553452043524502
:10349000454C494E4B5320504C4154464F524D2AB7
:1034A0005C0A00005C2A4861726477617265207072
:1034B0006C6174666F726D3A454C696E6B53544D16
:1034C0002F454C696E6B53544D5F50726F2A5C0AE6
:1034D000000000005C2A5374616E64617264206CA9
:1034E0006962726172792076657273696F6E3A569D
:1034F00031372A5C0A0000005C2A436F7265206C39
:103500006962726172792076657273696F6E3A567C
:1035100031372A5C0A000000685600085C2A4265C0
:10352000696A696E67204461726365726E207465B2
:1035300063686E6F6C6F677920636F2E2C204C541C
:10354000442A5C0A000000005C2A435245454C496D
:103550004E4B5320444556454C4F504D454E5420FC
:103560005445414D2A5C0A0A000000005C2A2A2AC0
:103570002A2A2A2A2A2A2A2A2A2A2A2A2A2A2A2AAB
:103580002A2A2A2A2A2A2A2A2A2A2A2A2A2A2A2A9B
:103590005C0A0A000FB42DE9FE4F06464FF0000A00
:1035A000D34600200290019000BF002500248146F0
:1035B00000900FE05E48C1680520884709F10100CE
:1035C0001FFA80F94FF6FF70814503DB012059494E
:1035D00081F86601574890F866010028EAD000207B
:1035E000544981F866010EAC0D9D91E0287825289C
:1035F00071D1681C05460078642827D00EDC582855
:103600005FD006DC252868D042284FD0552870D1DD
:1036100028E0622849D063286BD10CE0732839D0A8
:1036200004DC662828D0692863D110E0752818D0FA
:1036300078285ED144E0201D044610F8040C019067
:103640006A4631460198FFF791FD58E000BF201D02
:10365000044650F804AC6A4631465046FFF73EFE39
:103660004DE000BF201D044650F804BC6A463146B8
:103670005846FFF784FE42E004F10800044650F883
:10368000087DD0F804806B46324638464146FFF745
:103690009BFD34E0201D044650F8040C02906A465D
:1036A00031460298FFF75CFE29E000BF201D04466A
:1036B00050F804AC6A4631465046FFF741FD1EE023
:1036C00000BF201D044650F804AC6A4631465046FF
:1036D000FFF7BCFD13E015E0FFE76A463146252001
:1036E000FFF744FD6A4631462520FFF73FFD06E01F
:1036F000FFE76A46314610A0FFF732FE00BF00BF69
:103700006D1C05E015F8010B6A463146FFF72EFDEA
:10371000287800287FF46AAF00240120054981F849
:103720006601BDF80000BDE8FE0F5DF814FB000067
:10373000C0550008B829002021556E6B6E6F776E5A
:1037400020666F726D617421000000000020014945
:1037500008667047B829002010B5044604488169FE
:1037600020468847024881692046884710BD0000EE
:103770007054000810B50446204600F045F8034890
:10378000816804F10C00884710BD000070540008E7
:1037900010B50446204600F037F80348C16804F12C
:1037A0000C00884710BD00007054000810B5044696
:1037B00004480168204688470248016804F10C006B
:1037C000884710BD7054000810B50446204600F02C
:1037D0001BF80348416804F10C00884710BD000045
:1037E0007054000870B504460D461646204600F099
:1037F0000BF8044832462946436904F10C00984707
:1038000070BD000070540008F8B504461548816882
:10381000204688470546002D23DD00261DE011487F
:10382000C16804F10C008847012813DB0D48016AC8
:1038300004F10C00884768B90A48012269464369C7
:1038400020469847074801226946036904F10C00A5
:10385000984700E003E0701C86B2AE42DFDB00BF99
:1038600000BFF8BD7054000870B504460D461646FA
:10387000E07D012806D109483246294603692046E1
:10388000984770BD2046FFF7BFFF044832462946DF
:10389000036904F10C009847F3E700007054000836
:1038A00010B5044603E00D48C16800208847A07A9F
:1038B0000128F8D00120A07203E00848C168002068
:1038C0008847E07A0128F8D00120E0720020E080EB
:1038D000012020810020E072A07210BDC0550008B8
:1038E00001460020CA880B899A4205DA0A89CB88EA
:1038F000D21A521E90B206E08A88CB88D21A521E83
:103900000B891A4490B2704701460020CA880B897F
:103910009A4205DDCA880B89D21A521E90B20EE077
:10392000CA882AB98A880B89D21A521E90B206E038
:103930008A880B89D21A521ECB881A4490B27047DB
:103940000146C87A70470021C18001210181002110
:103950008172C172704701460889CA88801A01289D
:1039600006D0CA888888401E824203D1088908B9D7
:10397000012070470020FCE72DE9F04104460E4687
:103980001746002503E02048C16800208847A07A38
:103990000128F8D00120A07223E0E0882189884224
:1039A00005DAE1882089401E814208D126E0E188BD
:1039B000A088401E814202D1208900B91EE0E08823
:1039C000401CE080E088A188884201D10020E0808E
:1039D000E1882068405C7055681C85B2BD4200DB00
:1039E0000CE0E1882089401E814207D0E188A08850
:1039F000401E8142D1D120890028CED100BF0020B5
:103A0000A0722846BDE8F081C05500082DE9F041BC
:103A100004460E461746002503E01A48C1680020F8
:103A20008847E07A0128F8D00120E07223E020895D
:103A3000E188884205DA2189E088401E814208D168
:103A40001AE02189A088401E814202D1E08800B995
:103A500012E0705D228921688854681C85B2208933
:103A6000401C20812089A188884201D1002020812A
:103A7000BD4200DB00E0DAE700BF0020E07228462C
:103A8000BDE8F081C05500082DE9F04F85B08146B2
:103A90000C469246142222A16846FCF7A0FC0026A0
:103AA000BAF10A0F09D1B9F1000F06DAC9F100071E
:103AB0002D223046761C225400E04F4600BFB7FB53
:103AC000FAF00AFB10701DF800203046761C2254D4
:103AD000B7FBFAF7002FF2D10020A05520782D284F
:103AE00002D14FF0010801E04FF0000845460CE01C
:103AF00014F805B0701E4044401B205C6055701ED9
:103B00004044401B04F800B06D1C701E00EBD071E7
:103B1000B5EB610FECDD204605B0BDE8F08F00008D
:103B200030313233343536373839414243444546F3
:103B30000000000010B502460B46002110E0505C6A
:103B40005C5CA04203D1505C40B9002010BD505CC9
:103B500008B1585C10B94FF0FF30F7E7481C81B24C
:103B60004FF6FF708142EADB0020EFE70A460021B2
:103B700006E0535C4354535C03B905E04B1C99B217
:103B80004FF6FF739942F4DB00BF704701460020F7
:103B900003E00A5C02B97047401CFAE710B5002147
:103BA0004FF00060FDF7A4F84FF4A060FDF796F821
:103BB000012010BD10B504460448806A401C03492A
:103BC000886203490869804710BD0000602B00200F
:103BD0000056000810B504460748007840B904E0D4
:103BE0004FF47A7000F014F8641E002CF8D102E053
:103BF000A0B2FDF781FC10BD4E00002070B5044658
:103C00004FF47A70B4FBF0F5284600F001F870BD6F
:103C10002DE9F05F8246BAF1000F01D1BDE8F09FB7
:103C200000F04AF8804689461948016919488847D2
:103C3000002706461648002142691648904700258D
:103C4000044606E0124800214269124890470025C8
:103C500004461048806A0021A0FB062301FB0631C0
:103C600000FB071012EB040B40EB05014822002378
:103C70005846FCF73DFB0246B2EB080261EB090037
:103C8000B2EB0A0270F10000DCD300BF00BFC5E751
:103C900028560008602B00200146C1EB0110024AA3
:103CA00002EB400070470000B054000810B5FDF76B
:103CB0005BFC002110BD00002DE9F0410C480169BA
:103CC0000C48884705460A4801214269094890473F
:103CD00004460848806AA5FB0020161940F100013F
:103CE000482200233046FCF703FBBDE8F0810000CA
:103CF00028560008602B002010B5FFF74FFF00F09A
:103D000005F8FDF7D1F8012010BD000010B50A48F4
:103D10000A49C8600A4808600A484860084688603E
:103D200000208862084801680448884706484168BE
:103D300002488847012010BDB53B0008602B0020D9
:103D400004010004404B4C0028560008034800883A
:103D5000002801DD012070470020FCE7A4000020BE
:103D600002480088401C014908807047A4000020D8
:103D700010B5FDF7D7FDFDF7E1F9012010BD0000FA
:103D800004480088002804DD02480088401E0149DC
:103D900008807047A400002030B587B00446204654
:103DA000FFF73EF805462A46832181A000F00CFE6D
:103DB0000020E06184F82000207B052874D2DFE831
:103DC00000F0034982ACC8007F480078112809D070
:103DD0007D480178212001557B480078401C7A49B4
:103DE000087036E0794800781E2809D077480178B5
:103DF0002120015575480078401C7449087028E05E
:103E0000734800782A2809D071480178212001558B
:103E10006F480078401C6E4908701AE06D480078C1
:103E2000372809D06B48017821200155694800786E
:103E3000401C684908700CE0674800783F2808D0AB
:103E4000654801782120015563480078401C62498B
:103E500008708DE05D4800781E2809D05B48017825
:103E60002120015559480078401C5849087029E024
:103E7000574800782A2809D0554801782120015553
:103E800053480078401C524908701BE051480078A4
:103E900037280AD04F480178212001554D48007835
:103EA000401C4C4908700DE061E04B4800783F2809
:103EB00008D0494801782120015547480078401C26
:103EC0004549087054E0424800782A2809D0404803
:103ED0000178212001553E480078401C3C4908707B
:103EE0001AE03C480078372809D03A480178212068
:103EF000015538480078401C364908700CE03648B7
:103F000000783F2808D034480178212001553248F4
:103F10000078401C304908702AE02E480078372885
:103F200009D02C480178212001552A480078401CEE
:103F3000284908700CE0284800783F2808D0264817
:103F400001782120015524480078401C224908703E
:103F50000EE0214800783F2808D01F480178212032
:103F600001551D480078401C1B49087000E000BF47
:103F700000BF03220023D4E9040101AD0BC5049264
:103F80002120005D0090D4E9040100EB8100021FB4
:103F90002120035D21461148FDF7F6F82122105D2E
:103FA00006AAA169FDF752F9012007B030BD000053
:103FB0002E2E5C5374616E646172644C69625C4362
:103FC000655461736B2E63009800002099000020F7
:103FD0009A0000209B0000209C000020FD3F00086C
:103FE00001460120704701460120704710B5024884
:103FF000C1680120884710BDC0550008044602E092
:10400000D4E901018847FBE7014601207047000021
:1040100070B518494869804705460E46164800683D
:104020002A1A66F10001521F71F1000101D201202C
:1040300070BD1049486980470F4908600F48006803
:10404000A8B10E4804680FE0207E01280BD16069FA
:10405000401D606161686069884204D3D4E902014F
:104060008847002060612469002CEDD100BF012049
:10407000DEE70000C0550008AC000020A8000020CA
:1040800070B504462046FEF7E3FE05462A465A214F
:104090000FA000F099FC0020206100212176134838
:1040A000006810B9114804600FE01049086809E081
:1040B00021680268914200D105E0016909B90461F3
:1040C00001E00069F4E700BF00BF012070BD0000FF
:1040D0002E2E5C5374616E646172644C69625C4341
:1040E000655469636B65722E63000000A8000020B0
:1040F00070B505460F48006808B9002070BD0D482E
:1041000004682846FEF7A4FE0646324686210AA029
:1041100000F05AFC09E028682168884204D1012196
:1041200021760020606101E02469F4E700BF00BF50
:104130000120E3E7A80000202E2E5C5374616E641A
:104140006172644C69625C43655469636B65722E8D
:10415000630000002DE9F04106461548006810B9DB
:104160000020BDE8F0810025114804683046FEF7C4
:104170006FFE07463A46C4210EA000F025FC12E06F
:104180003068216888420CD11DB9002008490860B8
:1041900006E0206910B90020286101E0206928614B
:1041A00002E025462469EBE700BF00BF0120D8E705
:1041B000A80000202E2E5C5374616E646172644C02
:1041C00069625C43655469636B65722E630000002D
:1041D0000146088BCA8A521C5043704710B50246EC
:1041E000012914D113691B884FF6FE74234014690A
:1041F000238013699B8C1469248D641C03FB04F0D9
:1042000013691B8843F001031469238010BD1069F2
:10421000808C13691B8D5B1C5843F7E77FB5044600
:104220002046FEF723FE0646324640F25F1135A0D7
:1042300000F0CAFB61680A4600232046FEF7A0FD95
:10424000E08AADF80400208BADF808000020ADF83E
:104250000A00ADF80600207800F00F05304840F85D
:104260002540304850F825002061681C012809D1FC
:10427000681C082806D12C4951F825000121FDF7BA
:104280004DFF11E0681C022808D128490870264912
:1042900051F825000121FDF721FF05E0224951F8E1
:1042A00025000121FDF71AFF2148405D8DF800002F
:1042B0002048405D00118DF801001E48405D00F06F
:1042C0000F008DF80200002121752069FEF75EF9CC
:1042D00001A92069FEF762FA01212069FEF746F97B
:1042E00001208DF803006846FCF7C0FC002120691E
:1042F000FEF752FA002201212069FEF744FA01205C
:1043000004B070BD2E2E5C5374616E646172644C97
:1043100069625C436554696D65722E63000000003C
:10432000902B0020B4000020EC000020B000002002
:10433000240100201456000810B5044601212175FF
:1043400000212069FEF728FA01212069FEF70EF905
:10435000012211462069FEF716FA01212069FEF7B5
:1043600008F910BD10B50446002121752069FEF73B
:1043700000F9002201212069FEF705FA01212069D8
:10438000FEF7F4F810BD000070B504462046FEF7B5
:104390006DFD05462A4640F291111AA000F014FB6B
:1043A000207D01280CD100212069FEF7E2F80022CF
:1043B00001212069FEF7E7F901212069FEF7D6F80F
:1043C00061680A4600232046FEF7DAFC208B21694B
:1043D0008885E08A21690885207D012810D1002187
:1043E0002069FEF7D9F901212069FEF7BFF8012203
:1043F00011462069FEF7C7F901212069FEF7B9F8D7
:1044000070BD00002E2E5C5374616E646172644C4A
:1044100069625C436554696D65722E63000000003B
:1044200010B504460248816904F11800884710BDA0
:104430007054000810B504460248816804F1180061
:10444000884710BD705400082DE9F04194B004462F
:104450002046FEF723FD8046424640F20B11EDA0B8
:1044600000F0B2FA207800F00F07E068A061218A1E
:10447000A183EE48016804F11800884700213C2020
:1044800001552068A0F1022005287DD2DFE800F068
:104490000325476A820001218803FDF73FFE0121C1
:1044A0000520FDF73BFE4FF40070ADF84C004000D6
:1044B000ADF84800DE49A163DE486062DD49143191
:1044C000A16225258114E162090121630E213420B6
:1044D0000155D9480460D94E76E001214804FDF722
:1044E000FDFD01210520FDF719FE0420ADF84C006B
:1044F0000820ADF84800D249A163CE483C30606244
:10450000CC492831A16226254104E16209112163C9
:10451000112134200155C8484460C84E54E001219F
:104520008804FDF7DBFD01210920FDF7F7FD4FF4BD
:104530008060ADF84C004000ADF84800C149A1636F
:10454000BC4828386062BB491439A1622725102174
:10455000E162811521630C2134200155B648846045
:10456000B94E31E00121C804FDF7B8FD012110204A
:10457000FDF7D4FD4FF48060ADF84C004000ADF87D
:104580004800B249A16300E01AE03425AA48C4609B
:10459000AF4E19E001210805FDF7A0FD01213020F3
:1045A000FDF7BCFD4FF48050ADF84C000420ADF891
:1045B0004800A849A16335259F480461A44E03E043
:1045C000022014B0BDE8F08100BF3420005D8DF8FA
:1045D00044008DF84050A04830F81700000B8DF8CB
:1045E00045009D4830F81700C0F303208DF84600C1
:1045F000994810F81700C0F303108DF84100964851
:1046000010F8170000F00F008DF8420001208DF81F
:10461000470011A8FCF72AFB01208DF8430010A8E1
:10462000FCF724FB18208DF84F0003208DF84E0076
:1046300013A93046FCF78EFA04208DF84B00352D77
:1046400001D1864900E03146084612A9FCF782FAFA
:10465000342D6AD0352D68D001210846FDF72EFD96
:104660000021606AFCF716F8606AFCF71FF8A06B7F
:10467000001D01907A4802901020039001200490C0
:104680000020059080200690002007900890099057
:104690004FF440500A9000200B9001A9606AFCF78B
:1046A000CEF8E06AFBF7E8FF0021606AFBF7F2FF53
:1046B00001220221606AFCF7B9F80021A06AFBF729
:1046C000E9FFA06AFBF7F2FFA06B001D0190252D0A
:1046D00007D0262D02D0272D09D105E06148029090
:1046E00006E06148029003E06048029000E000BFED
:1046F00000BF00200390208A0490002005908020B5
:10470000069000200790089009904FF440500A90BE
:1047100000200B9001A9A06AFCF791F8206BFBF731
:10472000ABFF0121A06AFBF7B5FF60680C90207A0F
:10473000ADF83400207A022801D1C00200E0002048
:10474000ADF83400607A012806D0022808D003288A
:104750000BD0042813D10DE00020ADF8360012E094
:104760004FF48050ADF836000DE04FF40050ADF836
:10477000360008E04FF44050ADF8360003E000206A
:10478000ADF8360000BF00BFA07A012804D002288F
:1047900006D003280ED108E00020ADF838000DE067
:1047A0004FF48060ADF8380008E04FF4C060ADF819
:1047B000380003E00020ADF8380000BF00BF002043
:1047C000ADF83C000C20ADF83A000CA9A06BFEF748
:1047D000F1F9012240F22441A06BFEF7C5F9342D16
:1047E0000CD0352D0AD001228021A06BFEF77CF978
:1047F00001224021A06BFEF777F905E0012240F28B
:104800002551A06BFEF7B0F901213C200155012094
:10481000D7E600002E2E5C5374616E646172644CA6
:1048200069625C4365556172742E630070540008C0
:104830000038014044000240EC2B002000080140F9
:104840000044004000480040000C0140004C004083
:104850000010014000500040405600080014014084
:104860002C010020002E0020002C00200030002011
:1048700070B504460D46164603483246294643693C
:1048800004F11800984770BD705400082DE9F041FC
:1048900004460E4615462046FEF700FB07463A46FC
:1048A0004FF4FA7121A000F08FF815B90120BDE88E
:1048B000F08100BF3C20005D0028FBD000213C209F
:1048C000015500BF4021A06BFEF717F90028F9D071
:1048D0001C49206888420CD11B4846608560002036
:1048E00019494880012240F22661A06BFEF73CF98D
:1048F00019E01449491C206888420CD113484660CD
:104900008560002011494880012240F22661A06B99
:10491000FEF72AF907E0606AC660606A4560012117
:10492000606AFBF7B7FE0120C1E700002E2E5C5342
:1049300074616E646172644C69625C436555617256
:10494000742E630003020002D42B0020E02B002011
:1049500070B504462046FEF7A1FA05462A4640F205
:10496000E51104A000F030F80121A06BFEF7B0F8CB
:1049700070BD00002E2E5C5374616E646172644CD5
:1049800069625C4365556172742E630070B50446BC
:104990002046FEF783FA05462A4640F2312104A05C
:1049A00000F012F80021A06BFEF792F870BD000035
:1049B0002E2E5C5374616E646172644C69625C4358
:1049C00065556172742E63002DE9F04105460E466F
:1049D0001446012C01D1BDE8F08110E0084881693E
:1049E0002046884780460748434632462946C768DE
:1049F00005A0B8470248C1684FF47A708847EDE7D0
:104A0000C05500083C5400085468657265206973FD
:104A100020616E206572726F72206F6363757272AF
:104A200065643A0A0946696C653A25730A4C696EF1
:104A3000653A25640A43455F5354415455533A251A
:104A4000730A0A0010B51E49086880471D480168AE
:104A50001D48884733201D4908601DA088611F48F4
:104A6000886008464860012008731D4808614FF4BB
:104A7000806048611B48416814488847194881682C
:104A80001248884722201849086018A088611A48EF
:104A900088600846486001200873184808614FF490
:104AA000806048610F4841680F4888470D48816819
:104AB0000D4888470B4908688047002010BD00005A
:104AC000C05500083C5400080302000200420020C8
:104AD0004D79205461736B3100000000014B0008D8
:104AE00000320020DC550008245200204D7920546B
:104AF00061736B3200000000354B00082442002037
:104B000007E00448C16804A088470948C1686420D8
:104B10008847F6E73C5400085461736B20312069E4
:104B2000732072756E6E696E672E2E2E0A0000005D
:104B3000C055000808E00548C16805A088470A4834
:104B4000C1684FF4FA708847F5E700003C5400084C
:104B50005461736B20322069732072756E6E696EBA
:104B6000672E2E2E0A000000C055000810B591EAED
:104B7000030F48BF83F0004300F14082841A71EBB9
:104B8000030C05D2121943EB0C03001B61EB0C0163
:104B9000DFF824E14FEA1154A4EB135C1EEA430F43
:104BA00018BF9EEA445F73D023EA0E03DCF1200EA7
:104BB00021EA045143F4801332D322FA0CFE10EBA5
:104BC0000E0023FA0CFE41EB0E01CCF1200E03FA8D
:104BD0000EFE10EB0E0051F10001B1F5801FCCF17B
:104BE000200E32D201EB045112FA0EF2BDE8104051
:104BF00058BF7047401C38BF5FEA420218BF704779
:104C0000002814BF20F0010041F100014FEA4103E8
:104C100013F5001F38BF7047A1F1C04100F0D4B9AF
:104C2000012A43EB0302ACF1200CDCF11F0E32BF72
:104C30004FF0000E23FA0CF310EB030041EB04518C
:104C4000B4EB115FD0D0A1EB045101F580114908FC
:104C50005FEA300001EB04510ED350F1000038BF81
:104C600012FA0EFE08D1BDE81040C9E7401C38BF5B
:104C70005FEA4202CAD1C3E7BDE810404FEA4103F0
:104C800013F5001F38BF7047A1F1C04100F09CB977
:104C90009EEA445F08D011EA5E0FBDE8104004BFF1
:104CA00001F0004100207047BDE8104070B500F0F1
:104CB0003DF900BF64FBBE3E0000E0FF491058BF55
:104CC000C1F140415B1058BFC3F140438B42EFF349
:104CD000008070474FEA41034FEA5353A3F58063C6
:104CE000D3F11E03C8BFD3F1210C0CDD4FF00042FD
:104CF00042EAC12242EA505232FA03FC8CEAE17CD9
:104D0000ACEBE1707047102BC4BF0020704703F577
:104D1000787CBCF1FF3F04D06FF0004282EA2100B2
:104D2000704770B500F002F9499224800020704766
:104D3000F2E710F0004248BF4042B0FA80F310FAA8
:104D400003F10AD0C3F11D0303F580634FEA41501C
:104D500002EB035202EBD12170474FF00000704785
:104D600051EA030C17D41CF5801F58BFBCF5801FF7
:104D700000F10680994218BF704708BF9042704703
:104D800007D711F5801F58BF13F5801F19D499421A
:104D90007047894270471CF5801F08D5BCF5801FFD
:104DA000F7D58B4218BF704708BF824270474FF457
:104DB000001C1CEB410F38BF1CEB430F01D28B4290
:104DC000704770B500F0B2F8922449004FF00051DE
:104DD0004FF08053FFF772BFDFF848C170B51CEA8F
:104DE000111E1EBF1CEA13159EEA0C0F95EA0C0F4C
:104DF00000F06F8081EA030423EA4C134EEAD47E6C
:104E000021EA4C1141F4801143F48013AE44A1FB1C
:104E1000024CA0FB0365AEF17F7E361955EB0C0505
:104E2000A1FB034C4CF10003A0FB021C16EB0C068B
:104E3000654153F10003094218BF46F0010613F41F
:104E4000007F0BD14FEA03314FEA0530340341EACA
:104E5000155140EA16506FF003020AE04FEAC321F1
:104E60004FEAC520F40241EA555140EA56506FF02E
:104E7000020202EB2E4201EB025585EACE710AD006
:104E80005FEA440C18BF24F0004450F1000041F1E7
:104E9000000120EAD47040F2FE7C624500D270BD71
:104EA000A84214BF4FF080444FF04044002E08BF8A
:104EB0000024BEF1806FA8BFA1F1C041BDE87040E1
:104EC00080F282804FF0000001F1C04101F000410A
:104ED00070479EEA0C0F0CEA131518BF95EA0C0FE9
:104EE00006D04FF0000081EA030E0EF0004170BDC5
:104EF00000F01CF88900013E00F007B800F009B886
:104F00004FEA430C5FEA5C5C08D081EA030100F0E1
:104F10005BB84FEA410C5FEA5C5CF6D14FF00000F1
:104F2000014970470000FF070000F87F0EF1020EF4
:104F30002EF0030E5EF8046B364205D4012A43EBD3
:104F4000030515F5001F12D8012841EB010C1CF5D3
:104F5000001F0CD80ED14FEAD17C15F5001F0CEBC9
:104F60004C0C0CF1020C08BF4CEBD37C04E04FF06E
:104F7000080C01E04FEAD37C0CEB4C0526FA05F651
:104F800006F00706B6F1040C06D20EEB860CBDE85F
:104F900070404CF0010C6047DFE80CF0090B020296
:104FA0004FF000414FF00000A1F5002170BD1946FF
:104FB0001046012851EB010418BFD4F5001484BF3A
:104FC000002001F0004170BD0808A0F500114FEA73
:104FD0003101704791EA030F10B581F000413FF5B0
:104FE000CDAD83F0004300F009B8000010B591EAA0
:104FF000030F48BF83F000433FF5C0AD841A71EB47
:10500000030C07D212198CF0004C43EB0C03001B6D
:1050100061EB0C01DFF8A4E14FEA1154A4EB135C3F
:105020001EEA430F18BF9EEA445F00F0B08023EAF7
:105030006E03524221EA0451C3EB6E0338BF5B1E7C
:10504000DCF1200E25D322FA0CFE10EB0E0043FA01
:105050000CFE41EB0E01CCF1200E03FA0EFE10EB1C
:105060000E0051F10001CCF1200E29D412FA0EF2FB
:1050700001EB0451BDE8104058BF7047401C1CBFF5
:10508000B2F1004F704700280CBF491C20F001000E
:10509000704712EB020E43EB030218BF4FF0010EF4
:1050A0004EEA4202ACF1200CDCF11E0E54D943FA58
:1050B0000CFE10EB0E0051F1FF31CCF11E0ED5D5D8
:1050C0000EF1010E12FA0EFE404141EB010101EB1F
:1050D000445C5FEA5C5C10D910EBDE7001EB0451BC
:1050E00038BFBEF1004FBDE8104018BF7047002820
:1050F0000CBF491C20F00100704730D24FEAD42C7D
:1051000011F5001124F400641BD0B1FA81F20B3ABE
:10511000A41AA41ED2F12003914030FA03F31943DC
:10512000904001EBCC71002C01EB0451BDE8104024
:10513000A8BF704701F1C0414FF0000001F00041ED
:105140007047B0FA80F310FA03F100D110BDE41AF1
:10515000173C4805C90AE4E701EB045110BD4910AA
:1051600001EB0451BDE810404FEA300002E04FF07F
:10517000000170474A0008BF0042F8D0B2F5001F96
:1051800028BF704701F000414FF0000070479EEAD1
:10519000445F07D011EA5E0FBDE8104004BF002154
:1051A00000207047BDE8104070B5FFF7BFFE00BF9C
:1051B00040DFF63E83F00041104670470000E0FFFC
:1051C000401058BFC0F14040491058BFC1F14041A4
:1051D0008142EFF30080704750EA010C00F1138028
:1051E0001CF5000F58BFBCF5000F01D48842704772
:1051F00007D710F5000F58BF11F5000F15D48842DE
:105200007047894270471CF5000F04D5BCF5000FAC
:10521000F7D5814270474FF0807C1CEB400F38BFC0
:105220001CEB410F01D28142704710B500F008F825
:10523000922449004FF000504FF08051FFF7C0BF5B
:105240000EF1020E2EF0030E5EF8044B244204D43D
:105250004FEA4102B2F17F4F11D84FEA4003B3F158
:105260007F4F0CD80ED14FEAD07CB2F17F4F0CEBC0
:105270004C0C0CF1020C08BF4CEBD17C04E04FF05D
:10528000080C01E04FEAD17C0CEB4C0324FA03F448
:1052900004F00704B4F1040C06D20EEB840CBDE854
:1052A00010404CF0010C6047DFE80CF007080202E8
:1052B0004FF00040A0F5800010BD0846420018BF26
:1052C000D2F1807288BF00F0004010BD00000100E4
:1052D00002000100030001000200010004000100BF
:1052E00002000100030001000200010005000100AE
:1052F000020001000300010002000100040001009F
:10530000020001000300010002000100060001008C
:10531000020001000300010002000100040001007E
:10532000020001000300010002000100050001006D
:10533000020001000300010002000100040001005E
:10534000020001000300010002000100070001004B
:10535000020001000300010002000100040001003E
:10536000020001000300010002000100050001002D
:10537000020001000300010002000100040001001E
:10538000020001000300010002000100060001000C
:1053900002000100030001000200010004000100FE
:1053A00002000100030001000200010005000100ED
:1053B00002000100030001000200010004000100DE
:1053C00002000100030001000200010001000000D2
:1053D000785634120A001000010024006801010010
:1053E0001C0014000200050010003F000100010035
:1053F000050010002400B4000100040001000400B6
:1054000018000800010004000100010001008000F4
:105410000100400020000100800001000100400068
:105420006C00E80301001E014E23000030313233CE
:10543000343536373839414243444546092F000850
:10544000F13300084D3700086D2F0008953500082E
:10545000E52E0008B92E0008012D00088D3B00083C
:10546000353B00086D3B0008893A0008192D0008FB
:105470004739000857390008E138000809390008A1
:105480000D3A000879390008A138000841390008B0
:1054900000000000AD370008C93700087537000864
:1054A0009137000869380008E537000859370008C7
:1054B00043455F5354415455535F535543434553FC
:1054C0005300000000000000000000000000434501
:1054D0005F5354415455535F4641494C45000000C9
:1054E00000000000000000000000000043455F5382
:1054F00054415455535F5245534F555243455F45B0
:1055000052524F5200000000000043455F53544187
:105510005455535F494E495449414C5F46414C53A1
:10552000450000000000000043455F5354415455BE
:10553000535F4E554C4C5F504F494E5445520000FE
:1055400000000000000043455F5354415455535F31
:105550004D414C4C4F435F46414C534500000000C9
:105560000000000043455F5354415455535F504180
:10557000525F4552524F52000000000000000000F0
:10558000000043455F5354415455535F4F55545F9A
:1055900054494D45000000000000000000000000DC
:1055A000556E6B6E6F774572726F7200000000006F
:1055B00000000000000000000000000000000000EB
:1055C000F93C0008FD3B0008113C0008D53B0008F1
:1055D000B93C0008AD3C0008993C0008713D00084A
:1055E000993D0008E13F0008E73F00080940000836
:1055F000613D0008813D00084D3D0008ED3F000879
:1056000081400008F1400008A12C00085541000825
:10561000114000083131313131313131E3388EE31D
:105620001C0000000E0000001D4200083943000865
:105630008943000865430008D1410008DD410008A6
:10564000312131213121212121210000494400084B
:10565000514900088D480008354400087148000889
:105660008D490008214400085C2A49662074686559
:1056700020736F6674776172652075736564206648
:105680006F7220636F6D6D65726369616C207075F8
:1056900072706F7365732C20706C65617365206325
:1056A0006F6E746163742074686520736F667477BD
:1056B00061726520646576656C6F706D656E7420CF
:1056C0007465616D2E2A5C0A00000000EC5600082B
:1056D00000000020300100006C010008585700084D
:1056E0003001002078570000C8010008412D010258
:1056F0000304041009060708090204060884A24AE4
:105700000469180170061805111E2A37342C01404F
:1057100012401A04041A08041A0C041A10041A1469
:10572000041A341C1A4C041A50041A54041A18147B
:105730001A1C043A202C113201320229E1190F19E6
:1057400037214220390589122961428019314009E7
:08575000191C1D1E3236372C16
:0400000508000131BD
:00000001FF
